:020000040020DA
:1000000044790020E5312200193222001B322200FF
:100010001D3222001D3222001D322200000000008D
:100020000000000000000000000000001D3222005F
:100030001D322200000000001D3222009D2B2200F4
:10004000153222001D322200153222001D322200FC
:10005000000000001D3222001D3222001D3222004D
:100060001D3222000000000000000000000000001F
:1000700000000000000000001D322200000000000F
:1000800000000000000000001D3222001D3222008E
:100090001D3222001D3222001D3222001D3222009C
:1000A0001D3222001D322200094A20006F4A200022
:1000B0001D3222001D3222001D3222001D3222007C
:1000C00025332200C34920001D3222001D322200A8
:1000D0001D322200000000000000000000000000AF
:1000E0000000000000000000000000000000000010
:1000F0001D322200000000001D3222001D322200AD
:1001000010B5DFF8C00B0FF2B961DA4C41650FF2A0
:10011000F97181650FF27551E1620FF2355121637A
:100120000FF6290161630FF65501A1630FF2F97112
:10013000E1630FF2B93121640FF2B55141640FF25E
:100140000D6181640FF27551C1640FF6B101016553
:10015000206908B102F083FBDFF8BC0B0B49A060FB
:100160000B22082020730020206181F820002075D8
:10017000002104F1150002F0C7FB04F12000BDE8E6
:1001800010400B22002102F0BFBB00007C44002085
:100190003EB504460520E082032020756068401EBD
:1001A0006060411E616094F83A10017094F83A0062
:1001B00010B14FF6FF7121876068411E6160218F89
:1001C000090A01706168208F087004F12F01207AFC
:1001D000C01C2072684602F0D6FDDFF8080AC38C06
:1001E00003228DF8082003216A46204601F0DBFC3B
:1001F000050004BF204600F0B4FE28463EBD70B5A1
:100200000D46044661680498160A01F8016D01F86C
:10021000020C01F8012CDFF8CC09428D120A01F81A
:10022000032C408D01F8040C180A01F8050C01F8A4
:10023000063D227A606861608218521A2272287A1A
:10024000DFF8301C03280CBF01200020E0820B22C5
:100250000920207504F1240002F032FB4FF6FF73F1
:100260002A460321204601F09EFC050004BF2046DB
:1002700000F077FE284670BDDFF8FC1B897A08295C
:10028000A8BF072101700078C006000E704700006B
:100290002DE9F04705460F46904602F07BFD00260B
:1002A000DFF8D49BD9F800A0441EA441E40F0AE073
:1002B000ED1F411D284602F066FD10365AF808ACC5
:1002C0006D1EF6B27F1EF8B280B10CE09AF81900EC
:1002D000410606D5DAF804004178C1F3810103290B
:1002E000E6D05AF808ACBAF1000FEFD10CB102F029
:1002F0004DFD02F04FFD411E8941D9F80000C90FA4
:10030000F0B142685378C3F38103022B15D1437EC9
:100310005B060AD5927905F80129761C4268537963
:1003200005F80139F6B27F1E07E0027E930604D578
:10033000012388F80030FAB212B150F8080CDFE758
:1003400009B102F023FD2E70681EBDE8F0872DE98B
:10035000F04385B08946002106468DF8001090468E
:100360000DF10100FFF788FFDFF878580746287B7A
:100370003F184137FFB2384602F0F8FA04004DD07A
:10038000E019606046EA0916002020722A7B606846
:1003900051424718A968384602F092FA9DF80110B8
:1003A0006A46781EFFF774FF00217E4A01701378B9
:1003B00069789B0143EAC11343EA081343F00F0332
:1003C00000F8013C00F8026D227A616860608A18CA
:1003D000121A00202272E08220758DF80C000B2288
:1003E000DFF8F01B04F1240002F06AFA9DF8000027
:1003F00018B1E18A41F00801E1824FF6FE71688D83
:100400008842ACBF03210221002301AA204601F04B
:10041000CAFB0028204602D002F0BAFA002005B03C
:10042000BDE8F083F8B5074602F0B4FC461EDFF8DD
:10043000480A0468B641F60F00250EE0617E080602
:1004400009D57968606801F05DFB20B1607E00F03D
:10045000BF006076254654F8084C002CEED11DB143
:10046000687E40F0400068761EB1BDE8F14002F0C1
:100470008DBCF1BD185400202DE9F8438046894613
:1004800002F088FC0026471EDFF8EC090568BF4132
:10049000FF0F00240AE02C46617E207E41F010010F
:1004A00040F080006176207655F8085C9DB1687E4A
:1004B0000106F9D56A684946404601F03FFB00282D
:1004C000F2D0002CE7D0207D012804D160680178AB
:1004D00041F0100101700FB102F058FC14B100F0AE
:1004E000CDFC01263046BDE8F28300002DE9F04145
:1004F00082B00025009502F04DFC00F04BF80EE0B4
:1005000054F8088C2A462146384602F00BFB214657
:10051000684602F0C3FAB87A411E4446B972CCB1BB
:10052000607E010605D5608A401E608280B2002888
:10053000E6D0254654F8084CF1E7FFF773FF607EDC
:10054000410759BFF0206070E9216170204600F03A
:10055000EAFB18E00EB102F019FCB87A98B1DFF8A6
:100560008416487B0F281EBFDFF83C1B91F8200043
:10057000002808D1DFF8504C204602F0B2F83021B4
:10058000204602F095F8684602F0A3FA0400D4D1A0
:10059000BDE8F381DFF8147B3C68461EB641F60FD8
:1005A000704700008453002070B50546FFF73AFFFE
:1005B000DFF8C448DFF82C66A06C80470128F08D76
:1005C00008BF401C6882A07A002804BF717B0F29F5
:1005D00008D1DFF8F45B284602F083F83021284682
:1005E00002F066F802F0D6FBA17A00F02BF8A172B7
:1005F00018B1BDE8704002F0C9BB70BD38B5044603
:10060000DFF87458607E00F0EF0060762046FFF758
:1006100009FF2146284602F074FA02F0BBFBA97AD2
:1006200000F010F8A97208B102F0B0FBDFF8B405D1
:10063000417B0F2904D1BDE83240082001F080B889
:1006400031BD0000401E8041491CC00F70470000B2
:1006500010B5DFF890150446487886B0A0B10121A6
:1006600000208DF800108DF8010000F03AF8616864
:1006700008788DF80A0004F10F010DF10B0001F06C
:10068000E9FB684602F0AAFC06B010BD10B50446AE
:10069000FFF77EFDDC2818BFDD2808D0E42818BF4E
:1006A000F32804D0DE281CBFDF28DB2805D1014653
:1006B0002046BDE8104001F07BB810BD10B586B0F3
:1006C000044606208DF8000000F00BF804F10F013D
:1006D0000DF10A0001F0BEFB684602F07FFC06B097
:1006E00010BD04F11C010DF1020002F04CBB000032
:1006F00030B5044604F1380585B0A87820B304F17C
:100700002F0101A802F03FFB6248017D03880091A0
:1007100003228DF80C2001A92A882046FFF76FFDDF
:100720000146DC2918BFDD290BD0E42918BFF329C5
:1007300007D0DE2918BFDF2903D0E82918BFDB293D
:1007400002D1204601F034F805B030BD2DE9F84360
:10075000804602F01FFBE725DFF850793C68461E13
:10076000B6414FF00009F60F02E0A14654F8084CDC
:100770009CB1607E0106F8D5207D012802BF94F867
:100780003D1098F804008142EFD14A462146384690
:1007900002F0C8F9B87A411EB9720EB102F0F6FA49
:1007A0003CB12046FFF73EFEF021204601F000F864
:1007B000002529464046BDE8F44300F0F9BF00009B
:1007C00030B5054685B06878F32818BFDF2822D0F9
:1007D000E82818BFDB281ED0284600F029F80400BE
:1007E00018D1287CB0B105F11101092000F08DF974
:1007F00080B100F015F8A97A009101A92B89FFF7C3
:10080000FEFC0446F32C18BFDF2C03D0E82C18BFE5
:10081000DB2C03D16C70284600F076F805B030BDB3
:1008200002218DF80C104FF6FF72ADF804207047CE
:1008300038B504460025A07A0B381328207B28BF42
:10084000E8251028A8BFE82501DA0F2805D0DFF831
:1008500074140A7A110758BFE825617B884202D2D6
:100860000F2918BFE825DFF87C03418D4FF6FF7292
:10087000914208BFEC25242001F08BFFDFF8B01C6B
:10088000086120B12422211D02F01AF800E01A2587
:10089000284632BD3651002070B50446D14D207A2D
:1008A000DFF8946B6873607A85F82C00E07AE87062
:1008B000A07A307002F0D4FC307838B1211D50207D
:1008C00002F032FEA11DE12002F02EFEDFF8D81763
:1008D000012081F8200004F10D01687BDFF8505CF5
:1008E0000F2814BF0120002028750B2205F11500E8
:1008F00001F0E6FF04F1180105F12000BDE87040A9
:100900000B2201F0DDBF000010B50446607820B96D
:10091000DFF81C1C0869FFF7BFFF2C21217020465F
:10092000BDE8104000F08CBF10B5DFF8041C044691
:10093000086918B100220A6101F091FF08202070B7
:100940002046BDE8104002F049BB0000DFF8581710
:1009500091F8200000B9704780B5DFF86C18087D69
:1009600050B9A048C27890F82C10407BFFF7EFFCFC
:1009700010B1BDE80240F4E201BD000030B505460B
:1009800089B0A87B0124410724D5E98E05F11C001C
:10099000FFF772FDF0B9DFF8641C4879012808BF41
:1009A000002417D00B2205F10F0106A801F088FFE3
:1009B0008C48418D4FF6FE729142ACBF032102215B
:1009C00006A830220190009205F11C02EB8E012056
:1009D00001F09CF910208DF8080005F11C010DF1C3
:1009E0000A0002F0B8F9E88EADF814008DF8164050
:1009F00002A802F0F3FA09B030BD0000DFF8381A9F
:100A00000878002818BF01F068BB7047AD4800F1B6
:100A100054010162DFF8441C416200F1440181622B
:100A20000FF220010164DFF8381C0166DFF8601C5A
:100A30008167DFF8601CC167018941F00201018113
:100A40007047000003047104020460041104700480
:100A500002040204010402041004610400041404EA
:100A60006304730472046204430400041304060460
:100A70000004000404041204000400040004000440
:100A80005104640000040004000444040004000451
:100A900000040004650400043504810464000504B6
:100AA000000483040004000002461146032000F005
:100AB0000EBF0146082000F0EBBE0FF2612010B51A
:100AC000DFF8E845606482B00FF23920A06404E0EA
:100AD000204601F0FEFF00F014F821680029F7D14C
:100AE000606828B1201D01F0F4FF00F00AF8F7E774
:100AF0002060A072E07220730FF2D150E06213BD4B
:100B000000000090684600F0A5BF38B504460FF21B
:100B1000C050055D284601F029FF20B14119416010
:100B20000021017232BD022001F020FF58B10FF206
:100B3000C451095D01701A2141700146DFF86C054E
:100B4000007C01F034FF002032BD831DC907DBB2F9
:100B500010D50A2193FBF1F10A2202FB1131C9B22F
:100B600041B10A335B1ADBB20529A4BF0A33DBB2F9
:100B70000B33DBB21328ACBF14200620C318DBB242
:100B800009330A2093FBF0F0C0B2704780B54D489E
:100B9000017A880704D502F020FB10B1012002BDC4
:100BA000002002BD4748017A88070CD5B24A907AE6
:100BB00038B9DFF8F404C06F28B1407E10F080002F
:100BC00002D00120704700207047AB49DFF82C3A73
:100BD0000A7B99788A4238BF01F0C8BE002070476E
:100BE000000000001051002080B500F033FF00200D
:100BF00002BD31B5017BA04C21B1012926D00329CA
:100C000026D037E0DFF8845C687B0F281EBF2D49B3
:100C10008A7A032A02D00098E16B8847009995F8F8
:100C20003A008873142000990870201D009901F083
:100C300035FF02F0AFF8217BFFF704FD217308B107
:100C400002F0A4F8202000F07BFD31BD1520EAE77A
:100C50000146087A70B14868401C4860009910F855
:100C6000012D4A73009AD07D0028507B05D008B131
:100C70000A2812DBFFF746FF31BD48B10A2807DA20
:100C80000FF25845137A291811F8011C8B4204D031
:100C9000082804BF117A0829ECD11046017A4A1EAF
:100CA00002720099487B0A3008700098417B491C09
:100CB0004173BAE7DFF8F403C06C002818BF00479F
:100CC00070470000FC44002038B504460120207520
:100CD00004F13C004188638FE18204F13002017924
:100CE000E17641792177C17984F820100178204696
:100CF00000F059FF050004BF204600F032F92846F5
:100D000032BD0000DFF8400C817A032901D1202098
:100D1000704701207047000041172000417E41F0DC
:100D200001014176704710B5027D017E012A03D191
:100D30000B0701D441787EE14C06DFF8703304D50F
:100D40004078196CBDE810400847012A03D1090713
:100D500048BF30210BD441781B2908BF222106D07F
:100D600000290CBF0FF280310FF28831895C0170CD
:100D70000146BDE81040187C01F019BE70B5DFF8DF
:100D800028430646E06F002872D03100DFF8BC5BD4
:100D900004D01B2E05D1017D052953D000224270BD
:100DA00052E0E92E2ED1807E30B902F018FA18B147
:100DB000E06F817D48072ED5EE2002F007FDE16F40
:100DC000887EE8B18A7D530705D4401E8876BDE849
:100DD000704002F0BABD087E00F07F000876E06F38
:100DE000017D032903D1427E42F004024276ED20C8
:100DF00002F0ECFCDFF8501BE06FCA6F904726E072
:100E00004E7021E0E12E15D102F0E9F9D0B1E06F8A
:100E1000817D480716D4E16FA87C8876E16F4A6827
:100E2000287890702878401C28700120BDE8704018
:100E300002F0E9BC1C2E05D10F490A6D9047002035
:100E4000E06770BDE06F4670E06FFFF76CFFE06F2A
:100E5000817D080605D5287E02F04AFAE87D02F079
:100E600012FA0020E0671020BDE8704000F068BC76
:100E700070BD00002D540020945200202DE9F04157
:100E800001F088FF884E441EA441F06FE40F002853
:100E90004FF000085FD1854FB86C80473D6840F047
:100EA000100002E0A84655F8085C002D53D0697E7A
:100EB00001408142F6D142462946384601F032FED1
:100EC000F567697E08062CD4F87A411EF9720CB1D8
:100ED00001F05CFFF46FE18A207AFFF736FE38817B
:100EE000A07D010606D5E07E02F002FAF06F007FD9
:100EF00002F0C9F9F26FD08AC10520D539890029DD
:100F00001CBF92F82000002811D090FBF1F082F86D
:100F10002100F06F10F8081F1329ACBF0221002137
:100F200003E0B87A411EB972D1E7817605E001206D
:100F300082F82100F16F81F82200032005E0107E85
:100F4000400800F0010080F00100BDE8F04102F02F
:100F50005ABCBDE8F081002CFBD0BDE8F04101F0A7
:100F600015BF38B5044600F06EFD217EDFF88C0613
:100F70000A0704D4217D012908BF027800D04278F5
:100F80004A4D2146284601F0EAFDD8B1696C204659
:100F90008847A07D41070ED401F0FCFEE97AFFF7F7
:100FA00051FBE97208B101F0F1FEE08AC1050FD4EE
:100FB000BDE8314062E7DFF890198A6F2046BDE84E
:100FC00032401047F12060702046BDE83240AAE66A
:100FD00031BD00003854002050E710B50446DFF85A
:100FE000680900890021820704F1380303D4DA88F4
:100FF000520748BFE82110F0600F03D1DA8890074C
:1010000048BFE821DFF8F4058279207A82421A7914
:1010100038BFE821002A02BF18780028F52107D040
:10102000080003D12046FFF74FFE0146080001D01B
:10103000204600E010BDBDE81040B9E30D2101706D
:1010400001F0CCBF38B50446002020706070DFF896
:10105000AC15E08F0978154D420707D4EA7A8A4229
:1010600007D3F1212046BDE83440A1E3AA7A8A42A1
:10107000F7D2C10510D594F84210052912DB10F003
:10108000050F0FD105F1240001F02BFB94F842105D
:1010900005F1240001F00CFB287C2146BDE834401A
:1010A00001F085BCE821DDE77C440020945200205B
:1010B00010B5044604F15C0080B201F057FC18B191
:1010C00000F15C010472416010BD0000D6E6000032
:1010D00000464A4C4449494339513A00020402014E
:1010E0000101010902000000303016181920231AEE
:1010F0001C1E3000303017181921301B1D1F300006
:10110000DFF8F80B0FF26911016000220FF2913144
:1011100041600FF2E11181600FF21921C1600FF2FD
:10112000293101610FF2DD2141610FF2B5218161A9
:101130000FF2C131C1610FF2194101620FF2694131
:1011400041620FF2A14181620FF21D21C1620FF2D3
:10115000ED0101630FF2D10141630FF2E1218163DF
:101160000FF26941C163DFF8981B01640FF29141EE
:1011700041640FF2F1418164DFF8880B00F15C01FA
:101180000A70CA7002220FF2B95140F83C1F016187
:10119000027101210175704700B585B002228DF8FA
:1011A00000208DF8010008B14FF6FF71ADF8021074
:1011B0000B22DFF8541B01A801F082FB684601F006
:1011C0000DFF05B000BD00001854002080B50A22B4
:1011D0008DF801008DF800208DF80210684601F0AE
:1011E000FDFE01BD3EB504460120E08204F132015E
:1011F00002202075684601F0AEFD6068A38F94F868
:101200003E10401E606001706A46207A401C2072C9
:101210008321204600F0C7FC050004BF2046FFF7ED
:10122000A0FE28463EBD0000DFF8602692F835108B
:1012300030204143DFF85C0C01F03ABA30B5DFF8FA
:101240004C46607B0F2893B006D02E218DF80010FD
:10125000684600F0F5FA09E000F0E8F8608E142125
:10126000B0FBF1F105F1340001F022FA13B030BD0A
:1012700038B504466078010032D104F13205297A8C
:1012800002291CBF0329E82094F82F100B391329D9
:1012900013D2010024D104F12F01E12002F044F91E
:1012A00004F13C01502002F03FF9297ADFF8DC0517
:1012B000022904D12A88028408E0E82012E04FF6CF
:1012C000FE7101841630294601F05DFD0B2204F108
:1012D0002401DFF8340A01F0F3FA2046FFF782FF19
:1012E000010006D06070172020702046BDE8324013
:1012F000A6E231BD10B5DFF80C4A94F85F0086B065
:10130000A8B9012184F85F10012002F03EFC02A878
:1013100000F0E9FBDFF8742504F15400012101908D
:1013200000910321D38C02AA052000F0EFFC06B047
:1013300010BD000010B500F0FDF82178202904BF91
:10134000EB20607000F0EEF844BF01F0FB0180F884
:101350005F1000F0E3F800D5F0E02A20207020466E
:10136000BDE810406CE2000070B5044682B0012078
:1013700002F01CFC00F05AF805F1440001F0B1F94C
:1013800000F027F8ADF8001060688678300008D1CA
:101390006946532002F0C8F804F11C014A2002F00B
:1013A000C3F80B2204F10F0105F1540001F088FA93
:1013B000BDF800103046FFF7EFFE95F85F0081079B
:1013C00003D560780021FFF701FF002085F85F005A
:1013D00073BD60680178407801EB00217047000020
:1013E00010B50446EB206070DFF8580B90F85F20D2
:1013F000900703D50021EB20FFF7E8FE4FEA040039
:10140000BDE8104038B500F095F800F00FF805F190
:10141000440001F066F905F15C0000210170C17023
:101420004FF6FF716078BDE83440B5E6DFF8145B35
:1014300005F1340001F055B98453002010B504467D
:10144000FFF7CEFFC8E0000010B500F073F8207A77
:10145000002814BF0020EB20607000F063F844BF48
:1014600001F0FB0180F85F1000F058F80BD501F097
:10147000FD0180F85F1000F091F8ACBF0121002160
:10148000FFF7A4FE08E0C80706D52A202070EB204D
:101490006070204600F0D4F92046BDE81040CDE54C
:1014A0001CB50446DFF85C0890F85F1041F00201BB
:1014B00080F85F10012002F068FB607898B9DFF8CF
:1014C000CC13488D4FF6FE729042ACBF032102212F
:1014D00004F11000012201900092221DE3890520F1
:1014E00000F014FC6070607818B1BDE81C40002169
:1014F0006CE613BD10B500F01DF82178202904BF5B
:10150000EB20607000F00EF844BF01F0FB0180F8A2
:101510005F1000F003F800D510E010BD90F85F10E8
:101520008A077047DFF81C0A90F85F104A07704777
:10153000185400200446012002F038BB01F0FD01E0
:1015400080F85F1000216078BDE810403EE60000A2
:1015500038B5FFF7EFFFFFF769FF207A002814BFC7
:101560000020EB20607095F85F00410744BF00F059
:10157000FB0085F85F0095F85F0081070AD500F051
:10158000FD0085F85F0000F009F8ACBF01210021E3
:10159000FFF71CFE2046BDE832404FE5A07B00F07F
:1015A000100001286078704710B5FFF7C3FFEB21EA
:1015B0006170FFF7B7FF44BF01F0FB0180F85F10D7
:1015C000FFF7ACFF00D5B9E710BD000010B500F083
:1015D00010F82046FFF7E8FF2046BDE8104000F075
:1015E0000BBD000010B500F004F82046BDE8104027
:1015F000DAE70446DFF8C80B01F073B814332200B1
:1016000010B5044686B004F11C01DFF8BC0B01F0F4
:101610008FFB08B3EF2009218DF801008DF8001031
:10162000FFF7D7FEADF80210606801798DF804105D
:10163000207A082804D16168C8798DF8050002E095
:1016400000218DF8051004F10F010DF1060000F0E6
:1016500001FC684601F0C2FC06B010BD44540020F5
:101660000101200000F039BDB748DFF89016816114
:101670003831C1610FF2200141630FF2D001816363
:10168000DFF8481BC165018941F001010181704704
:10169000A9052000FD0520000101710101010101E2
:1016A00011010101310101010101800110016101FC
:1016B0003B001400630173017201620143010001E8
:1016C000130106013D013500040112010001000172
:1016D0000001000104010401330133013C01440114
:1016E0003201360000010001650100013500810171
:1016F000000105018201830100010000024611463C
:101700000220E4E001460620C2E010B58E4C2068BD
:1017100082B010B1204600F09DF90021A172DFF8DF
:10172000B01A086858B102E0684600F093F9DFF893
:10173000780B007C01F068F900280090F4D113BD0B
:101740000146DFF8640B007C01F02BBA0302710242
:1017500030016002110270020102020202028002E4
:10176000100261023A0041006302730272026202D7
:1017700043020002130238000002000204021202B7
:1017800000020002000200020402040237003700D7
:101790003C0244020002390000020002650200021D
:1017A000350281020002050282028302000200006B
:1017B00000B585B003780FF27C02D25C8DF8002072
:1017C0000B2A03D1417000F067FB31E082B30C2A91
:1017D00029D11A2902D10020019024E0019090F82B
:1017E0003D208DF80220C2680292028AADF80C20DA
:1017F000827DD30648BF002204D4244A92F83430B4
:10180000827E9A1A8DF80E20427F8DF80F20827FFB
:101810008DF81020C27F8DF81120C08AC20544BF08
:1018200011228DF800208DF80110684601F0D6FBDA
:1018300005B000BD0C0E020B040B0A0708000F00D8
:1018400038B5934A937A02F1300102F1300551F82C
:101850002330017801F07F01017003EB41014C78E6
:1018600055F8241001B19472047813F81430190952
:1018700002EB8102D16811B9BDE83240EFE203F01A
:101880000F0351F82310BDE83440084710510020E1
:1018900070B505460FF2840082B0405D0E4601F03F
:1018A00065F804000CD0257000210FF27C006170F7
:1018B0003146425D201D01F003F800F03BF873BD96
:1018C0008DF800501A216846FFF772FF73BDF8B516
:1018D00007460FF24800C65D0D46304601F046F857
:1018E000040012D02770002060702946A0196060A3
:1018F000002020720FF23000C25D04F1240000F0DD
:10190000DFFF00F017F80020F2BD8DF800701A21FB
:101910006846FFF74DFF1A20F2BD00000005595739
:10192000515C1C202807020000011C181A18181C02
:1019300024030000DFF87009007C214601F037B86D
:10194000DFF8641908747047FC440020325100200D
:10195000F8B50E46B0064E4DDFF84C7919D41DE0AF
:1019600001F018FA397B401E80414A1EC00F3A73BD
:1019700008B101F00BFA20788DF800006C60204669
:10198000FFF75EFF9DF8000015281CBF281D00F022
:1019900061F8381D01F09DF80400E1D1300406D44F
:1019A0000AE06860FFF74CFF281D00F053F8387C10
:1019B00001F02AF80028F4D1F00602D52D2000F01D
:1019C0003EF8F00702D5242000F039F8B00702D520
:1019D000252000F034F8700702D5262000F02FF8FB
:1019E000300702D5282000F02AF8700607D500201D
:1019F0008DF801002C218DF8001000F022F830063F
:101A000007D500208DF801002F218DF8001000F07F
:101A100018F8286888B101F0BDF9401E2C68804193
:101A20000021C00F296008B101F0B0F96C602046B8
:101A3000FFF706FF281D00F00DF80020F2BD8DF81D
:101A400000006846FCE612494A68824204BF002052
:101A50004860704738B5040008BF02F045F901F04E
:101A600099F9451EAD412168ED0F59B1084A5368F7
:101A7000A1F108008B4204BF0021516000212160C8
:101A800000F0EDFE1DB1BDE8314001F07FB931BD80
:101A9000FC440020DFF8540B0FF2C13141600FF21B
:101AA000CD3181600FF2C931C160DFF8441B0161A3
:101AB0000FF2E5314161DFF8681B8161DFF8641BDB
:101AC000C1610FF2017181630FF28D41C1630FF2A9
:101AD000E94101640FF27D5141640FF21D518164AF
:101AE000002101707047DFF8841B0A8C4FF6FE73EB
:101AF0009A4204BF163101F02EB902220272098CFB
:101B00000180704742784B78C2F38102C3F38103AE
:101B10009A4211D1022A09D142794B799A4202BFE5
:101B200080798979884207D101207047032A03D13F
:101B3000491D401D01F019B90020704738B554788F
:101B4000057A0023C4F38104AC4218D1022C10D1D1
:101B500054799579008804EB0524A4B2A0420ED1F3
:101B6000D078127900EB022080B2814207D10123A4
:101B700005E0032C03D1511D01F0F7F80346184688
:101B800032BD017ADFF8E42A022907D1128C0088DD
:101B9000824201D10120704700207047014602F1C6
:101BA000160001F0C5B82DE9F84F92469946002776
:101BB000DFF8B82A9AF8084002F114060B064CBF69
:101BC0004FF6FF78B6F81280054601F07F018DF8D8
:101BD0000010A87D81064CBF082000202876A87D33
:101BE00041074CBF80201020687602F13400A97DA7
:101BF000CB064CBF00210178A976E98ACB0748BF04
:101C00002027090769682B7D48BF47F01007491E48
:101C1000022B07DB0B2B1CBF5B1E01F8013947F0C1
:101C2000030700E01F43407D012804D12B7A672B76
:101C3000A8BF47F480579DF8000047EA8037022884
:101C4000BFB207D1F08A000A0870F28A01F8012CAD
:101C5000891E0AE0032808D1A1F1070B02F13C011B
:101C6000584601F090F8ABF101019DF8000058B121
:101C700024B1C84508BF47F0400705D04FEA2820E7
:101C8000087001F8018C891E47EA8427022CBFB234
:101C900009D1BAF80000000A01F80109BAF80020D9
:101CA00001F8012909E0032C07D1A1F107085146E9
:101CB000404601F068F8A8F101012CB14FEA192063
:101CC000087001F8019C891E287D4A1E18B93078D9
:101CD000431C337002E0B07B431CB3730870380AB6
:101CE000107002F8017D297A68686A604118891AC3
:101CF000297200206870BDE8F28F00003853002080
:101D00003D242000DC510020305200202DE9F04716
:101D1000099F8A460546904699463946FEF7F5FEE4
:101D20001A2604001AD00898E08225750B2239463D
:101D300004F1240000F0C4FD4B46424651462046C3
:101D4000FFF731FF060009D1ED1F012D03D8607E9A
:101D500040F0200060762046FFF703F93046BDE8EA
:101D6000F0873EB5044604F13C050121687800B1D6
:101D700005210420E182207504F13001684600F05D
:101D8000EAFF6068638F401E60606A4629780170D0
:101D90000321207A401C20722046FFF704FF050033
:101DA00004BF2046FFF7DDF828463EBD70B5044667
:101DB0000D460520207005F13A06F078A0706068A5
:101DC000296B416105F11C0100F0C5FF6068E98ED7
:101DD000418131784174002160680176C17305F159
:101DE0000F016068193000F035F86168A87B8873CE
:101DF0006868626801789181437841EA03219181A2
:101E00008178C01CCB0918BF0123137411F007029D
:101E100001F0070118BF012201EB41015118C9B2BD
:101E2000084410F8011B2172E060217A4A00490839
:101E300002F00E0201F03801891808446061297A25
:101E40006A685318834227BF081A101800202072AE
:101E5000207470BD0B2200F033BD00007047017884
:101E60000B29BCBF1821FFF7A3BC704719219FE4C1
:101E700038B5DFF8A8580446286828B11921FFF7BB
:101E800097FC2846FFF7E6FD2046FFF7DCFD2C60B7
:101E900031BD00002052002030B5044689B02078C2
:101EA000DFF87C58032808D0052812D0182804D061
:101EB0001E2818BF1F280CD01CE000208DF8180029
:101EC00004F12F0103A800F05EFF03218DF8141028
:101ED0000AE001218DF8181003A804F12F0100F089
:101EE00052FF03208DF8140000F02EF8E88CADF8B6
:101EF000160015E002218DF8181003A804F11C014A
:101F000000F041FF03208DF8140000F01DF804F1EB
:101F10000F01E88CADF816000DF11900FFF79AFFDC
:101F20000B208DF800000DF1190061788DF801107B
:101F300004F10F01FFF78EFF684601F04FF809B07A
:101F400030BD0000DC5100200221688DADF8020098
:101F50008DF80A107047000038B5044665782800EF
:101F600014D1DFF80817608FCA8C904218BFE8259B
:101F700004F13000FFF705FE90B1002184F83D1018
:101F8000280003D12046FFF7ECFE0546280006D0C6
:101F90006570192020702046BDE8324050E431BD04
:101FA00094F83D000028EBD0DFF8781791F8200076
:101FB0000028E5D1E825EBE710B586B004218DF8BF
:101FC000041000F1300142788DF80520428FADF801
:101FD00010200DF1060000F0BEFE0DF10600FFF727
:101FE000D0FD20B100F02DF8DFF83407048401A8FB
:101FF00000F0F4FF06B010BD10B588B00446032011
:102000008DF8040004F11C010DF1060000F0BBFE88
:10201000616808788DF80E0004F10F010DF10F00D2
:10202000FFF718FF04F11C00FFF7ABFD20B100F033
:1020300008F8DFF8EC06048401A800F0CFFF08B030
:1020400010BD4FF6FF74ADF800406946532001F013
:102050006BBA000030B5054691B06868DFF80C46F1
:102060004178480609D5E08CE98E884205D1DFF831
:102070007C150878D0B100F030F808A9039102A8C7
:102080002946FFF793FE2B208DF8080002A8FFF7E2
:10209000D7FBA07810B19DF8180028B105218DF864
:1020A000081002A800F09AFF11B030BD94F830007B
:1020B0000028E2D005F11C00FFF763FD0028DCD109
:1020C00005F10F0001210190009104F11602E38C4B
:1020D00003210620FFF71AFEE6E700B585B00920C8
:1020E0008DF80000EE218DF80110684600F076FFB3
:1020F00005B000BDF8B5054600F04CFE441EA441F5
:10210000E40F0DB101F0D2F9DFF8605501F041FBA9
:1021100005F139060027707801F0EAF83078DFF829
:10212000CC6401F0B0F8307801F09AF8E88C01F056
:10213000A2F8688D01F0A0F805F13C0001F09EF8CE
:10214000DFF8D80500EB8700C06D00B180477F1C29
:10215000072FF5DB00F0E4F9FFF7D7FA00207070E5
:10216000FEF7ABFCFFF796FC05F12901522001F0C8
:10217000DBF90CB100F00AFE0020F2BDDFF86C04C0
:102180000FF26D010162021D0FF2393141620FF24F
:102190006D3181620FF21511C1620FF205210163E9
:1021A0000FF2B9114163DFF87415CA6000F138020B
:1021B000203048610A610020088101F0DBBA00008C
:1021C000105200207047000026510020011120000D
:1021D0007C580020072202700A7A82708A7AC270C4
:1021E0004A68426000220272C969C16070470000FB
:1021F00038B50446DFF8305500206870207A06288C
:10220000A4BFE8216970607A0E2804DD217A0329D1
:1022100004D0E8206870207A032806D1DFF8FC1487
:10222000087AC1075CBFE821697021462846FFF79C
:10223000D1FF6068800A286205F12400617A01708C
:10224000E17A4170217B8170617BC170A17B01715A
:102250000A214171DFF8141491F83A2082710B229F
:10226000DFF8C804A86104F10F010420287705F104
:102270002B0000F025FB6978002904BF6078002856
:102280000BD1A87808B1EA21697001F074F8262012
:102290002070042001F063FC01E02920207020461A
:1022A000BDE83240FFF7CCBA9452002070B5DFF899
:1022B00078540446A87886B070B995F829100A2990
:1022C0000AD001F09DF8E96895F82920114401F839
:1022D0000B0C287A401C2872286A95F829104008AF
:1022E0002862491CC00785F8291002D4C9B21E29EA
:1022F000F2DBC9B21E292CD005F12901E12001F041
:1023000013F902208DF810004FF6FF73A878ADF88E
:102310000830002818BF022803D1204600F01EF81C
:1023200019E0012805F12B0207BF082080210720B2
:10233000832101920026009602AAFFF7E7FCDB2822
:1023400018BFE52804D0F3281CBFDF28E82802D1F5
:10235000687000F0B2F806B070BD000038B5DFF864
:10236000C843606804F1240101254A7905FA02F2A4
:10237000904360603022A078032804D1DFF8A033B6
:1023800093F8355002E009788D406D1C554308B92B
:1023900001F034F8294604F11000BDE8344087E12B
:1023A000F0B5DFF884530446A87802281CBF012842
:1023B00005288FB03CD1002006A9687001916846BD
:1023C0002146FFF7F3FC2E7A95F8250086421BD2B2
:1023D000EF680BE07889BDF82210884204D106A985
:1023E000384600F0A5FC78B9761E2437F0B20028F4
:1023F000F0D12E7AEB682422564306A9981900F0F2
:102400005FFA297A491C2972DFF81423907828B1E1
:102410009DF8101011B995F8250010B9684600F024
:10242000DDFD95F8250038B1297A814204D101E01B
:10243000E820687000F041F80FB0F0BD70B50446B8
:1024400004F1240082B00178DFF8DC52032904BFD4
:10245000827A032A2CD104F11C014A2001F064F88D
:1024600060680178427801EB0221ADF80010861C0B
:102470006946502001F058F83078717800EB01205F
:10248000ADF8000069464B2001F04EF8B61C31460D
:10249000E12001F049F8701C0178407801EB00213F
:1024A000ADF800105320694601F03EF8002000E02E
:1024B000E820687000F001F873BD292020702046E4
:1024C000FFF7BEB910B5DFF8604204F1100000F06C
:1024D00008F900F06DFF042001F068FBA1780329E2
:1024E00004BF6078002804D004F12A01E12001F043
:1024F0001BF82046BDE8104000F070BD00B585B067
:1025000001466846FFF766FEFC218DF8011068461B
:1025100000F064FD05B000BD01460720FFF7B8B923
:1025200083480021016041604FF47F018160C160F8
:1025300000210161704710B57D4C002020612068AA
:1025400068B14068A168884209DA01F00AFC216894
:102550004A688242B8BF02464A602068206120690A
:10256000616831B118B14A684068824202DA21617B
:1025700000E040B12069A1684068884203DABDE804
:10258000104001F016BCBDE8104001F038BCF8B5B1
:1025900000F000FC664D441EA4412869E40F10B30E
:1025A000A9684068814203DA01F09EFB2869D0B136
:1025B00001F0D7FB29694968884214D3002948BF34
:1025C00001F092FB2E69304600F08BF8377BB6683D
:1025D0000CB100F0DBFB3846B04700F0DBFB441EDB
:1025E000A441E40FE2E704B194E0F1BD845300207C
:1025F000DB0F200038B505460C460EE04C496068FC
:102600000A692818944202D1002848BF002060605F
:10261000002848BF01F068FB2468002CEED131BDD2
:10262000D90F20003D10200070B5414E00F0B2FBE4
:1026300074683168451EB068AD414042FFF7DAFF6B
:10264000B168ED0F05E060688842A4BF401A606081
:102650002468002CF7D1F06881421CBFB06001F003
:1026600067FBFFF768FF05B11EE070BD1051002049
:1026700070B504460D4600F08DFB461EB641286835
:10268000F60F294630B1626843689A42A4BF0146FA
:102690000068F7DA0C6020602868A04208BFFFF7E6
:1026A0004AFF06B100E070BDBDE8704000F06EBBAF
:1026B00038B504460D4601F054FB451965602046C7
:1026C000BDE834401A49D3E70A6801E011461A46CA
:1026D0002AB113688242F9D10B60012070470020B3
:1026E000704770B5044600F055FB114E451E31464B
:1026F0002046AD41FFF7E8FFED0F18B9311D204628
:10270000FFF7E2FF3069844208BFFFF714FF05B10D
:10271000CAE770BDBDE8F14000F038BBFC440020C2
:10272000105100207C440020CC5400204117200090
:102730007C4500205E4841F2FC72002181525D49D7
:1027400008604FF42771018000F5277048F20401FA
:10275000018041F25C518180704738B5012000F062
:1027600018F8050008BF01F0BFFA00F013FB51494B
:10277000441EA441281F0860E40F284600F06FF8AB
:102780004D48012101701CB1BDE8314000F0FEBA96
:1027900031BD2DE9F04200240025061D16F003008E
:1027A0001CBF311D0E1A00F0F5FA424FD7F800C0D9
:1027B000431E414800789B41DB0F10B1B6B2112E89
:1027C00007D26246D2F800E0CEF3C03119B100253D
:1027D00023E03A4AF6E7B6B2CDB121684FEAD139E3
:1027E0007144C1F30E0141EAC9312160C1F30E0108
:1027F000B14212DB34B32268C2F30E05AD1BADB299
:10280000082D13D3A55346F40046268011E0CEF3DD
:102810000E01B14221DA012514461168C1F30E01FF
:102820000A4411880029CDD100240BE042F4004273
:10283000226030B1A44504D12068C0F30E002118F5
:102840003960241D0BB100F0A1FA14F0030018BF89
:1028500001F04AFA2046BDE8F0821446CAE710B5F6
:1028600013498842044603D301F5C051884201D37D
:1028700001F03AFA54F8040CC0F3C03008B901F082
:1028800033FA00F087FA54F8041C0A4A21F4004194
:10289000401E44F8041C80411368C00F211F994258
:1028A00038BF116018B1BDE8104000F06FBA10BD1C
:1028B00044590020447B00202A590020E45B00207A
:1028C00003E011F8013B00F8013B13465A1E002BB0
:1028D000F7D1704711444B1E03E013F8011900F8BB
:1028E000011B11464A1E0029F7D1704710B5134647
:1028F0005A1E3BB110F8013B11F8014BA342F6D030
:10290000002010BD012010BD10B5044610460A4637
:102910000146204601F088FA204610BD014608789D
:10292000497800EB012080B27047024681B01078F0
:10293000022903D1517800EB012013E0032906D1CD
:102940005178927800EB012000EB02400AE0042964
:1029500008D15178937800EB0120D17800EB034047
:1029600000EB016001B0704701F0CABA10B5040075
:1029700001D1002010BD04F1080080B2FFF709FF6B
:1029800028B1002101608480FF218171083010BDD1
:1029900080B508B9052002BD10F8021CFF2901D03E
:1029A000042002BD0838FFF75AFF002002BD0022B4
:1029B000FFE738B50446A1B1DFF860331D78A842BF
:1029C00004D30846FFF7E4FF032032BDA1F108035A
:1029D0001868002804BF9D79FF2D04D00846FFF732
:1029E000D7FF052032BD012A9C71DFF8340302D1E4
:1029F00000F087F801E000F051F84FF40041204664
:102A000000F0CFF8002032BD2DE9F041804600F003
:102A1000C1F900260024DFF80853471EBF4128688B
:102A2000FF0F58B110F8021C414502D01CB90646F0
:102A300001E0A4B9044650F8080CF2E74FF4004155
:102A4000404600F0C5F824B132462146284600F041
:102A500069F80FB100F09AF92046BDE8F0814FF413
:102A60000041404600F09DF8EEE770B505460E4681
:102A700000F090F9AA490C68401E8041C00F44B193
:102A800014F8021CA94206BF2178B14254F8084C40
:102A9000F5D108B100F07AF9204670BD38B500F0E4
:102AA00014F8421E9241002045F8080CD20F21680C
:102AB00011B9256006E0014651F8080C0028FAD14A
:102AC00041F8085C02B129E031BD04460D4600F032
:102AD00061B938B5044600F05DF90025411E894111
:102AE0002068C90F40B10546A5F1080002682260C0
:102AF00000220260FF22827109B100F047F92846E6
:102B000032BD38B5FFF7E1FF401E216845F8081CCB
:102B10008041C00F256000D000E031BDBDE83140EC
:102B200000F034B970B582B004460D46164600F088
:102B300031F9401EA5F10801804123680A68C00FE1
:102B40009D420CBF226046F8082C00220A60FF223A
:102B50008A7118B1BDE8734000F018B973BDF8B5BB
:102B600006460D46174600F015F90024431E9B410A
:102B70003168DB0F09B935600DE07A1E03E0D1B290
:102B800051B10146521E51F8080C0028F7D1D2B2BB
:102B900012B141F8085C01240BB100F0F7F82046AF
:102BA000F2BD38B500F02CF810D200F0F3F85D4912
:102BB000096831F81420401E8041154321F8145053
:102BC000C00F08B100F0E2F8002032BD032032BD92
:102BD00038B500F015F811D200F0DCF85149096859
:102BE00031F81420401E22EA0505804121F81450D6
:102BF000C00F18BF00F0CAF8002032BD032032BD5C
:102C00000D4646490A7890420446704780B5FF2831
:102C100003D100F0BBF8002002BD072002BD80B543
:102C2000FF2803D100F0B6F8002002BD072002BD46
:102C300080B5FFF77FFD3A490020086001F062F996
:102C400001F056FA01F05EFAFFF787FD002002BDA1
:102C500080B500F001F8FCE72DE9F04101F0B6FA8B
:102C60002E48304D017800242A68E4B232F814006E
:102C700018B9641CE0B28842F6D3E0B288422AD286
:102C8000E4B200F087F82968264631F81680401E25
:102C90008041002221F81620C00F08B100F076F81C
:102CA000214F224A3C70414652F826202046904748
:102CB0000446FF20387000F06DF8296831F81620BE
:102CC000401E8041144321F81640C00F18B1BDE8E2
:102CD000F04100F05BB8BDE8F08101700A0A427073
:102CE0000A0C090E8270C170001D704701700A0A3B
:102CF000090C42708170C01C704710B548B10023A8
:102D000000E05B1CDCB2944205D2DBB2C45C8C42B6
:102D1000F7D0002010BD012010BD0000CC322200F1
:102D2000785800207C580020C645002098322200A8
:102D3000027A0B7A9A420CD15AB1022A05D1008844
:102D40000988884205D101207047032A08BF00F096
:102D50000CB8002070470A7A0272032A04BF0822C6
:102D6000FFF7AEBD09880180704710B5082210F842
:102D7000013B11F8014BA34203D1521EF7D10120B0
:102D800010BD002010BD0822FFF79ABD80B501F0EC
:102D900023FA02E080B501F01BFA00B10120C0B2B5
:102DA00002BDF0B54F4C504A256895420AD02568BF
:102DB000002605EB86073F6842F82670761C402EF9
:102DC000F7D3226042F82010F0BD10B50FF22C129C
:102DD000830852F823201368C00000F01800FF2475
:102DE0008440A34381401943116010BD04283F492A
:102DF00003D1086840F480300BE0052804D10A684C
:102E000042F400320A607047062804D1086840F492
:102E10008020086070470F2805D13548016841F0CF
:102E20000201016070470CD90FF27413A0F1100178
:102E30001038400953F82000012201F01F018A4098
:102E4000026070470428294903D1086820F48030C3
:102E50000BE0052804D10A6822F400320A607047AA
:102E6000062804D1086820F48020086070470F28E5
:102E700005D11F48016821F00201016070470CD99B
:102E80000FF23013A0F110011038400953F8200060
:102E9000012201F01F018A40026070470E28154987
:102EA00004D1086840F00060086070470F2804D122
:102EB0000A6842F000720A6070470CD90FF20813DA
:102EC000A0F110021038400953F82000012102F04F
:102ED0001F029140016070470748016841F00101FD
:102EE0000160704708ED00E00040002024ED00E0A4
:102EF00010E000E004ED00E098200D40000000002C
:102F000018ED00E01CED00E020ED00E000E400E042
:102F100004E400E008E400E00CE400E010E400E079
:102F200014E400E018E400E01CE400E020E400E029
:102F300024E400E028E400E02CE400E030E400E0D9
:102F400034E400E038E400E03CE400E040E400E089
:102F500044E400E048E400E04CE400E050E400E039
:102F600054E400E058E400E05CE400E060E400E0E9
:102F700064E400E068E400E06CE400E070E400E099
:102F800074E400E078E400E07CE400E080E400E049
:102F900084E400E088E400E08CE400E090E400E0F9
:102FA00000E100E004E100E008E100E00CE100E005
:102FB00010E100E080E100E084E100E088E100E071
:102FC0008CE100E090E100E080E200E084E200E0DB
:102FD00088E200E08CE200E090E200E02DE9F143BD
:102FE00082B006780FF24420855DADF80050002DC8
:102FF0004DD00D2E4FF6FF7911D16946532000F0C8
:1030000074FABDF800004FF6FE7188421FBF4845B4
:103010000299087A002800F0B1800C4673E0052E72
:103020004FF0240804D102990A7C243250190DE093
:10303000072E0DD10299887820B905F11B01ADF852
:10304000001005E00A7A284608FB0200ADF80000EF
:10305000BDF80000FFF78AFC04001CD10C2E16D12D
:1030600002994868002812D0FFF794FE471E029884
:10307000BF41001DFEF7EEFCBDF80000FFF776FC37
:10308000FF0F040004D1002F01D0FFF77FFE99E06D
:103090000FB1FFF77BFE02992A462046FFF710FC8E
:1030A000052E12D16168242204F11800FFF708FCF4
:1030B00004F118006060227C61692430FFF700FC95
:1030C000606800F1240161611DE0072E1BD15148A9
:1030D0000568C5B100210160A07830B904F1100184
:1030E000E1601B22E068294608E004F11000E0607E
:1030F0002946207A08FB00F204F11000FFF7E0FBFC
:103100002846FFF7ACFB4448016819B120468847C0
:1031100000284DD10D2E414834D1029949680A78D2
:103120004978C2F3830302F00302022A0ADA3C4A16
:10313000957CAB4201BF11F0C00F029991F8242099
:10314000022A09D0032B19D1029A012111700078AB
:103150000299FFF72CFC35E094F83B0004F13A01AA
:1031600000F03FF80298C18C49451CD1416888792C
:10317000022818DB204601F03CFA18B302A8FEF73B
:1031800069FC1FE00C2E1FD1029841781A291CBF40
:103190006068002807D0807DC10704D5207C04F139
:1031A0000F0100F01EF81F4800782146FFF7FFFBD3
:1031B0000C2E18BF112E05D10299486810B1081DB8
:1031C000FEF748FCBDE8F783112EECD100212170F9
:1031D00021460078FFF7EBFBEEE701F08FB9002006
:1031E0007047114A1278A2B10B783228B8BF32204A
:1031F00002DB6F28A8BF6E20012A05D13238584360
:103200003C2290FBF2F39BB2B3F5807FA8BFFF2373
:103210000B70704728580020C85800208C5600209A
:1032200098500020345800203B5900200016100010
:1032300000181510020002241440000010140000B1
:1032400061480B218170FF214170C170017070478E
:1032500080B500F0ADF8BDE80140D1E001F0E2BA80
:103260005A490A68030018BF012322F0020242EA09
:1032700043020A607047A0E055499FE001460822DA
:10328000544801F06DBC544970B50A78044640B208
:1032900053B2834282B0B8BF144604DB49784AB2C5
:1032A0009042B8BF0C46484DFFF774FDFF2600283A
:1032B000EE7008BFFFF76AFD00F002F8204676BD09
:1032C00038B5FFF767FD404AD378411E8941107831
:1032D000C90F834209D0414C207830B9404D2C7839
:1032E000200602D43F481370036001B117E031BDDE
:1032F00038B50446A4F10B00122828BF00F0F4FCF6
:10330000FFF748FD3049364A8C70451EAD411078B4
:10331000ED0F08B900F007F805B100E031BDBDE8D8
:103320003140FFF733BD10B52D49087808B100F0E2
:10333000DBFCFFF72FFD244CA1786278401E804112
:10334000C00F914211D0617008B1FFF71FFD00F06E
:1033500099FC6078244900EB80002C38086001F06B
:1033600064FCBDE8104000F04EBC18B1BDE8104050
:10337000FFF70CBD10BD38B51C490446087808B1EC
:1033800000F0B2FC1A4D287808B100F0ADFC200026
:103390000CBF0120032C09D0012C1CBF022C00F013
:1033A000A3FC1449FF220A6002204A60287031BD44
:1033B0000F49002008701049C88C0E4900F0FF0228
:1033C0000A60000A486070476C5800200086084078
:1033D000D0850840A8850840D03222004A560020F7
:1033E0005C560020408608403C860840C2450020CC
:1033F00049560020C88508401051002001F05FBBED
:1034000080B501F066FBBDE80240493840B210F1DA
:10341000570FB8BF6FF0560002DB0B28A8BF0A2079
:103420005730C0EB0020612190FBF1F0C0B2704733
:10343000EDE7F0B40246106895681318506803EB86
:103440005004C00721D54D441FE0F0BC02F10C0030
:10345000704713F8017B05F8017B491EF9D1A0B133
:10346000B60813F8011B06F00306032E08BF13F875
:10347000016B01EB06214942801C294405D011F85B
:10348000016B05F8016B401EF9D1A342DDD013F8A2
:10349000016B16F0030104BF13F8011BC91C3009AE
:1034A0000F28DAD113F8010B0F30D6E710B5674CAF
:1034B0000FF2A01120466C2201F0FEFE1434FFF73B
:1034C000CDFEA073FFF7CAFE207010BDA0F1400230
:1034D0001E2A38BF403804D3A0F1E0010F2902D2E0
:1034E0003E30C0B270472D20704770B50D46FFF7D3
:1034F000EDFF06462D2E01D1F42070BDFFF74AFCEA
:10350000524B441E0FF2B81000EB860110F8260053
:103510004A78A44119182846FFF7D2F9E40F0CB1F4
:10352000FFF734FC002070BD2DE9F0410746F12F74
:1035300082B00D46DFF8148111D1297801290AD112
:10354000022000F033FB3846FFF7C0FF2D2801466C
:1035500012D1F42076E0022000F001FBF3E7F02F17
:1035600005D128783A490870FFF77AFEEBE7452F36
:10357000E9D1C8F8085064E00FF2441000EB81066E
:10358000B178002904BFF078002814D0F278914275
:1035900008BFFB2056D0582F05D128888F3846F217
:1035A0002241884205D22878B178884228BF8242D9
:1035B00001D2E82046E0FFF7EDFB7278441E307838
:1035C00029464044A441FFF77BF9E40F0CB1FFF713
:1035D000DDFB502F08F12A0010D0522F17D0532FA7
:1035E00011D0E02F27D0E12F1CD0E22F1ED0E52FE5
:1035F00025D0E62F04BF2978C17722E0B8F826004D
:10360000FFF739FE1DE00088FFF736FE19E098F855
:10361000290018B1022000F0A2FA12E0022000F006
:10362000C5FA0EE0007CFFF763FE0AE008F13C00FB
:10363000FFF724FE05E0C07BFFF725FE01E02978B7
:1036400081770020BDE8F6810000000010510020C5
:103650008453002036000100060000000000000036
:10366000000F00000000000000000000000000004B
:1036700000000300FFFF00000403FFFF0000FFFF46
:103680000F00F4010005C4040320000100000B003A
:1036900000000000000000000300010F0000000017
:1036A000000000000000000000000000000000001A
:1036B000000000000000000000000000000000000A
:1036C0000001363601010001020100010301000181
:1036D00004010606080400000C0100340D01000F6F
:1036E00010040101140100FF160800002002000070
:1036F000220100FF23010001240100FE2501000832
:103700002602000028010001290100012A02000010
:103710002C01000F2E0200003001000131010008D1
:10372000320200FF3401000735010240360100007B
:103730003701000138010001390100FF3A010B1D7A
:103740003C080000460100084701000F4801000145
:10375000490100FF4C040000500400005404000024
:10376000580400005C0400006004000064040000D1
:103770006804000080B500F0B5FFFFF761FD00F0C0
:10378000E9F901F023FA00F035F8BDE8014000F056
:10379000ADBA80B5FFF7FEFA18B9FFF7F7FA00F0F7
:1037A000A3FA0849087818B901F035FAFFF750FD77
:1037B00000F0B4FA01F0C4FD0349012081F848008B
:1037C00001BD0000C24500201051002010B5044684
:1037D000A4F1E700082882B00AD269462046FFF724
:1037E00084FE0098401C009069462046FFF79CFE2E
:1037F00013BD1900DFF8340300210170C1710FF20D
:10380000A9210161704738B5DFF8204305462078CB
:1038100008B100F069FA01212170C549087818B192
:10382000BDE832401D205AE1657028460228C14D8E
:1038300002D101F04EFE19E000281CBF012800F063
:1038400053FA002020712968BB488A7D51066178AF
:103850004CBF90F8462090F8252021B9C07810B1CF
:10386000022AC8BF0222A27000F03BF8E179B1B988
:10387000286808B900F038FA2868B04B4268117817
:1038800001F02001A17191786171017A501E8A1CAA
:103890000270491CEE221A60C9B201F075F9FFF7F7
:1038A00079FAA7490A78451EA6480078AD41ED0F80
:1038B000024307D1832020700DB1FFF767FABDE8FE
:1038C000314023E0202804D10E2104F10800FEF746
:1038D000EFFE022020701DB1BDE83140FFF756BA5F
:1038E00031BD80B5FFF7BAFC904B93F9022001215E
:1038F0009140491E0840D870587818B9BDE8014079
:1039000001F099BDBDE8014001F086BD8E488D4AA9
:103910000168490849000160002010708349487817
:10392000022808BF01F0DBBD10B5804C607840B9BB
:10393000FDF7C0F9E178814203D3BDE810401C20B7
:10394000CDE0BDE8104001F099BD10B5774C0120E5
:10395000E071ED20FFF73AFF6078BDE8104052E7D4
:1039600080B57749774B0A781878024318BF00F082
:10397000BBF9FFF70FFA6D490A78401E8041C00F6E
:10398000022A07D183230B7008B1FFF7FFF9BDE8C6
:103990000140BBE718B1BDE80140FFF7F7B901BD31
:1039A00010B5624C607800281CBF012800F09CF91B
:1039B0000420207000F039F920796449401C2071FE
:1039C000C0B20A78824203D2BDE81040E12086E00E
:1039D000487BA1784A1C8242B8BF481CA070FFF700
:1039E00080FF83202070BDE810409DE710B5FFF7F1
:1039F000D1F94E490A78441EA441E40F832A0ED11E
:103A0000887940B985220A700CB1FFF7BFF9BDE88B
:103A10001040002063E08620087001F0B8FD04B17A
:103A20003DE010BDF8B504460D46FFF7B3F93F4F32
:103A3000461EB6413878F60F862812D18721397094
:103A400001F014FE0EB1FFF7A1F97879844204D198
:103A5000002D0CBF00201B2000E0E920BDE8F24053
:103A60003DE01EB1BDE8F140FFF790B9F1BD10B5E2
:103A7000FFF790F9441E2D480178A441E40F8629F0
:103A80000AD18722027001F0F1FD0CB1FFF77EF937
:103A9000BDE81040E92022E004B100E010BDBDE81F
:103AA0001040FFF773B90000264810B501781F4C8D
:103AB00020290ED124490A68520852000A600021C8
:103AC00001702178022901BF1D4A10780028FFF7F4
:103AD00047FF04F10800BDE81040FEF702BE10B534
:103AE0000446124800211B2CC171017004D01848F3
:103AF000017801F0FE01017000F097F8FFF7E0FB9C
:103B0000FFF711FC2046BDE81040FDF737B910B5AE
:103B1000084C206808B900F0E7F800F036F9216891
:103B2000C86000F098FE2268108210BD5C5600202C
:103B3000C2450020F8440020105100203888084079
:103B4000485600204A5600209086084034510020F4
:103B5000095900205E48002141700170704738B556
:103B6000050008BF00F0C0F8FFF714F9441E5848DC
:103B70004178A4410D43457000F070F8E40F1CB18A
:103B8000BDE83140FFF702B931BD10B5040008BFF0
:103B900000F0AAF8FFF7FEF84D494A78401E804130
:103BA0001443C00F4C7000B13BE010BD10B50400D1
:103BB00008BF00F099F8FFF7EDF845494A78401E34
:103BC00084F0FF0480411440C00F4C7008B1FFF72F
:103BD000DDF8BDE8104028E080B5FFF7DBF83C4990
:103BE000401E804100224A700A70EF2239490A6063
:103BF000ED220A60C00F0A6008B1FFF7C7F8BDE800
:103C0000014001F012B810B5FFF7C4F83049441E66
:103C1000A4414878E40F08B100F020F804B100E0B6
:103C200010BDBDE81040FFF7B1B810B5FFF7B2F80E
:103C30002749441EA4414878E40F60B926490A7810
:103C4000100608D42549087828B9254A11780806AD
:103C500058BF00F017F804B1E3E710BD80B5FFF7D7
:103C600099F81B4A411E89411078C90F20B90123D8
:103C70001370E3221748026019B1BDE80140FFF755
:103C800085B801BD70B5FFF785F81149451EAD41F6
:103C90000878ED0FA8B10022124E0A70EF20706074
:103CA000ED2070607060FFF775F8441EA4412A2073
:103CB000FFF7F4F86FF00400E40F30600CB1FFF789
:103CC00065F81DB1BDE87040FFF760B870BD000039
:103CD0000859002038880840485600204A560020DD
:103CE0005C560020348808407047000080B50020F2
:103CF00000F0F1FD4FF47F0000F01AF847486FF034
:103D0000080141606FF01002016841F00801016094
:103D10004260016841F01001016001BD3F48016847
:103D200021F010010160026822F008020260DDE764
:103D300038B5054600F0A2FDA84228BFFFF7D4FF22
:103D4000FFF728F8441E364805602846A44100F0D5
:103D500002FEE40F04B100E031BDBDE83140FFF7E1
:103D600015B838B5FFF716F8441EA44100F086FDDB
:103D7000E40F05460CB1FFF709F8294801688D42A8
:103D800001D3002032BD284632BD38B5FFF702F816
:103D9000441EA44100F084FDE40F05460CB1FEF77B
:103DA000F5FF1F4801688D4201D3002032BD28462F
:103DB00032BD70B51A4D04462868844228BFFFF70B
:103DC00093FFFEF7E7FF6C60461E2046B64100F009
:103DD000A2FD00F053FDF60F84420AD111496FF0A5
:103DE000100008600EB1FEF7D1FFBDE87040FEF78D
:103DF000CEBB1EB1BDE87040FEF7C8BF70BD7047B6
:103E0000FEF7C5BB80B500F06DFEBDE80140FEF7D2
:103E10000BBC034800687047000000000888084099
:103E2000C45700200C88084062F30F2262F31F423F
:103E3000401810F0030308D0C91A1FD3DB0748BF8E
:103E400000F8012D28BF20F8022D130030B41446CD
:103E50001546103928BF20E93C00FAD8490728BF89
:103E600020E90C0048BF40F8042D890028BF20F845
:103E7000022D48BF00F8012D30BC7047C91818BF8B
:103E800000F8012DCB0728BF00F8012D7047000076
:103E900080B528B9FF20FEF7C2FE0021002004E013
:103EA0001549002008700FF24D01BDE8044001F0F3
:103EB00025BC12490A78FF2A02D1087001207047F8
:103EC0000020704770B50D4E0D463178FF2904462D
:103ED0000DD00420FEF74AFD38B1C0210170857075
:103EE000C47001463078FEF762FD002070BD0120ED
:103EF00070BD00000021E5E729590020C5450020DC
:103F000000F09BBC794900204860704770B50446BA
:103F10000D46164600F018F808B1466070BD102036
:103F2000FEF737FC78B1847205814660002101609C
:103F3000C1606E490A6812B9086070BD0A4611680E
:103F40000029FBD1106070BD02466848006828B1A6
:103F500003898B4204BF837A9342F7D17047F8B547
:103F600004460E461746FEF715FF3A463146451EF3
:103F70002046AD41FFF7CAFFED0F04460DB1FEF735
:103F800005FF0CB10020F2BD0820F2BDF8B50446D3
:103F90000D461646FEF7FEFE471E324629462046CF
:103FA000BF41FFF7B3FFFF0F040018BFE6600FB17A
:103FB000FEF7ECFE0CB10020F2BD0820F2BD70B59A
:103FC00004460D46FEF7E6FE461E29462046B6414B
:103FD000FFF7BAFFF60F04001CBF002020810EB1CE
:103FE000FEF7D4FE0CB1002070BD062070BDF8B500
:103FF00004460D46FEF7CEFE0026471E2946204603
:10400000BF41FFF7A1FFFF0F00B146680FB1FEF7F8
:10401000BDFE3046F2BD2DE9F04182B00446334F7B
:10402000FEF7B8FE7968401E80416118C00F7960C4
:1040300008B1FEF7ABFE3E68002E52D04FF00008EC
:104040000094FEF7A7FE0024451EAD41BDF8020016
:10405000ED0F002804BF9DF80100002807D130793A
:104060009DF80020904202D3801A307106E07068FB
:10407000009981423ABF401A70607460B08860B99C
:10408000F18861B9F06800281CBF318900290AD085
:10409000B07AFEF786FDF0687060B08808B9F188E4
:1040A00009B1308940B93068B8F1000F0CBF3860F1
:1040B000C8F80000344600E0B04636680DB1FEF79F
:1040C00065FE64B1A188002904BFE088002803D1FF
:1040D0002189A07AFEF765FD2046FEF7C0FB002E81
:1040E000AFD1BDE8F381014840687047F457002024
:1040F0000348002181710180704701498871704730
:10410000EC57002080B51A20FEF743FB17490860E2
:104110001A220021FEF7F8FB0020FDF711FC012018
:1041200001F0F0FA022003F08BFA032000F020F8EF
:10413000042003F0D3FB052003F08EFC062004F0DE
:1041400083F8072004F06CFB082005F04BFC0920E5
:1041500005F048FE0A2007F03FF80B2007F0B2FEFA
:10416000BDE802400C2008F007B800007C58002091
:1041700015490870704780B508F0A2F808F0C2F839
:1041800008F0CAF8BDE8014008F02ABB38B50C4673
:1041900020040BD50C4D01E0FEF7FAFB2878FEF762
:1041A00033FC0028F8D184F4004032BDA00604D5C9
:1041B00008F039F984F0200032BDE00602D584F021
:1041C000100032BD002032BD2359002008F00FBB83
:1041D000EFF3108072B67047EFF3108062B670474D
:1041E00040BF7047DFF8D01400200860704780B5EA
:1041F00002F0C8FD60B90022012100F03DF900285D
:104200001CBF0168002903D0BDE8024001F05FBC7B
:1042100001BD80B5042000F020F9DFF8A0140A7871
:10422000824207D3FF2000F018F9DFF894140A78CF
:10423000824201D2012002BD002002BD2DE9F041E1
:1042400007468846387B00F029F9002504460126F8
:1042500024BB7A89397B386800F0B9F8040062D051
:1042600025810125387C2074788A608207F110004E
:1042700009F03CFA6061388B61892083B87EA076B2
:104280004FF67F400140618148074FBF41F08001F8
:10429000DFF83004027841EAC21161816289D009F5
:1042A000B8F1000F00F0070012D0022161732168FD
:1042B0008B7B590703D5DFF810140B8A238120B3B9
:1042C0004FF67F410A40401E42EAC01262811CE064
:1042D00008B9002619E0900605D5FEF745FB00F069
:1042E0007F005F3008E0D00605D5FEF73DFB00F00B
:1042F0000F000A3000E0012020812021042060739B
:10430000DFF8C8030078FEF74CFC6DB12289617BB1
:10431000204600F06FF838B1606908B1FEF79FFAE7
:104320002046FEF79CFA00263046BDE8F0813EB5F7
:1043300000F0B4F80024002833D0417B062930D1A6
:10434000016844890A7A8DF8082001680A88ADF866
:10435000002000F0E7F8200522D5BDF8001000206D
:1043600000F021F8E0B9DFF86053A98C68460AF044
:1043700030FD002100200CE0206801884FF6FF721C
:1043800091420DD0A98C0AF022FD1A2808D00021F4
:10439000204600F008F80400EED100200AF01BFDD2
:1043A000012420463EBD58B1406868B142891305DA
:1043B000FAD50A001EBF026813888B4204D0F3E7C7
:1043C000DFF8F4020068F0E770470120704770B52D
:1043D00004460D4616461C20FEF7DBF948B10021C5
:1043E00041730573468101818173C173046041612A
:1043F000416070BD70B504000D4616462BD0012DEE
:10440000284606D100F029F8B1490A7882420CD238
:1044100007E0042D07D100F020F8A8490A7882426D
:1044200003D2112070BD022D15D10020606065738C
:104430002681A148016831B100E0014648680028A2
:10444000FBD14C6000E00460A04800782021FEF71A
:10445000A8FB002070BDC12070BD974909680246C5
:10446000002005E04B7B4968934214BFFF2A401CA3
:104470000029F7D1C0B2704710B558B1406860B19B
:10448000437B8B42FAD1130007D003689C7B630700
:1044900003D5F3E788480068F1E710BD0146864878
:1044A000006800E0406800281CBF027B8A42F9D106
:1044B000704701468048006800E0406850B10268DB
:1044C00013888B42F9D1126A1378527803EB0223D6
:1044D000DB05F2D47047F8B50546002728000E46E4
:1044E0000AD07548046800E064682CB13146204663
:1044F000A8470128F8D127463846F2BD002070476A
:1045000010B56D4A13681946002401E00C4649684D
:1045100039B18142FAD14868994201D1106010BD89
:10452000606010BD10B5040011D0FFF7E9FF2068EE
:10453000006AFEF794F92068FEF791F9606908B106
:10454000FEF78DF92046BDE81040FEF788B910BD92
:1045500070B50168584B0A8819680023002409E0E7
:104560004D7B052D01BF641C0E6835889542496856
:1045700008BF5B1C0029F3D1564A53491578DBB2BA
:10458000AB423FBF544B1D78E4B2AC422CBF01227A
:104590000A8A02814FF6FF7305224273428942F470
:1045A00000624281006802889A4204D0898C0AF035
:1045B0000EFC1A2804D1BDE8704001200AF00BBCA3
:1045C00070BD70B53C4D2C68002C0EE0216866680B
:1045D000086AFEF744F92068FEF741F96069FEF7C2
:1045E0003EF92046FEF73BF93400EFD10020286069
:1045F00070BD10B501000AD0A1F1080210680028B2
:1046000004BF9379FF2B04D00846FEF7C1F90520BB
:1046100010BD2E4C20789071304802783048FEF75B
:104620009EFA012806D120784FF40051FEF7B9FA1E
:10463000002010BD042010BD70B5FEF7ABFB284E66
:104640003468451EAD41ED0F8CB1204854F8081C6C
:10465000007800294FF4005102D0FEF7A2FA01E0E1
:10466000FEF7B6FA002221463046FEF75BFA0DB19E
:10467000FEF78CFB204670BD70B505460E480468F9
:10468000002614E021680A88AA420FD10020208168
:10469000A07A410744BF207B0BF038FD06216173EF
:1046A000F0212068407B01F068FA761C6468002CD9
:1046B000E8D1F0B270BD0000F85800208A30220026
:1046C0008B302200CC450020985000203458002028
:1046D000893022008D3022008E3022009930220055
:1046E000FC580020F0B5DFF8300489B014210160D7
:1046F0003F2181605521C160FC21DFF82044DFF8B3
:104700002054DFF82074DFF80C6461638521E167D1
:1047100001214161152141620021A9671021016336
:104720000E214163032181630920786504210B2058
:104730000860FF2139602A208021FEF746FB802196
:104740002B20FEF742FB2A20FEF750FB2B20FEF722
:104750004DFB80213120FEF738FBDFF8CC030168E8
:10476000090C3160FEF716FB401E80410221F967FB
:104770000022DFF8B8130A602822C00F4A6008B18F
:10478000FEF704FBDFF8A80301680A03FAD5386FC7
:1047900040F003003867386F4107FCD5386F40F0B0
:1047A0000A0038673120FEF721FB48202060FFF720
:1047B00055FA206CC107FCD500211020A26F5308C8
:1047C0004941401E89B2F9D1002914BFB1F5607F7B
:1047D0004BF6BE21DFF85C0301F0FF020260091214
:1047E0000160716869B1002200230820A66F770874
:1047F0005B41401EFAD168468354521C202AF3DBE9
:104800008847FFF73FFA402020600021206840F0F1
:104810002000206029606960A960E9602961696100
:1048200009B0F0BDDFF81003016821F00C0141F080
:10483000040101608069C0B27047DFF8FC020168C2
:1048400021F00C0141F0040101608169406900EB35
:10485000012080B2704710B5FEF79CFADFF8DC1239
:10486000401E804101220A60C00F8A684C6844EAF9
:10487000022408B1FEF78AFAA0B210BD80B5FEF797
:1048800089FA00F005F84A684B698DF8003014E0A9
:10489000DFF8A812401E804100220A60C00F704756
:1048A00080B5FEF777FADFF89412401E804110229F
:1048B0000A60C00F4A698DF800200A698DF801204E
:1048C0000022C9688DF802108DF8032008B1FEF7A8
:1048D0005DFA009802BD01B5000E18BFFFF704FA9B
:1048E000FFF7CCFF964AD16840180099401AD06073
:1048F000FEF750FAFFF7CCFF9DF800204A619DF8C3
:1049000001200A619DF80220CA6018B1BDE801408B
:10491000FEF73CBA01BD11B5002481B0000E18BFEE
:10492000FFF7E2F9FEF736FA00F036F8D30604D5C1
:104930000A6822F0100201240A60302300F032F8E5
:104940006FF010024A601CB10A6842F010020A605F
:1049500000B132E013BD11B5002481B0000E18BFC4
:10496000FFF7C2F9FEF716FA00F016F8130704D5A0
:104970000A6822F0080201240A60202300F012F8DD
:104980004A6822F008024A601CB10A6842F0080234
:104990000A6000B111E013BD6A490A68401E8041F7
:1049A000C00F70478B609DF80420CA619DF80520F8
:1049B0008A619DF806204A617047BDE81340FEF702
:1049C000E5B938B55F4C256860680540E80604D550
:1049D000FFF716FA6FF010006060280704D5FFF7A4
:1049E00011FA6FF008000DE0E8070CD5564857495A
:1049F000006891F9002043B29A42B8BF1A460A7083
:104A00006FF00100606031BD70B5514C514D666C66
:104A10002A20FEF743FA29683140080705D56FF0D0
:104A20000800286000F02DFE13E028683040C00622
:104A300005D56FF01000286000F02AFE09E0286814
:104A40000640F00705D5606C40084000606400F047
:104A50009FFB206C69680840400707D500F025F9E6
:104A60006FF00400686020684106F7D470BD10B58F
:104A700039490C682B20FEF711FA384801682140AB
:104A8000490603D56FF04001016010BD0168214067
:104A9000C90708D56FF001010160FFF79DF8BDE877
:104AA0001040FFF7DBB801680C40610706D56FF0D6
:104AB00004010160BDE8104000F0B3BB10BD234904
:104AC0006FF07F0008701F48016841F0010101602C
:104AD00070471C4801684908490001601B4890F96B
:104AE0000000704738B5FEF755F9154D441EA44136
:104AF0002878E40F28B9FFF78CF9E9684018E860D6
:104B000001E0002028701CB1BDE83140FEF73EB93D
:104B100031BD0000CC570020A48608402486084000
:104B20009085084094870840F80F280014880840B2
:104B300004200D4014700D4000700D401088084096
:104B4000E05600200888084060860840265900206A
:104B50004C86084030880840948608402C880840DD
:104B600004E011F8013B40F8043B521ED3B2002B85
:104B7000F7D1704704E050F8043B01F8013B521EA6
:104B8000D3B2002BF7D1704738B504460D0008BFEB
:104B9000FFF7AAF814F8010B0B4908606D1EE8B284
:104BA0000028F7D131BD38B504460D0008BFFFF726
:104BB0009BF80548016804F8011B6D1EE8B2002847
:104BC000F7D131BD0000000028880840DFF88806D2
:104BD0000021C172416181800FF2F5010161002164
:104BE000817181818173704738B5DFF87056052077
:104BF0002860FEF7CFF800F053F8DFF864166FF086
:104C00000400E40F08600CB1FEF7C0F8E86B40F058
:104C10000400E86331BD80B5FEF7DEFFDFF838162B
:104C200000204871BDE8024000E310B5DFF82846D7
:104C300001206073207B18B900F003F80021617334
:104C400010BD38B5DFF81406DFF81456016C4908BA
:104C50004900016405220260ED2068606860FEF78B
:104C600099F800F01DF86FF00400E40F28600CB113
:104C7000FEF78CF8DFF8E045606918B104F1140024
:104C8000FBF7B2FF0FF2490021792061A0790143BF
:104C900005D000212171A171BDE8314085E231BD0F
:104CA000441EA4412A20FEF7F9B810B5DFF8A84544
:104CB000607B58B90121217320698047002020734F
:104CC000607B18B1FFF7BDFF0021617310BD0000CC
:104CD0002DE9F84FDFF880753879002508B1FFF726
:104CE00003F881213971DFF87C15087838B1DFF8D5
:104CF0007845606A010606D4606A410603D43D71B6
:104D000000F053FA54E100F029FCA06EDFF85C9546
:104D100040084000A066BD7104217879B872384619
:104D2000FFF741FF387800F07F00C01EF871C0B275
:104D30007D28BEBF787800F0070104296BDA00F007
:104D40000700022804BFF87A0028DFF824653AD16A
:104D500000F07CF9FEF71EF83178B0F1010868EB3D
:104D6000080886294FEAD87429D1DFF80855286841
:104D700008B9FEF7B9FF9DF90000A0F149069DF8BA
:104D8000010000F07F09494670B2FEF751FB296827
:104D90004877286880F81E902968CE770CB1FDF717
:104DA000F5FF9DF80100010606D57978F87801F045
:104DB0001001FEF737FE33E0FEF759FE30E07CB31A
:104DC000FDF7E4FF2CE03078862808BFFEF74FFEA1
:104DD0007A78B97A71B1F87A60B9012935D00229A7
:104DE00002D112F0070F30D1032903D102F00700DE
:104DF00003282AD1B978DFF88034C1F381008DF817
:104E000000004FEA91180146186860B9B8F1010F27
:104E100018BF012907D1ED20C9F80800C9F808001A
:104E200000F0A2F9C4E00FF26C40465C10F80800F4
:104E30008619B8F1000FF6B203D0500644BFB61E73
:104E4000F6B2F879B11C884202DA00F0B7F9AFE0A7
:104E5000801B801E7872110748BF2525C0B24519F6
:104E60004C35A8B2FBF7B1FE786118B9E820C9F853
:104E70000800EAE7F87A4FF0000A18B9797801F0EB
:104E80002001B971B879A8B3FDF784FFB0F1010B27
:104E9000787800F007006BEB0B0B03284FEADB7B05
:104EA0000CD1FBF77FFE002872D1DFF8D013087811
:104EB000002869D00BF004FDFE2869D0206820F09E
:104EC00004002060FDF766FF451EAD412A20FDF776
:104ED000E5FF6FF00100ED0FC9F800000DB1FDF71F
:104EE00055FFA06E40F00100A066BBF1000F18BF97
:104EF000FDF74CFF786900F14C0141600164797A5B
:104F000001727869017A80F844107878010711D528
:104F10007869032180F84410796901F14000791C17
:104F200002790068FDF7CCFC786950F8401F0279DF
:104F300011440160786980F8248078699DF8001038
:104F400080F82E10FFF7ACFC79690863FFF783FC4B
:104F500079698886787800F0070008737969F878AD
:104F600081F83D007978B878C0F3011001F078013C
:104F700008434AEA0001786981737EB90FF2F901AA
:104F8000396100F066F813E0FBF700FE002895D0C9
:104F900020684FF0040A40F0040092E73E727978EE
:104FA000387A0A0758BF401EA0620FF20900386124
:104FB000BDE8F18F30B5A84C207A85B008B9FEF76E
:104FC00093FE00F042F8A0786946C0F38100C8B1B2
:104FD00062699DF800304D7803EB052313870328A1
:104FE000138FD38608D10DF1020102F12600FDF7DF
:104FF000CAFE0DF10A0105E08878C97800EB0120AE
:10500000D08401A9A078800915D06269937B5D06E0
:1050100005D40D784B7805EB0325D586891C03282C
:1050200004D102F11C00FDF7AEFE04E008784978D7
:1050300000EB0120908300206169C8750FF23900F0
:10504000206100F006F805B030BD217A6846FFF710
:10505000AABD8149814A487A28B9012010600FF21F
:105060003D00086170471028A8BF10200872087A18
:10507000401E10607047000010B5774C6269217ABD
:10508000106CFFF790FD6169207A0A6C02440A6493
:10509000617A081A6072BDE81040DAE72DE9F8433A
:1050A0006D4D02212846FFF77EFD6E78002406F044
:1050B000800630006C4F02D1E87A02283FD1E72009
:1050C000FEF784FB02202871FEF7AFFD2857A0F100
:1050D0004909687800F07F0841464FFA89F0FEF7E9
:1050E000A7F9696981F83A00686980F83C906969B4
:1050F00081F83B80696991F844304A6801F14C00BD
:105100000864087A1B1AD0184860897B4A0706D5BC
:105110000078042803D0396821F004013960574A27
:10512000107818B10BF0D4FB00B104246869817BBE
:1051300034430C4384736869FBF75BFD0BE0E820A4
:10514000FEF744FBB86E40084000B866AC7105F14C
:105150001400FBF749FD002068610520B86248484B
:10516000C5F81000BDE8F143464801684A0606D577
:105170000068010603D44448ED210160016000216C
:10518000354801718079002808BF00F00EB87047DB
:1051900010B5314C0020A0713C48FDF7A2FA2079EF
:1051A00010B9BDE8104000E010BD80B5FEF73DFD30
:1051B000FEF786F8BDE80140FEF7D2BB10B5264CDD
:1051C0002F492069884218BFFEF78EFDE07910B99B
:1051D000BDE81040C8E71028A8BF102020721F4962
:1051E000207A401E08600FF20901216110BD000005
:1051F0001FB5194CFFF729FFE179207A081AE071F1
:10520000C2B2164932B1C0B2102809DA2072401E6B
:1052100008601FBD0520086019482061FFF7A4FF42
:105220001FBD0D48817B491C8173FEE410B50A49FE
:10523000174CC872010005D100202060206840F0A2
:10524000090007E002281CBF0128FEF74DFD206879
:1052500040084000206010BD4456002050860840A1
:1052600034880840085900202886084030880840C3
:105270005C560020F8440020CC5700202459002020
:10528000D14C20004C8608403888084064560020E5
:105290000086084000BE040A62B38B0708D0521E85
:1052A00011F8013B00F8013B00F024808B07F6D198
:1052B000830740F0208000BF103A07D330B4B1E834
:1052C0003810103AA0E83810F9D230BC530724BF88
:1052D000B1E80810A0E8081044BF51F8043B40F8BA
:1052E000043BD20724BF31F8022B20F8022B44BF25
:1052F0000B7803707047121F17D35B0009D151F868
:10530000043B20F8023B1B0C121F20F8023BF6D294
:105310000BE051F8043B00F8013B1B0A20F8023B6C
:105320001B0C121F00F8013BF3D238BF121D521E96
:1053300024BF11F8013B00F8013BF8D8704700008A
:1053400038B5134C207878B931BD012818BFFEF765
:10535000CBFC2868010358BFFEF7C6FC0020207074
:10536000BDE83140FEF74FBC0A4D29680A03FBD562
:1053700009490A6842F003020A600B685A07FCD523
:105380000228E2D10BF046FBFFF72EFCE6E7000017
:10539000C245002004200D400488084010B5FDF7E8
:1053A000F9FCDFF82C13401E804100220A60C00F78
:1053B0004A688C6808B1FDF7E9FC2406600E10BD50
:1053C00038B5DFF804030168CA0648BFFEF78CFC55
:1053D000DFF80003DFF80053012101670160E220DC
:1053E000A860FF20A860FDF7D5FC00F03AF96FF047
:1053F0001000E40F28600CB1FDF7C8FCFDF7CAFCF3
:1054000000F02FF96FF00800E40F28601CB1BDE830
:105410003140FDF7BBBC31BD80B5FFF7D1FFAB48D4
:10542000BC210160B82101600F210160D021016021
:10543000016001600EE080B5FFF7C2FFA348BC2108
:105440000160172101608121016010210160D221DA
:1054500001608121016010210160D2210160D92108
:1054600001600121016009210160BA21016001216F
:105470000160C5210160D221016001BD38B500F095
:1054800069F8964C11606FF002002060FDF782FC15
:10549000411E894100206060C90F9148A268E368FD
:1054A0000568122DDBB204D2D2B253EA020008BF63
:1054B000521C03206060D2B2A260E36009B1FDF724
:1054C00065FC814800F03DF8FEF7C8FBE120E06292
:1054D00031BD80B5FFF774FF7C48BC21BEE72DE9E4
:1054E000F0417B4D7848DFF8FC8100F02AF8FDF7A9
:1054F00051FC441EA44100202860E40F68686E69D6
:10550000F6B206F00F07C7F10F07FFB2C8F8007038
:10551000FEF762FB744901200870E121A9620020B6
:10552000286068686869864204D0022FA4BF7F1E85
:10553000C8F800701CB1BDE8F041FDF727BCBDE81C
:10554000F081016841F010010160026842F0080238
:10555000026070476548634A017870475D49086892
:10556000002800D0704780B557480168CA060DD59D
:10557000026822F01002026001680A0705D502687D
:1055800022F008020260FEF7C2FAB3E001BD2DE985
:10559000F8434D4D2868C10648BFFEF7A5FBFFF74D
:1055A000FDFE804652480478142CD8BFFEF79CFBC1
:1055B0004444143CE4B2142094FBF0F9494E00FB3F
:1055C000194409F101010220E4B2B0605FFA81F9E7
:1055D000C6F80090142CC8BFFEF786FB3F4F6FF053
:1055E00002003860FDF7D6FB401E80410321796040
:1055F000C00F3B490A686402122A02D2A1B201B963
:105600000124A4B204F0FF01B960240AFC6008B1CF
:10561000FDF7BCFBE220F862FF20F862FDF7BAFB61
:1056200000F01FF86FF01000E40F78620CB1FDF786
:10563000ADFBBC20F862E121B820F862D220F8620C
:10564000286840F010002860F962FFF7A7FE404587
:1056500005DA3068484502D13068401E3060BDE848
:10566000F183441EA4412A20FDF718BC16480168A6
:1056700021F010010160E22214480260FF21016064
:1056800070471148016821F008010160FEF73FBA38
:1056900080B50D48016821F0100101600D490868CE
:1056A00000B927E00A68012A03D1BDE80140FEF7EE
:1056B00077B90868022818BFFEF716FBBDE801405D
:1056C000FEF7D5B9000000009086084038880840F1
:1056D0001088084090870840308808400C880840AF
:1056E000CC57002088870840085900205F560020CA
:1056F00010510020BDE80140FEF778B970470BF06B
:105700006EBA000010B5DFF8E417DFF8E447087060
:10571000002084F826000BF081FAFEF763FD0020DC
:10572000606708F01FFE0BF013FB09F087FB0BF01E
:1057300084FADFF8C01700200860BDE8104009F0C7
:1057400041BB2DE9F041DFF8A47738780E463104EB
:105750008EB01CD5FDF758F9040015D000200FF2CB
:10576000A02100E0401CC0B2024611F83230FF2BED
:1057700007D02578AB42F5D1091D204651F83210EB
:1057800088472046FDF704F986F4004023E1B10480
:105790000BD5FEF751FF040004D000F0ADFB20460E
:1057A000FDF7F6F886F4005015E1B10640F195805A
:1057B0002021FEF71CFC7968084308BF01250DD0A5
:1057C000FEF791FC01467868002528B1814232BF7E
:1057D0006FF000450D1A6D08002D3CD000F040F927
:1057E000044637E0FF208DF800008DF8010001AA83
:1057F0004FF0FF308DF802002068C17F006A07F08B
:1058000054FA01281BD1608A40F08000ADF83200C4
:10581000A17B8DF83410A17A0A0706D540F4807078
:10582000ADF832000DA9207B8870606910B1007B53
:10583000ADF814000022694601A80BF0CCFF062049
:105840006073207BFEF773FD03E00028CAD10120BE
:1058500060734446002C00F0C180002204212046E1
:10586000FEF70AFE80462089A8422CBF401B00207C
:10587000208120890028ECD1A07B0128E5D1A17AE4
:105880004A07E2D406206073B7212068407B00F00D
:1058900074F9DEE7048903E00289944288BF144664
:1058A00000220421FEF7E8FD0028F5D1A9B23878DE
:1058B000A14202D2651BA9B221B92021FDF771F9DD
:1058C000002006E02C04E20B2021FEF748FBFEF747
:1058D0000AFC786086F020007DE0F00604D509F02F
:1058E00068FE86F0100076E0700604D50AF0D2FA61
:1058F00086F040006FE0300604D50CF035FA86F0F3
:10590000800068E0F00504D508F00EFB86F4807096
:1059100061E0300515D509F062FBDFF8980B0178DE
:1059200001290BD1DFF8902B12783AB14FF47A703D
:10593000424338784FF40061FEF728FB86F400609C
:1059400049E0F00408D5787818B10021797009F0A1
:1059500046FB86F480503EE0700418D5DFF85C0BFF
:10596000006888B1DFF8D41B0A78012A0CD180477F
:10597000DFF8CC0B006800B1804738784FF47A72BA
:105980004FF48041FEF702FB86F4804023E0B0052F
:1059900004D508F08FFA86F400701CE0700519D564
:1059A000DFF8A00B008807F05CFBDFF89C1B088881
:1059B00007F053FBDFF8940B0178022908BF05F0CC
:1059C0008AFEDFF82C05808C01210CF01AF886F491
:1059D000806000E000200EB0BDE8F081FEF707FC1B
:1059E000002201210020FEF747FD18B13878202160
:1059F000FDF7D7F800F034F800287FF44BAF68E7E4
:105A00000100000055652000060000005D6C2000CC
:105A100008000000F16B20000B0000007F6C2000EC
:105A20001000000039012100020000004967200039
:105A300005000000B369200007000000076820008F
:105A40000C000000B15C20000D000000F95E200099
:105A500064000000FD112100FF00000000000000B4
:105A6000002204210020FEF707BD00B587B01822F0
:105A700000F055FFDFF87804418B808CADF8001002
:105A80000222ADF80A0000218DF808208DF81410CC
:105A9000684609F060F907B000BD10B50C008EB083
:105AA00012D001466A46204607F0FFF89DF806002E
:105AB00050B19DF81C309DF80120214600200CF0CB
:105AC000C6FD08B1A42000E000200EB010BDF8B55E
:105AD00004464FF6FE756089410622D52168088884
