:020000040020DA
:10000000347400200D5D2200495D22004B5D22000A
:100010004D5D22004D5D22004D5D2200000000007C
:100020000000000000000000000000004D5D220004
:100030004D5D2200000000004D5D22006954220049
:10004000415D22004D5D2200415D22004D5D220098
:10005000000000004D5D22004D5D22004D5D22003C
:100060004D5D2200000000000000000000000000C4
:1000700000000000000000004D5D220000000000B4
:1000800000000000000000004D5D22004D5D2200D8
:100090004D5D22004D5D22004D5D22004D5D220030
:1000A0004D5D22004D5D2200FD5320008354200051
:1000B0004D5D22004D5D22004D5D22004D5D220010
:1000C00075602200A35320004D5D22004D5D22008B
:1000D0004D5D220000000000000000000000000054
:1000E0000000000000000000000000000000000010
:1000F0004D5D2200000000004D5D22004D5D22009C
:10010000082102F03CBF38B5DFF8084A0FF2217031
:10011000594D60650FF6B900A0650FF27550E862A1
:100120000FF225502863DFF8000C6863DFF8FC0B42
:10013000A8630FF6BD00E8630FF2A93028640FF240
:10014000B15060640FF20560A0640FF27550E06476
:10015000DFF8DC0B2065286908B103F0DDF8DFF873
:10016000140CA8600B2208202873002100202861AD
:1001700084F82000287505F1150002F045FD05F111
:100180002000BDE838400B22002102F03DBD30B513
:100190000446201D83B0052141820321017461685A
:1001A000491E4A1E626094F836200A7094F8361090
:1001B00011B14FF6FF7101860268018E521E026076
:1001C000090A02F8011F6268018E11700179C91CC9
:1001D000017100A804F12B0103F01EF903208DF832
:1001E000080000AADFF86008C38C0321204601F054
:1001F0006FFE050004BF204600F071FF01F0ABB8B0
:1002000038B504460D466068411E100A087001F8B2
:10021000012D049801F8010DDFF82C08428D120A17
:1002200001F8012D408D01F8010D180A01F8010DAA
:1002300001F8013D207A62681018401A207261604E
:10024000287A03280CBF01200020E0820B2209201D
:10025000207504F12000394902F0B2FC4FF6FF731B
:100260002A460321204601F033FE050004BF204644
:1002700000F035FF284632BDA84E00202DE9F0479A
:1002800005460F469246002603F0D4F8DFF8808832
:10029000D8F8004000F0010080F0010913E0607E12
:1002A000400613D560684178C1F3810103290DD15F
:1002B000ED1F411D284603F0AFF8103654F8084CE6
:1002C0006D1EF6B27F1EFFB227B101E054F8084C54
:1002D000002CE4D1B9F1000F18BF03F0A7F803F028
:1002E000A9F800F00100D8F8001080F001000BE040
:1002F000927905F80129761C4A68527905F8012996
:10030000F6B27F1E51F8081C89B14A685378C3F3CE
:100310008103022BF6D14B7E5B06E9D40A7E92065E
:10032000F0D50122FFB28AF80020002FEAD108B1EF
:1003300003F07CF82E70681EBDE8F087BD4E0020EB
:100340002DE9F04784B0804600208DF800008946F2
:10035000DFF8BC07857A9246082DA8BF0725DFF88D
:10036000E876387B00EBC5003D30C6B2304602F07F
:1003700084FC04004DD030196060002020723A7B6C
:100380006068B968861A304602F01AFC00AA29464D
:10039000701EFFF773FF0021DFF8742B0170527895
:1003A0007978920142EAC11141EA0A1141F00F0144
:1003B00000F8011D48EA091100F8011D6268217A60
:1003C0005118091A217260600B220020E08220750A
:1003D0008DF80C0004F12000DFF8501C02F0F0FB57
:1003E0009DF8000018B1E08A40F00800E0824FF666
:1003F000FE71788D8842ACBF03210221002301AA3F
:10040000204601F065FD0028204602D002F04EFC97
:10041000002004B0BDE8F087F8B5044603F00AF800
:1004200000F0010080F00105DFF8E406076800260F
:100430000EE0787E000609D56168786801F0EEFC70
:1004400020B1787E00F0BF0078763E4657F8087CF1
:10045000002FEED11EB1707E40F040007076002D6E
:100460001CBFBDE8F14002F0E1BFF1BD2DE9F8434A
:1004700080468946002402F0DDFF00F0010080F094
:100480000107DFF88C06066800250CE0354605F10B
:100490001800417841F010014170287E40F0800042
:1004A000287656F8086C9EB1707E0006F9D5726801
:1004B0004946404601F0CEFC0028F2D0002DE5D0A0
:1004C000287D012804D16868017841F0100101708D
:1004D0000FB102F0ABFF15B100F0AAFD01242046D8
:1004E000BDE8F2832DE9F04182B00024009402F0CF
:1004F000A1FF00F00100DFF81866376880F0010501
:100500000EE057F8088C22463946304602F0E0FCEF
:10051000394600A802F086FCB07A401E4746B07209
:1005200067B1787E000605D5788A401E788280B251
:100530000028E6D03C4657F8087CF1E70DB102F000
:1005400075FFB07AE8B1DFF80005DFF8C845407BF9
:100550000F281CBF94F82000002812D1DFF8605C3F
:10056000284602F0FBFA03F0D0F83030686004F15E
:100570006C01284602F0C4FA03E06070204600F0E7
:10058000A0FC00A802F071FC040007D0FFF744FFB4
:10059000607E40074CBFE920F020EEE7BDE8F38124
:1005A00070B50546FFF738FFDFF86445DFF898645B
:1005B000A06F80470128F08D08BF401C6882A07A98
:1005C000002804BF707B0F280DD1DFF8F45B2846AC
:1005D00002F0C4FA03F099F8303068602846DFF87A
:1005E0007C1C02F08DFA02F025FFA17A491CA17251
:1005F000002804BFBDE8704002F018BF70BD38B5D8
:100600000446607E00F0EF0060762046FFF704FFAE
:10061000DFF8FC542146284602F046FC02F00AFFAF
:10062000A97A491CA97208B902F000FFDFF8180482
:10063000407B0F2806D1BDE83440DFF8D4080078AD
:10064000FFF75EBD31BD000010B50446DFF8F803CA
:10065000407886B0C8B101208DF8000004F11C017B
:1006600000208DF801000DF1020002F0D5FE606857
:1006700000788DF80A000B2204F10F010DF10B0038
:1006800002F09EFA00A803F0B1F806B010BD000019
:1006900010B50446FFF77BFDDC2818BFDD2808D025
:1006A000E42818BFF32804D0DE281CBFDF28DB288D
:1006B00005D101462046BDE8104001F015BA10BD35
:1006C00010B586B0044606208DF8000004F11C0128
:1006D0000DF1020002F0A0FE0B2204F10F010DF15A
:1006E0000A0002F06DFA00A803F080F806B010BD11
:1006F00010B5044684B094F8360028B304F12B01F9
:1007000001A802F089FE03208DF80C00CE4890F875
:100710003A10C38C009101A9A28E2046FFF770FD0C
:10072000DC2818BFDD280BD0E42818BFF32807D039
:10073000DE2818BFDF2803D0E82818BFDB2803D144
:100740000146204601F0D0F904B010BD2DE9F04378
:1007500085B004464FF00009E72602F06BFEDFF893
:10076000B0733D6800F0010080F0010802E0A94686
:1007700055F8085C95B1687E0006F8D5287D0128FB
:1007800002BF95F8390021798842F0D14A462946BE
:10079000384602F09DFBB87A401EB872B8F1000FDF
:1007A00018BF02F043FE002D3BD02846FFF734FE71
:1007B0002978DFF8D80B085C8DF800000B2805D1EC
:1007C000F0206870284601F029FD29E040B30C288C
:1007D00020D1019595F839008DF80200E868029063
:1007E00005F10C008188ADF80C10817AC90648BF6C
:1007F000002104D49449827B91F83410891A8DF831
:100800000E10417C8DF80F10817C8DF81010C07C8B
:100810008DF81100F0208DF8010000A802F0E6FF2D
:1008200000263146204601F05FF905B0BDE8F083AF
:1008300070B5044684B06078F32818BFDF285AD01A
:10084000E82818BFDB2856D0204600F059F80600EB
:1008500050D1207C00284DD004F11101092000F076
:10086000E9F9050046D002208DF808004FF6FF7622
:10087000ADF80060FF236868A17A228900F8013D85
:1008800000F8013D00F8011D6F494B8D1B0A00F86F
:10089000013D498D00F8011D110A00F8011D00F805
:1008A000012D297A6A685118091A297268609DF821
:1008B000080003280CBF01200020E8820B22092039
:1008C000287505F12000DFF8501C02F079F9334655
:1008D00000AA0321284601F0FBFA060004BF2846BF
:1008E00000F0FDFBF32E18BFDF2E03D0E82E18BF5B
:1008F000DB2E03D16670204600F06AF804B070BDAC
:1009000038B504460025A07A0B38122828BFE82500
:10091000207B1028A8BFE82501DA0F2804D07C49E5
:10092000097E090758BFE825617B884202D20F295A
:1009300018BFE8254448408D4FF6FF71884208BF34
:10094000EC25242002F04DFCDFF87418086120B17A
:100950002422211D02F034F900E01A25284632BD78
:1009600070B504463848217ADFF8A465C51CA97221
:10097000617A80F82C10E17AC170A07A707003F06F
:10098000B8F8707838B1211D502003F06BFAA11D22
:10099000E12003F067FA5F49012081F82000A87A7E
:1009A0000F2814BF01200020DFF8145828750B22EF
:1009B00004F10D0105F1150002F002F904F118012E
:1009C00005F12000BDE870400B2202F0F9B80000EC
:1009D00010B50446607820B9DFF8E4070069FFF736
:1009E000BFFF2C2020702046BDE8104001F0B7B8B2
:1009F00010B5DFF8CC170446086918B100220A6167
:100A000002F08AFC082020702046BDE8104002F069
:100A1000EDBEDFF8AC173F48097D90F8200081F06B
:100A20000101084200D1704780B50748C27890F8AC
:100A30002C10407BFFF784FC00281CBFBDE802405F
:100A400000F04DBB01BD00007C4A00202DE9F043C1
:100A5000814687B099F80E00012409F20E0640077E
:100A600039D5318D09F11C00FFF700FD98BBDFF887
:100A70009C0C407920B1B07D022808BF00242AD008
:100A80000B2209F10F0104A802F09AF8DFF8800C9C
:100A9000408D4FF6FE718842ACBF03270227B6F89F
:100AA000288004A9012000F0C5F8050013D03020EB
:100AB000E8822C750B2204A905F1200002F080F8D1
:100AC000434609F11C023946284601F001FA10B9E3
:100AD000284600F004FB10208DF8000009F11C01ED
:100AE0000DF1020002F072FC308DADF80C008DF8B3
:100AF0000E4000A802F07AFE07B0BDE8F083DFF8F0
:100B00001004407800B9704700B500F017BF00002E
:100B10008041002000410020DFF8F80BDFF8F81BCF
:100B200001F154020263DFF8F42B426301F1440245
:100B300082630FF22002C266DFF8E42B4264DFF822
:100B4000742C0267DFF89C2C0A66018B41F00201CD
:100B500001837047030471040204600411047004EB
:100B600002040204010402041004610400041404D9
:100B7000630473047204620443040004130406044F
:100B8000000400040404120400040004000400042F
:100B90005104640000040004000444040004000440
:100BA00000040004650400043504810464000504A5
:100BB000000483040004000002460146032000F004
:100BC000F6BF02460146052000F0F1BF30B50446ED
:100BD00085B0282002F051F8050004D008202870C4
:100BE000242200F0E7BE082000F0DABE10B5DFF8DE
:100BF000244B0FF2C520606782B00FF2A920A067D6
:100C000006E0204602F031F9009000A801F0A7F8B4
:100C100020680028F5D1606838B1201D02F025F960
:100C2000009000A801F09BF8F5E72060A072E07248
:100C3000207313BD38B504460FF23800255C2846F2
:100C400002F01BF820B1291841600021017232BD69
:100C5000022002F012F850B10FF2C421615C017061
:100C60001A2141700146AA48007802F033F80020AA
:100C700032BD0000004246484045453F354D3600F4
:100C8000821DD2B2C90711D50A2192FBF1F101EB05
:100C90008103A2EB4301C9B241B10A32521AD2B266
:100CA0000529A4BF0A32D2B20B32D2B21328ACBF8C
:100CB000142006208018C0B209300A2190FBF1F000
:100CC000C0B2704780B5DFF84C0A007E800706D5B9
:100CD00002F0C1FE401E8041C043C00F02BD002093
:100CE00002BDDFF8300A017E89070FD5807A58B936
:100CF000DFF8240AC06D48B1407E00F08001481E34
:100D00008041C043C00F70470120704700207047EA
:100D1000DFF8001ADFF8F429097B9278914238BF96
:100D200001F0ABBF00207047130A20004D0A2000DD
:100D3000FF0A200038B5040008BF03F04DF902F0A7
:100D400079FB00F00100216880F0010561B1DFF856
:100D5000C4295369A1F108008B4204BF00215161ED
:100D60000021216002F0D8FA0DB102F05FFB0020F3
:100D700032BD00000D1A200011B581B0007B20B1FA
:100D800001282CD003282CD03EE0DFF88449607B7A
:100D90000F281EBFDFF87C09807E032804D0DFF80F
:100DA00078190198496E8847019994F83A00887338
:100DB000142001990870DFF85C490199201D02F0A8
:100DC00031F802F037FB217B491C217308B902F08E
:100DD0002DFB20214E48007802F0D1F813BD1520DC
:100DE000E7E70198007A78B101994A68521C4A6095
:100DF00012F8011D019A5173019A0199D27D497B24
:100E000032B109B10A2912DB01A800F0A8FF13BD15
:100E10000A0008D00A2A06DA0FF23001511811F838
:100E2000011C884203D0082A08BF0828ECD1019988
:100E3000401E087201980199407B0A3008700198A1
:100E40000199407B401C4873B5E700000204020191
:100E50000101010902000000DFF8B808C06F0100BD
:100E600018BF00470020704738B5044601202075A0
:100E700004F1140104F1380042884A800279CA71F1
:100E800004F12C024079087220464B8C94F83810FB
:100E900001F01EF8050004BF204600F020F92846A6
:100EA00032BD0000DFF86C08807E032801D00120ED
:100EB0007047202070470000417E41F001014176DB
:100EC0007047017D027E012904D113075CBF417880
:100ED00000F00ABE530603D50D494078896D0847D6
:100EE000012903D1120748BF30210BD442781B2AB5
:100EF00008BF222106D0002A0CBF0FF218020FF201
:100F00002002895C017001460148007801F0E2BED0
:100F1000C04C0020303016181920231A1C1E300037
:100F2000303017181921301B1D1F300038B5DFF87D
:100F3000E8470546E06D002876D025B11B2D05D188
:100F4000017D052956D00021417055E0E92D2BD1B6
:100F5000807E30B902F083FD18B1E06D807D4007DE
:100F60002BD5EE2003F0BAF9E06D817E002942D046
:100F7000827D520705D4491E8176BDE8314003F0D9
:100F8000C5BA017E01F07F010176E06D017D032984
:100F900003D1417E41F004014176ED2003F09EF93A
:100FA000E06D216E88472AE0E12D1CD102F057FD4B
:100FB00000B3E06D807D40071CD4DFF85407E26D7C
:100FC00000F12201897C9176E26D90F8221052683E
:100FD000917090F82210491C80F822100120BDE881
:100FE000324003F09CB91C2D04D1A16E884700202B
:100FF000E06531BDE06D4570E06DFFF762FFE06DCB
:10100000807D000609D5DFF8080700F22205287E5A
:1010100002F0E7FDE87D02F098FD0020E065102178
:10102000BDE8344000F0F4BC31BD0000C84E0020E3
:101030002DE9F041002402F0FDF900F00100DFF895
:10104000D85680F00108E86D90BBDFF8C876B86F1D
:1010500080473E6840F0100002E0344656F8086CC5
:1010600036B3717E01408142F7D12246314638467F
:1010700001F02EFFEE65707E000620D4F87A401E47
:10108000F872B8F1000F18BF02F0D0F9EC6DE18AE8
:10109000207AFFF7F5FD3881A07D000613D5E07EAC
:1010A00002F09FFDE86D007FBDE8F04102F04DBD0C
:1010B000B8F1000F11D0BDE8F04102F0B7B9B87A2D
:1010C000401EB872DDE7207EBDE8F041400800F028
:1010D000010080F0010003F022B9BDE8F08138B5CD
:1010E000DFF8305604466869A04204BF00206861FA
:1010F000207E000706D4207D012803D1DFF80C06EE
:10110000027802E0DFF8040642782146284601F022
:1011100001FFC0B1696F20468847A07D40070DD40C
:1011200002F088F9E97A491CE97208B902F07EF9FF
:10113000E08AC0050DD4BDE8314079E7296F20462B
:10114000BDE834400847F12060702046BDE83240D9
:10115000B7E631BD6CE710B5DFF8B815098B04466A
:1011600000208A0705D404F134029279520748BF5F
:10117000E8206022114205D104F134018979890700
:1011800048BFE820DFF8681C227A8979914238BF8D
:10119000E82004F134010979002902BF94F83410E1
:1011A0000029F52004D010B92046FFF75DFE28B1D4
:1011B00001462046BDE8104000F096BC10BD00007E
:1011C000A84E00200D21017002F010BB00B585B0C3
:1011D000002101704170DFF8341590F83A30097839
:1011E000DFF830255B0715D4D27A8A4215D30C215B
:1011F0008DF80010019090F839108DF80210C16838
:1012000002910C308188ADF80C10817AC9060CD59A
:10121000002110E0927A8A42E9D20146DFF8F40B0D
:10122000007801F057FD05B000BDDFF8F017827BB4
:1012300091F83410891A8DF80E10417C8DF80F103A
:10124000817C8DF81010C07C8DF81100F1208DF894
:10125000010000A802F0CAFA05B000BD6C410020F0
:1012600010B5044604F1580080B201F006FD18B133
:10127000047200F15801416010BDDFF89C0B0FF2C1
:101280005911016002220FF29D4141600FF2C91114
:1012900081600FF22521C1600FF2F13101610FF27F
:1012A0005D3141610FF21D3181610FF20D51C1615C
:1012B0000FF2355101620FF2A55141620FF209613F
:1012C00081620FF25921C1620FF2C50101630FF271
:1012D000910141630FF2793181630FF2D151C16302
:1012E000DFF8DC1B01640FF2F55141640FF2496134
:1012F00081640021DFF8CC0B80F85C1080F85F106F
:101300000FF20971C1633C30016102710121017565
:10131000704730B50446251D83B00120688204F172
:101320002E010220287400A802F050F86068AB8EED
:10133000401E606000AA616894F83A00087083213A
:101340002879401C2871204600F0C2FD050004BF2A
:101350002046FFF7C4FE284603B030BD0000000061
:1013600038B5DFF8AC03DFF85C5B90F8350000EBD4
:1013700040010C0102F0C9F90019A86405F144000C
:10138000BDE83440DFF8441B01F0BABB3829200027
:1013900030B5DF4C607B93B00F2807D02E208DF83E
:1013A000000000A800F0DBFB13B030BDDFF8145BD9
:1013B00005F1340001F0D2FB608E1421B0FBF1F492
:1013C00002F0A3F90019A86305F13400DFF8FC1A54
:1013D00001F096FB13B030BD10B50446607888BBB1
:1013E00094F8361002291CBF0329E82094F82B102A
:1013F0000B39122928BFE82025D218BB04F12B0194
:10140000E12002F02FFD04F13801502002F02AFD06
:1014100094F83610BE48022902D1E18D018407E01C
:101420004FF6FE710184163004F12E0101F0F4FF35
:101430000B2204F12001DFF8900A01F0C1FB2046E5
:10144000FFF767FF30B16070172020702046BDE8BD
:10145000104084E310BD000070B5DFF8684A94F8CE
:101460005F0084B028BB012084F85F0003F0A0F97E
:1014700000A800F0BFFC04F15401A548C58C05206C
:10148000FFF7D8FB060014D00120F0820B220520C4
:10149000307504F1540106F1200001F091FB2B4658
:1014A00000AA0321304600F013FD10B93046FFF7C3
:1014B00016FE04B070BD000010B5044682B00120D5
:1014C00003F08FF92078202804BFEB206070DFF84C
:1014D000F40990F85F104A0744BF01F0FB0180F85F
:1014E0005F1090F85F108A0710D501F0FD0180F8B9
:1014F0005F100A2160788DF801008DF8001000203F
:101500008DF8020000A802F071F913BD2A202070A6
:10151000204600F024FB13BDBD4E002070B50546EB
:1015200086B0012003F05DF9DFF8984904F134003A
:1015300001F014FB04F1440001F010FB686801782D
:10154000427801EB0221ADF80410867846B901A972
:10155000532002F087FC05F11C014A2002F082FCB6
:101560000B2205F10F0104F1540001F029FBBDF835
:1015700004008DF8096002218DF808100EB14FF6B5
:10158000FF70ADF80A000B2204F1540103A801F02A
:1015900017FB02A802F02AF994F85F0080070BD528
:1015A00068788DF801000A2100208DF802008DF87E
:1015B000001000A802F01AF9002084F85F0006B0BD
:1015C00070BD000010B5044682B0EB206070DFF8FB
:1015D000F40890F85F0080070BD50A208DF8000012
:1015E000EB208DF8010000208DF8020000A802F029
:1015F000FDF8204600F002F813BD000030B50546A6
:1016000085B0012003F0EDF8DFF8B84804F13400AC
:1016100001F0A4FA04F1440001F0A0FA002084F8DB
:101620005C0084F85F000B2202208DF8000004F1BA
:10163000540168788DF801004FF6FF70ADF8020094
:1016400001A801F0BDFA00A802F0D0F805B030BD45
:1016500010B5044682B0EB206070DFF8680890F89F
:101660005F0080070BD50A208DF80000EB208DF875
:10167000010000208DF8020000A802F0B7F8204613
:10168000FFF7BCFF204600F075FE13BD10B5044601
:1016900082B0012003F0A5F8207A002814BF0020B2
:1016A000EB206070DFF81C0890F85F104A0744BF19
:1016B00001F0FB0180F85F1090F85F108A0716D5E3
:1016C00001F0FD0180F85F10A07B00F01000012800
:1016D000ACBF0120002061788DF802000A228DF84D
:1016E00000208DF8011000A802F080F808E0C8077B
:1016F00006D52A202070EB206070204600F02FFADB
:101700000D202070204602F071F813BD8060220089
:101710007C4A00208041002000410020D44E00205F
:10172000070120002DE9F8430446DFF8980790F8F8
:101730005F1041F0020180F85F10012003F038F8DB
:10174000607840BBB548408D4FF6FE718842ACBF13
:101750000325022504F11008B4F80E901A2641461C
:101760000520FFF767FA070014D00120F8820B224A
:1017700005203875414607F1200001F021FA4B465B
:10178000221D2946384600F0A3FB060004BF384658
:10179000FFF7A5FC6670607850B18DF801000A2152
:1017A00000208DF802008DF8001000A802F01EF84D
:1017B000BDE8F183A105200010B5044682B00120E8
:1017C00003F00FF82078202804BFEB206070DFF8CA
:1017D000F40690F85F104A0744BF01F0FB0180F85F
:1017E0005F104DE0FF05200038B50446012002F0EF
:1017F000F8FFDFF8D05605F1340001F0AFF9207A98
:10180000002814BF0020EB20607095F85F004107AE
:1018100044BF00F0FB0085F85F0095F85F0081078A
:1018200015D500F0FD0085F85F00A07B00F01000EA
:101830000128ACBF0120002061788DF802000A2247
:101840008DF800208DF8011000A801F0CFFF0D20C9
:101850002070204601F0CAFF31BD000010B50446DB
:1018600082B0012002F0BDFFEB206070DFF854066B
:1018700090F85F104A0744BF01F0FB0180F85F1049
:1018800090F85F108A070FD501F0FD0180F85F1016
:101890000A2160788DF801008DF8001000208DF885
:1018A000020000A801F0A2FF13BD000010B504461D
:1018B000DFF8D40B01F052F92046FFF7CFFF2046A6
:1018C000BDE8104000F056BD10B50446DFF8B80B77
:1018D00001F044F92046BDE81040BFE710B50446CA
:1018E00086B004F11C01DFF8A40B01F04BFD08B336
:1018F00009208DF80000EF208DF801006068017864
:10190000427801EB0221ADF8021000798DF8040055
:10191000207A082806BF6068C07900208DF805008D
:101920000B2204F10F010DF1060001F049F900A8A6
:1019300001F05CFF06B010BD4DF804ED85B0092044
:101940008DF80000EE208DF8010000A801F04EFF98
:1019500005B000BDDFF8380BDFF8BC148162383108
:10196000C1620FF2BC0101660FF218114166DFF887
:10197000241B0164018B41F0010101837047024681
:101980000146022013E130B5044685B01C2001F069
:1019900074F9050003D00620287018220AE00A20F6
:1019A0008DF800001A208DF8010000A801F01EFF3C
:1019B00005B030BD002068702146281D01F000F9F7
:1019C000DFF850040078294601F084F905B030BDF5
:1019D00010B5DFF8BC4A206982B018B104F11000DC
:1019E00000F0BDF90020A076DFF85C0B006858B16C
:1019F00002E000A800F0B3F9DFF81804007801F065
:101A0000ABF900900028F4D113BD00004FEA0001AB
:101A1000DFF80004007801F0B2BA00007C4A002030
:101A200001017101010101011101010131010101F6
:101A300001018001100161013B0014006301730189
:101A40007201620143010001130106013D013500ED
:101A50000401120100010001000100010401040160
:101A6000330133013C014401320136000001000121
:101A7000650100013500810100010501820183013A
:101A800000010000030271023001600211027002C5
:101A90000102020202028002100261023A004100C9
:101AA00063027302720262024302000213023800F0
:101AB0000002000204021202000200020002000200
:101AC00004020402370037003C02440200023900DD
:101AD00000020002650200023502810200020502D6
:101AE000820283020002000000B585B00378DFF8AF
:101AF000D42A9A5C8DF800200B2A01D100F03DBB5E
:101B00005AB30C2A24D11A2902D1002001901FE0D7
:101B1000019090F839208DF80220C2680292028A62
:101B2000ADF80C20827DD20648BF002205D4DFF834
:101B30009C2A837E92F83420D21A8DF80E20427FA0
:101B40008DF80F20827F8DF81020C07F8DF8110056
:101B50008DF8011000A801F049FE05B000BD18B4D1
:101B6000DFF82C198A7E037801EB820203F07F03F1
:101B7000D26D037002EB43035B7801EB8304E46DE9
:101B800004B18B76037812F81320140901EB840159
:101B9000C96921B90B2B08DA14BC1821A4E702F09B
:101BA0000F0251F8221014BC084711BC7047F0B561
:101BB00007460FF2800087B03C5C0D46204601F0DE
:101BC0005CF8060016D03770002070702946A01906
:101BD0007060002030720FF268003A5C06F120005D
:101BE00000F0EEFF8B480078314601F073F80020DA
:101BF00007B0F0BDDFF8CC098DF80070385C8DF8C7
:101C000004000B2806D11A208DF8010000A800F06E
:101C100005FB0AE048B10C2804BF002002901A20FE
:101C20008DF8050001A801F0E1FD1A2007B0F0BD14
:101C300000000000000555534D581C2028070200E5
:101C400000011C181A18181C2403000071490870A0
:101C5000704770B50C4682B0A006DFF8345817D430
:101C60001BE001F0E7FB297B491E297308B901F04D
:101C7000DDFB30788DF800006E613046FFF76FFFB6
:101C80009DF8000015281CBF05F1140000F067F84E
:101C9000281D01F0EAF80600E3D1200407D40CE087
:101CA0006861FFF75CFF05F1140000F058F859482F
:101CB000007801F051F80028F2D1E00605D52D207A
:101CC0008DF8000000A8FFF74AFFE00705D52420A3
:101CD0008DF8000000A8FFF742FFA00705D52520DA
:101CE0008DF8000000A8FFF73AFF600705D5262011
:101CF0008DF8000000A8FFF732FF200705D5282047
:101D00008DF8000000A8FFF72AFF600608D5002024
:101D10008DF801002C208DF8000000A8FFF71FFFB0
:101D2000200608D500208DF801002F208DF8000036
:101D300000A8FFF714FF286978B101F07BFB2C693C
:101D40000021296108B901F071FB6C612046FFF7A1
:101D500006FF05F1140000F002F8002076BD38B54A
:101D6000040008BF02F038F901F064FB00F0010044
:101D7000216880F0010561B1DFF814275369A1F1F2
:101D800008008B4204BF002151610021216001F055
:101D9000C3FA002D1CBFBDE8314001F047BB31BD87
:101DA0001C480FF2D53181600FF2D931C1600FF2BA
:101DB00045410161DFF8241B41610FF261418161FE
:101DC000DFF8541BC161DFF8B41B01620FF2F97137
:101DD000C1630FF2F94101640FF24D5141640FF2FA
:101DE000ED5181640FF28D51C16400214170704743
:101DF00080602200DFF8D4170A8C4FF6FE739A42F7
:101E000004BF163101F0E2BA02220272098C01808D
:101E100070470000C04C0020144E002042784B78E0
:101E2000C2F38102C3F381039A4211D1022A09D17C
:101E300042794B799A4202BF80798979884207D1E9
:101E400001207047032A03D1491D401D01F0CEBA7D
:101E50000020704770B55478067A0B460021C4F311
:101E60008104B44218D1022C10D15479957900889C
:101E700004EB0524A4B2A0420ED1D078127900EB75
:101E8000022080B2834207D1012105E0032C03D157
:101E9000511D01F0ABFA0146084670BD017ADFF82A
:101EA0002C27022907D1118C0088814201D1012001
:101EB000704700207047014602F1160001F062BA37
:101EC0005B282000804B0020D44B00206C41002078
:101ED0002DE9F84F1546044600222F7ADFF8EC86EC
:101EE000994608064EBF4FF6FF7608F11400468A61
:101EF00001F07F00A17D89064CBF082100212176D9
:101F0000A17D49074CBF802110216176A17DC906C2
:101F10004CBF002198F83410A176E18ACB0748BF66
:101F20002022090748BF42F010026168237D491E44
:101F3000022B07DB0B2B1CBF5B1E01F8013942F0A3
:101F4000030200E01A4398F84930012B04D1237AA8
:101F5000672BA8BF42F4805242EA80321FFA82FA0D
:101F6000022809D108F11400C28A120A01F80129D5
:101F7000C08A01F801090CE0032809D1A1F1070B7F
:101F800008F13C01584601F047FAABF1010100E0CD
:101F900050B127B14E4508BF4AF0400A04D0301274
:101FA00001F8010901F801694AEA872086B2022F87
:101FB00007D12888000A01F80109288801F80109D9
:101FC00009E0032F06D1CF1F2946384601F024FA35
:101FD000791E00E02FB14FEA192001F8010901F83C
:101FE00001994A1E207D28B998F81430581C88F8A9
:101FF000140004E008F11400837B5D1C85730B70F2
:10200000300A107002F8016D207A61680818801A91
:102010002072626000206070BDE8F28F2DE9F04709
:10202000099F8A460546904699461A263946FEF784
:1020300001FE04001AD00898E08225750B2239466B
:1020400004F1200000F0BCFD4B46424651462046BC
:10205000FFF73EFF060009D1ED1F012D03D8607E7A
:1020600040F0200060762046FFF739F83046BDE8A2
:10207000F08730B5044683B094F83910012001B1DF
:102080000520251D04F12C0168820420287400A875
:1020900001F09CF960686B8E401E606000AA616868
:1020A00094F83800087003212879401C28712046D4
:1020B000FFF70EFF050004BF2046FFF710F8FFF7FB
:1020C0004AB970B5044605200D4620702E1D95F8BE
:1020D0003D00A0706068F16A416105F11C0101F0EA
:1020E00075F96068718E41810B2295F83A10417440
:1020F000002160680176C17305F10F016068193035
:1021000000F05EFD6168B07A88736868616810F8F5
:10211000012B8A8110F8013B42EA03228A8110F8E0
:10212000012BD3095B1E9B41DB43DB0F0B7402F0D9
:1021300007014A1E9241D24301EB410101EBD271EA
:10214000C9B2081810F8011B2172E060217A01F071
:102150000702490801F0380101EB420108186061EB
:1021600031796A688B18834227BF081A101800203B
:102170002072207470BD00007047417000F04EF86E
:1021800005B000BD00B585B002780FF2AC71515CAE
:102190008DF800100B2901D11921EEE739B30C2974
:1021A0001FD1019090F839108DF80210C16802918A
:1021B000018AADF80C10817DC90648BF002105D405
:1021C000DFF80814827E91F83410891A8DF80E1009
:1021D000417F8DF80F10817F8DF81010C07F8DF832
:1021E000110019208DF8010000A801F0FFFA05B0D8
:1021F00000BD000038B5DFF8B0590446286930B199
:102200001921FFF771FC05F11000FFF7A8FD6869BF
:10221000A04204BF002068612C6131BD10B50446A6
:102220008AB02078032808D0052808D0182804D0C0
:102230001E2818BF1F2802D018E0002000E001204F
:102240008DF8180004F12B0103A801F0E5F8032034
:102250008DF81400DFF87403418DC08CADF80210C6
:10226000ADF8160002218DF80A101CE002208DF84E
:10227000180004F11C0103A801F0CEF803208DF82A
:1022800014000B22DFF84403418DC08CADF802101E
:10229000ADF8160002218DF80A100DF1190004F1B5
:1022A0000F0100F08DFC0B208DF800000B226078F0
:1022B0008DF8010004F10F010DF1190000F080FC10
:1022C00000A801F093FA0AB010BD000038B504462A
:1022D00065789DB9DFF8F412E08EC98C884218BF8A
:1022E000E82504F12C00FFF7D9FD88B1002084F81F
:1022F00039001DB92046FFF7BCFE05463DB16570AB
:10230000192020702046BDE83240FFF728BC31BDBF
:10231000DFF8981894F8390091F8201080F0010047
:102320000843E6D1E825EAE710B586B004218DF828
:10233000041041788DF80510C18EADF8101000F131
:102340002C010DF1060001F041F80DF10600FFF738
:10235000A5FD50B14FF6FF74ADF8004000A9532021
:1023600001F080FDDFF84808048401A801F03EFA7E
:1023700006B010BD10B588B0044603208DF80400E7
:1023800004F11C010DF1060001F046F860680078C8
:102390008DF80E000B2204F10F010DF10F0000F07B
:1023A0000FFC04F11C00FFF779FD50B14FF6FF74EC
:1023B000ADF8004000A9532001F054FDDFF8F0070C
:1023C000048401A801F012FA08B010BDF0B505466A
:1023D00095B068687D4C4078400611D5A61CE98E02
:1023E000B08C88420CD1DFF8CC07407808B30920C4
:1023F0008DF81800EE208DF8190006A801F0F6F906
:102400000BA80190294600A8FFF75BFE2B208DF852
:10241000000000A8FFF7A3FBA07810B19DF8100002
:1024200028B105208DF8000000A801F0DFF915B0F3
:10243000F0BD94F830000028E2D005F11C00FFF751
:102440002DFD0028DCD105F20F05B68C29460620AB
:10245000FEF7F0FB0700EAD00120F8820B220620ED
:102460003875294607F1200000F0AAFB334604F135
:10247000160203213846FFF72BFD0028D7D1384636
:10248000FEF72DFE15B0F0BDB44B0020924A00209F
:10249000804100207B122000F8B5054600F0CAFFFD
:1024A00000F0010080F001040DB101F07FFC01F0AB
:1024B000FEFE464D05F22607387D01F092FBF87CC2
:1024C00001F043FBDFF8EC66707801F012FBE88C5A
:1024D00001F01FFBB88801F026FB05F13C0001F07C
:1024E0002CFBDFF8C476386C010018BF8047786C8D
:1024F000010018BF8047B86C010018BF8047F86C16
:10250000010018BF8047386D010018BF8047786D03
:10251000010018BF8047B86D010018BF804700F068
:1025200021FAFFF755FA00203071FEF75FFBFFF745
:1025300037FC05F12901522001F094FC0CB100F0A8
:1025400075FF0020F2BD00000053002038B504469E
:10255000072000F092FB050010D00920287003220C
:10256000002068702146281D00F02AFB2946BDE89E
:102570003440DFF84006007800F0ACBB31BDDFF836
:1025800034060FF26901416200F108020FF2513185
:1025900081620FF28931C1620FF2091101630FF2FA
:1025A000092141630FF2B1118163DFF8FC15CA61A3
:1025B00000F13C02243048620A620020088301F0E6
:1025C00068BE000038292000704700007C4A0020C7
:1025D000072202700A7A82708A7AC2704A68426060
:1025E00000220272C969C1607047000038B5044614
:1025F000DFF8C45500206870207A0628A4BFE820C0
:102600006870607A0F2804DB207A032804D0E82061
:102610006870207A032806D1DFF88C05007EC00799
:102620005CBFE820687021462846FFF7D1FF61684B
:1026300005F11800890A81600B22617A0173E17A41
:102640004173217B8173617BC173A17B01740A217A
:102650004174CB4991F83A108174DFF86015A96193
:102660000421017105F12B0004F10F0100F0A8FA1B
:102670006878002804BF607800280CD1681C407876
:1026800008B1EA21697001F0FCFA262020700420CC
:1026900002F073F801E0292020702046BDE83240A6
:1026A000FFF75DBAF0B5DFF810556E1C0446707880
:1026B00085B005F10C0760B9787F0A2809D001F0D0
:1026C00047FBE9687A7F511801F80B0CF079401C40
:1026D000F0717869797F40087861491C7977C00783
:1026E00002D4C9B21D29F4DBC9B21D292DD005F1D0
:1026F0002901E12001F0B6FB02208DF810004FF611
:10270000FF737078ADF80830002818BF022804D194
:10271000204600F021F805B0F0BD012807BF0820D1
:1027200080210720832105F12B02019200220092D3
:1027300002AAFFF773FCDB2818BFE52804D0F328B2
:102740001CBFDF28E82805D16870292020702046AA
:10275000FFF705FA05B0F0BD38B5DFF85C446168F5
:1027600094F82920012000FA02F291436160A178D7
:10277000032907D1DFF8380490F8350000EB400159
:102780000D0109E094F824209040401C00EB400229
:10279000150109B901F0D8FA00F0B7FF40196061DE
:1027A00004F11000FEF7ECBD2DE9F043DFF80864FA
:1027B000751C804668788FB002281CBF0128052848
:1027C00040D100207070414600A80A9009A8FFF788
:1027D00078FC06F10C07EC79787E844220D2D6F89A
:1027E0000C900DE0B9F80A00BDF80A10884204D137
:1027F00000A9484600F0C6FD90B9641E09F12409FD
:10280000E4B2002CEED1F068EB7903EBC30624228E
:1028100000A900EB860000F0D3F9E879401CE871CC
:10282000DFF88C03807820B19DF8340008B9787EF9
:1028300010B909A800F0DAFF787E58B1E979814231
:1028400008D101E0E8207070292088F80000404697
:10285000FFF785F90FB0BDE8F08338B5044694F86A
:102860002400032804BF94F82E0003282CD104F17F
:102870001C014A2001F0F6FA60680178427801EB09
:102880000221ADF80010851C00A9502001F0EAFAE1
:102890002878697800EB0120ADF80000AD1C00A994
:1028A0004B2001F0DFFA2946E12001F0DBFA681C39
:1028B0000178407801EB0020ADF8000000A953201A
:1028C00001F0D0FA002000E0E820DFF8EC124870B8
:1028D000292020702046FFF742F931BD5711200012
:1028E00010B5DFF8D44204F1100000F037F901F020
:1028F000F6F9042001F075FFA078032804BF607882
:10290000002804D004F12A01E12001F0ABFA2046AE
:10291000BDE8104000F06ABF5511200000B585B039
:10292000014600A8FFF754FEFC208DF8010000A826
:1029300000F05CFF05B000BD0C0E020B040B0A0793
:1029400008000F0030B5044685B0202000F095F94E
:10295000050004D0072028701C22FFF72BB80720A1
:10296000FFF71EB891480021C16601674FF47F014F
:10297000416781670021C16770470000C5112000D1
:102980007C4A002010B5894C0020E067E06E68B1F9
:10299000616F4068884209DA00F0B7FEE16E4A686C
:1029A0008242B8BF02464A60E06EE067206F38B1ED
:1029B000E16F19B1426849688A4203DAE06701E0D1
:1029C000E06F40B1E06F616F40688842BCBFBDE816
:1029D000104000F0CABEBDE8104000F0F0BEF8B5EF
:1029E00000F028FD00F00100704D80F00104E86F58
:1029F000002840D0696F4068814204DA01F0ECFAA7
:102A0000E86F002837D000F080FEE96F49688842FF
:102A100031D3002948BF01F0DFFAEE6F00F00AFD64
:102A200000F0010080F00107E96E05F16C0001E0A3
:102A30000846114621B10A68B142F9D1026004E0AA
:102A400005F17001304600F07CF8E86F864208BF5F
:102A5000FFF798FF0FB100F0E9FC377BB6680CB1C7
:102A600000F0E4FC3846B04700F0E4FC00F0010060
:102A700080F00104C4E7002C1CBFBDE8F14000F069
:102A8000D5BCF1BD38B504460D460EE0474968682F
:102A9000C96F20188D4202D1002848BF002068600D
:102AA000002848BF01F098FA2D68002DEED131BD05
:102AB00070B500F0BFFC00F001003C4D2E6FE96ED8
:102AC00080F00104686F4042FFF7DCFF06E0686FAA
:102AD00071688142A4BF081A70603668002EF6D172
:102AE000A86F696F81421CBF686700F0F4FDFFF7B3
:102AF00049FF002C1CBFBDE8704000F097BC70BDC2
:102B000070B504460D4600F095FC00F0010080F021
:102B100001062968284601E00846096819B162687B
:102B20004B689A42F8DA046021602868A04208BF26
:102B3000FFF728FF002E1CBFBDE8704000F076BCF8
:102B400070BD0A6801E011461A462AB11368824234
:102B5000F9D10B60012070470020704770B5044622
:102B600000F068FC114EF16E00F0010080F00105EC
:102B700006F16C0001E00846114621B10A68A14245
:102B8000F9D1026004E006F170012046FFF7D9FF99
:102B9000F06F844208BFFFF7F5FE002D1CBFBDE8B3
:102BA000704000F043BC70BD804100200041002017
:102BB0007C4A0020C04C0020244F00200D1A200029
:102BC00030B403000C00180015006A1E002D04D05C
:102BD00025780570641C401CF6E730BC704770B463
:102BE00003001C000D001000421E002809D0200028
:102BF000441C2E00751C00783678B042F3D00020BB
:102C000000E0012070BC704770B504000D00160094
:102C1000EDB22A003100200001F0AAFE200070BDB4
:102C20000178407811EB002080B27047C9B20229C8
:102C300004D10278407812EB002019E0C9B20329D0
:102C400007D10278437812EB0322807812EB004020
:102C50000EE0C9B204290AD10278437812EB0322AC
:102C6000837812EB0342C07812EB006000E000783A
:102C7000704780B501F002FF02BD38B50400A4B270
:102C8000002C01D1002010E014F1080080B200F007
:102C9000A8FA0500002D07D000202860AC80FF2096
:102CA000A87115F1080000E0002032BD38B504001D
:102CB000002C01D105200CE014F8020CFF2801D0F3
:102CC000042006E0B4F108000500280000F024FB11
:102CD000002032BD38B504000D000022290020007C
:102CE000C0B200F001F832BD70B504000D0016004E
:102CF000002D01D105202EE0DFF868040078E4B251
:102D0000844204D32800FFF7D1FF032023E055F8C5
:102D1000080C002803D115F8020CFF2804D0280065
:102D2000FFF7C4FF052016E005F8024CF6B2012EAD
:102D300005D12900DFF8300400F0B6F804E02900DE
:102D4000DFF8240400F06EF84FF400412000C0B218
:102D500000F015F9002070BD2DE9F04104000026B7
:102D6000002700F067FB10F0010090F001008046A2
:102D7000DFF8F40300680500002D0FD015F8020CF1
:102D8000E4B2A04204D1002F01D12F0000E005E001
:102D9000002F00D12E0055F8085CEDE7002D06D07D
:102DA0004FF400412000C0B200F0E9F805E04FF414
:102DB00000412000C0B200F005F9002F05D032001C
:102DC0003900DFF8A40300F083F85FFA88F8B8F15F
:102DD000000F01D000F02AFB3800BDE8F081F8B503
:102DE00004000D0000F026FB10F0010090F001003F
:102DF0000700DFF8740300680600002E0BD016F8F9
:102E0000020CE4B2A04203D13078EDB2A84202D065
:102E100056F8086CF1E7FFB2002F01D000F006FB76
:102E20003000F2BDF8B504000D0000F003FB10F017
:102E3000010090F001000700002045F8080C206810
:102E4000002801D125600AE02068060056F8080C29
:102E5000002802D056F8086CF8E746F8085CFFB284
:102E6000002F01D000F0E2FAF1BD70B5040000259A
:102E700000F0E0FA10F0010090F001000600206878
:102E800000280AD02068050055F8080C20600020B2
:102E900045F8080CFF2005F8020CF6B2002E01D010
:102EA00000F0C4FA280070BD70B504000D0000F0F9
:102EB000C1FA10F0010090F001000600206845F80A
:102EC000080C2560F6B2002E01D000F0AFFA70BDFC
:102ED000F8B504000D00160000F0ACFA10F0010087
:102EE00090F0010007002068854203D155F8080CD6
:102EF000206003E055F8080C46F8080C002045F85F
:102F0000080CFF2005F8020CFFB2002F01D000F0E2
:102F10008DFAF1BD2DE9F84304000D0016005FF0B5
:102F2000000800F087FA10F0010090F001008146DF
:102F30002068002803D125600120804614E0206825
:102F40000700761E57F8080C002806D0F6B2002EAF
:102F500003D057F8087C761EF4E7F6B2002E03D0B3
:102F600047F8085C012080465FFA89F9B9F1000F43
:102F700001D000F05BFA4046C0B2BDE8F28370B504
:102F800004000D0077480078E4B2844218D200F0C3
:102F900051FA10F0010090F001000600734800683B
:102FA000E4B230F81400284370490968E4B221F80B
:102FB0001400F6B2002E01D000F038FA002000E034
:102FC000032070BD70B504000D0066480078E4B2BF
:102FD000844218D200F02EFA10F0010090F00100A7
:102FE000060062480068E4B230F81400A8435F4964
:102FF0000968E4B221F81400F6B2002E01D000F006
:1030000015FA002000E0032070BD10B50400E4B202
:10301000FF2C03D100F00AFA002000E0072010BDC9
:1030200010B50400E4B2FF2C03D100F003FA002035
:1030300000E0072010BD80B500F09EF800204A494E
:10304000086001F01FFD01F0A1FE01F0ABFE00F0F1
:10305000A9F8002002BD80B500F001F8FCE770B5CA
:10306000002401F035FF41480068E4B230F8140054
:10307000002805D1641C3B480078E4B28442F2D3B6
:1030800038480078E4B284423DD200F0D3F910F021
:10309000010090F00100060034480068E4B230F806
:1030A00014000500002031490968E4B221F8140039
:1030B000F6B2002E01D000F0B9F92D4804702900B5
:1030C00089B22000C0B22B4AE4B252F824209047C3
:1030D0000500FF202649087000F0ACF910F001004F
:1030E00090F00100060021480068E4B230F81400B6
:1030F00028431E490968E4B221F81400F6B2002EF4
:1031000001D000F093F970BD0170401C0A0A0270F2
:10311000401C0A0C0270401C0A0E0270401C7047D2
:103120000170401C0A0A0270401C0A0C0270401C0C
:10313000704710B40300002B01D100200FE00020E5
:103140000400E4B2D2B2944208D2E4B2E05CC9B264
:10315000884201D0002002E0641CF2E7012010BC8C
:1031600070470000F35D2200F4520020005300205D
:103170007C430020F45D220000207C4908807C48CC
:103180007C4908604FF427707A490968088048F242
:1031900004007749A1F89C0241F25C507449A1F8FF
:1031A000A002704738B5012000F01BF80500002D83
:1031B00001D100F011FF00F03DF910F0010090F096
:1031C00001000400281F6B490860280000F0A4F8E3
:1031D000012069490870E4B2002C01D000F026F902
:1031E00031BD2DE9F0410700002400263F1DBFB28C
:1031F0000421B7FBF1F000FB1170C0B2002802D02F
:10320000391DC0B20F1A00F015F910F0010090F04E
:103210000100050058480078002802D0BFB2112FE5
:1032200003D254480068804601E054488046D8F8EC
:103230000000C0F3C030002802D00020060020E0CB
:10324000F6B2002E12D02068C10BC903D8F80020B6
:1032500010184004400C0843206020684004400CD3
:1032600080B2BFB2B8420CD3A04618E0D8F8000034
:103270004004400C80B2BFB2B84210D20120060018
:103280004446D8F800004004400C10EB0808B8F899
:103290000000002802D10020804600E0C7E7B8F116
:1032A000000F28D0D8F800004004400CC01B80B2AA
:1032B000082808D3BFB217EB0801088057F4004272
:1032C000A8F8002005E0D8F8001051F40041C8F833
:1032D00000102949097800290BD026490968414581
:1032E00007D1D8F800104904490C11EB0801214A14
:1032F000116018F10408EDB2002D01D000F096F82D
:103300000420B8FBF0F101FB1081002901D000F08E
:1033100063FE4046BDE8F08170B50400251F1448E7
:10332000844202D31648844201D300F055FE286837
:10333000C0F3C030002801D100F04EFE00F07AF852
:1033400010F0010090F001000600286830F4004001
:10335000286008480068854201D206480560F6B238
:10336000002E01D000F062F870BD0000306C00202B
:10337000345400203476002000540020D45600201D
:10338000346C002038B504000D00207A297A884278
:1033900001D0002019E0207A002801D1002014E09B
:1033A000207A022808D120882988884201D101206A
:1033B00000E00020C0B208E0207A032804D12900F0
:1033C000200000F013F800E0002032BD38B5040002
:1033D0000D00287A2072207A032804D129002000C9
:1033E00000F01AF801E02888208031BD10B40200F6
:1033F00008200300DBB2002B0BD01000421C0C0095
:10340000611C00782478A04201D0002002E05B1EFD
:10341000F0E7012010BC704738B504000D00082209
:1034200029002000FFF7CCFB32BD000080B501F081
:1034300057FD02E080B501F04FFD00B10120C0B2A0
:1034400002BDF0B54F4C504A2568954209D0256819
:10345000002655F8267042F82670761C402EF8D3C8
:10346000226042F82010F0BD10B50FF23013820830
:1034700053F82220136800F00300C000FF248440AA
:10348000A34301FA00F01843106010BD3F4904281F
:1034900003D1086840F4803022E0052803D1086891
:1034A00040F400301CE0062803D1086840F4802076
:1034B00016E00F2805D13648016841F0020101608D
:1034C000704710280DD3A0F110010FF274124909B2
:1034D00052F821101038012200F01F0002FA00F00B
:1034E000086070472949042803D1086820F4803017
:1034F00022E0052803D1086820F400301CE00628EB
:1035000003D1086820F4802016E00F2805D1204858
:10351000016821F002010160704710280DD3A0F16D
:1035200010010FF23012490952F82110103801220F
:1035300000F01F0002FA00F00860704715490E28DD
:1035400003D1086840F0006014E00F2803D1086838
:1035500040F000700EE010280DD3A0F110010FF222
:103560000812490952F821101038012200F01F00FA
:1035700002FA00F0086070470748016841F0010155
:103580000160704708ED00E00040002024ED00E0FD
:1035900010E000E004ED00E098200D400000000085
:1035A00018ED00E01CED00E020ED00E000E400E09C
:1035B00004E400E008E400E00CE400E010E400E0D3
:1035C00014E400E018E400E01CE400E020E400E083
:1035D00024E400E028E400E02CE400E030E400E033
:1035E00034E400E038E400E03CE400E040E400E0E3
:1035F00044E400E048E400E04CE400E050E400E093
:1036000054E400E058E400E05CE400E060E400E042
:1036100064E400E068E400E06CE400E070E400E0F2
:1036200074E400E078E400E07CE400E080E400E0A2
:1036300084E400E088E400E08CE400E090E400E052
:1036400000E100E004E100E008E100E00CE100E05E
:1036500010E100E080E100E084E100E088E100E0CA
:103660008CE100E090E100E080E200E084E200E034
:1036700088E200E08CE200E090E200E080B500200B
:1036800001F0C8FD5FF47F0000F025F87FF008002E
:10369000524908605248006850F0080050490860DC
:1036A0007FF010004D4908604D48006850F0100050
:1036B0004B49086001BD80B54948006830F01000F2
:1036C000474908604648006830F0080044490860EF
:1036D000FFF7D4FF01BD38B5040001F04CFDA04256
:1036E00001D300F079FCFFF7A5FE10F0010090F087
:1036F000010005003B480460200001F00BFEEDB224
:10370000002D01D0FFF792FE31BD38B5FFF792FED4
:1037100010F0010090F00100040001F02CFD050004
:10372000E4B2002C01D0FFF781FE2E4800688542EC
:1037300001D3002000E0280032BD38B5FFF77AFE43
:1037400010F0010090F00100040001F03DFD0500C3
:10375000E4B2002C01D0FFF769FE224800688542E0
:1037600001D3002000E0280032BD38B504001D4818
:103770000068844201D300F02FFCFFF75BFE10F0DD
:10378000010090F00100050017480460200001F0DE
:103790007AFD01F0F0FC84420BD17FF010000F495C
:1037A0000860EDB2002D01D0FFF740FEFFF717F9DA
:1037B00004E0EDB2002D01D0FFF738FE31BD7047B7
:1037C00080B5FFF70CF901BD80B501F08CFEFFF765
:1037D0006FF901BD03480068704700000C8808407D
:1037E00008880840C0520020C45200202DE9F1434F
:1037F00082B002980578AD48EDB2285CADF80000C3
:10380000BDF80000002800F02481EDB20D2D1AD182
:1038100000A9532000F0FDFABDF800004FF6FE713C
:10382000884209D0BDF800004FF6FF71884203D0EE
:103830000298007A002803D102A8FEF790FA08E166
:103840000298040055E0EDB2052D08D1BDF8000046
:103850000299097C24310818ADF8000015E0EDB29A
:10386000072D12D102988078002805D1BDF80000FC
:103870001B30ADF8000008E0BDF800000299097A9D
:10388000242202FB0100ADF80000BDF80000FFF7A4
:10389000F4F90400002C25D1EDB20C2D21D10298B1
:1038A000406800281DD0FFF7C5FD10F0010090F022
:1038B000010006000298001DFEF751FABDF8000055
:1038C000FFF7DBF90400002C05D1F6B2002E01D081
:1038D000FFF7ACFDBDE0F6B2002E01D0FFF7A6FD6C
:1038E00000E0B6E07148EDB22A5C02992000FFF7D3
:1038F00067F9EDB2052D12D12422616814F1180088
:10390000FFF75EF914F118006060227C616960685D
:103910002430FFF755F960682430606127E0EDB28C
:10392000072D24D126006248006800281FD0604877
:10393000076800205E490860B078002808D116F1B9
:103940001000F0601B223900F068FFF739F90BE036
:1039500016F11000F060307A242101FB00F23900EA
:1039600016F11000FFF72CF93800FFF7D5FC51488D
:103970000068002805D020004E49096888470028C3
:103980005CD1EDB20D2D40D102984068007810F066
:103990000306029840680078C0F3830702984068E5
:1039A000407810F0E008F6B2022E0EDA4248807C31
:1039B000FFB2874209D15FFA88F8B8F1000F04D14D
:1039C000029890F82400022803D002A8FEF7C7F955
:1039D0003FE014F11C0919F11E0199F81F0000F0D5
:1039E00040F80298C08C4FF6FF71884221D10298AE
:1039F0004068807902281CDB200002F014F80028BF
:103A000002D002A8FEF7ABF923E0EDB20C2D10D1E5
:103A1000029840781A280CD026007068002808D038
:103A20007068807DC00704D516F10F01307C00F06E
:103A300018F8210021480078FFF74CF9EDB20C2D61
:103A400007D102984068002803D00298001DFEF7B5
:103A500086F9BDE8F78380B501F080FF02BD002044
:103A60007047174A1278002A1ED00A78C0B232284E
:103A700002DA3223180004E0C0B26F2801DB6E23A3
:103A800018000F4B1B78012B08D192B2C0B2B0F1D5
:103A900032035A433C2392FBF3F2FFE792B2FF2A30
:103AA00001DDFF22FFE70A7070470000146022006A
:103AB0006C53002070530020084B0020C25300209C
:103AC0002B5400200B208E490870FF208D49087070
:103AD000FF208D490870FF208C490870704780B521
:103AE00000F0FDF800F034F901BD80B501F002FBF3
:103AF00002BD87490968C0B2002801D0012200E058
:103B0000002231F00201D2B251EA4201804A116032
:103B1000704780B2C1B27F4A116080B2010A89B297
:103B20007D4A1160704780B2C1B27C4A116080B298
:103B3000010A89B27A4A1160704710B50400082260
:103B40002100784801F0CAFF10BD70B50400764E20
:103B500096F9000040B264B2A04202DA3078040064
:103B600007E064B296F9010040B2844201DA70784D
:103B70000400FFF75FFC10F0010090F00100050069
:103B8000FF2061490870EDB2002D01D0FFF74EFC17
:103B900000F003F82000C0B270BD10B5FFF74AFC7A
:103BA00010F0010090F001000400574800785749D8
:103BB000097888420FD05D48007800280BD15C4816
:103BC0000078000607D450480078504908704F48E4
:103BD000007858490860E4B2002C01D0FFF726FCB9
:103BE00010BD38B50400E4B20B2C02DBE4B21D2C8E
:103BF00001DB00F0F1F9FFF71DFC10F0010090F07F
:103C0000010005003E48047049480078002801D1B1
:103C100000F006F8EDB2002D01D0FFF707FC31BD32
:103C200010B543480078002801D000F0D5F9FFF71F
:103C300001FC10F0010090F0010004003048007811
:103C400030490978884216D02D4800782D490870EF
:103C5000E4B2002C01D0FFF7E9FB00F04AFE29484E
:103C60000078052148432C383349086001F0C3FF30
:103C700000F0F3FD04E0E4B2002C01D0FFF7D6FB26
:103C800010BD10B504002D480078002801D000F0C8
:103C9000A3F92B480078002801D000F09DF9E4B288
:103CA000002C03D101202649087017E0E4B2032C50
:103CB00003D103202249087010E0E4B2012C04D0A3
:103CC000E4B2022C01D000F087F902201C490870F0
:103CD000FF2010490860FF200F49086010BD002038
:103CE00017490870174890F82600C0B209490860C3
:103CF0001448C08C80B2000A80B20749086070473F
:103D0000DD530020DC530020DE530020DB53002075
:103D100000860840C8850840CC850840D08508400A
:103D2000D4850840A88508401C5E2200E15300208D
:103D3000EC530020408608403C8608407943002030
:103D4000E05300207C4A002080B501F0ABFB01BDB0
:103D500038B501F0B2FB49380400200040B200F051
:103D600004F805002800C0B232BD010049B211F1CB
:103D7000570F03DA7FF05602110004E049B20B2915
:103D800001DB0A22110049B211F15702FF235A4305
:103D9000612392FBF3F21000C0B2704738B5040003
:103DA0000D00200040B2FFF7E0FF32BD00B589B042
:103DB0002022844900A8FEF703FF834883498C2210
:103DC00002F04AFC202200A97E48FEF7F9FEFFF728
:103DD0008CFE7D4981F82200FFF787FE7A4908753D
:103DE00009B000BD0100C9B2402906DBC9B25E2995
:103DF00003DAB1F14000C0B20AE0C9B2E02906DB43
:103E0000C9B2F02903DA11F13E00C0B200E02E2061
:103E10007047F8B504000D002000C0B2FFF7E2FFC4
:103E20000600C0B22E2801D1F4201AE0FFF702FBF1
:103E300010F0010090F0010007006548F6B210EBA9
:103E40008600427860486249F6B211F826100918D7
:103E50002800FEF7B5FEFFB2002F01D0FFF7E6FA0B
:103E60000020F2BDF8B504000D00E4B2452C03D1EA
:103E7000554885600020A3E02000C0B2FFF7B2FFE4
:103E80000600C0B22E2801D1F42099E05048F6B2C5
:103E900010EB86008078002806D14D48F6B210EB72
:103EA0008600C07800282CD04948F6B210EB860076
:103EB00080784749F6B211EB8601C978884201D172
:103EC000FB207DE0E4B2582C09D128888F2804DB40
:103ED000288846F2B141884201DBE82070E028786A
:103EE0003B49F6B211EB86018978884207D33848FE
:103EF000F6B210EB8600C0782978884201D2E8201B
:103F00005EE0FFF797FA10F0010090F00100070063
:103F10002F48F6B210EB8600427829002A482C4B35
:103F2000F6B213F826301818FEF74AFEFFB2002F3B
:103F300001D0FFF77BFAE4B2200050280ED05228BF
:103F400016D053280FD0E02829D0E1281DD0E22830
:103F500021D0E52829D0E6282CD030E01A48C08CA2
:103F6000FFF7D7FD2BE01848408DFFF7DCFD26E07A
:103F7000154890F82900002803D0022000F0FDFB2E
:103F800002E0022000F02DFC19E00F4890F83A0002
:103F9000FFF727FE13E00F48FFF7CFFD0FE00A48B9
:103FA00090F83900FFF7D1FD09E02878064981F83B
:103FB000480004E02878044981F84900FFE7002020
:103FC000F2BD0000E84A00207C4A0020805C22000C
:103FD000705A2200B84A002080B500F001F801BDF7
:103FE000F0B583B0FFF726FA5FF400109A49086035
:103FF00002F018FC994800680003FBD50820984996
:104000000860FFF7B9FA02F0B7FB02F087FB02F095
:104010004FFB02F0DFFB0121924802F0D0FC0221AD
:10402000904802F0CCFC04218E4802F0C8FC082124
:104030008C4802F0C4FC002201218A4802F0AAFC4C
:1040400000220221874802F0A5FC002204218548B5
:1040500002F0A0FC00220821824802F09BFC102103
:10406000814802F0ACFC002210217F4802F092FC53
:1040700020217D4802F093FC00220121794802F0C2
:1040800089FC00220221774802F084FC00220421EE
:10409000744802F07FFC00220821724802F07AFC8A
:1040A00000200400002000900098B0F5503F03D29B
:1040B0000098401C0090F7E701216A4802F066FC76
:1040C000C243D2B20121674802F064FC0221654874
:1040D00002F05CFCC243D2B20221624802F05AFCF8
:1040E0000421604802F052FCC243D2B204215D4870
:1040F00002F050FC08215B4802F048FCC243D2B2F7
:104100000821584802F046FC58480078002803D09F
:104110000020564908709EE00821554802F036FC00
:10412000002801D1641C01E000200400E4B20A2C44
:10413000B8D1002201214B4802F02CFC00220221C0
:10414000484802F027FC00220421464802F022FCE5
:1041500000220821434802F01DFC00200500B5F5AF
:10416000FA7F09DA0821424802F010FC002801D148
:10417000002005006D1CF2E700200500002006006D
:10418000F6B2042E61DA0821394802F0FFFB00285C
:10419000F9D101220121334802F0FCFB0222022165
:1041A000304802F0F7FB042204212E4802F0F2FB13
:1041B000EDB2002D05D1082208212A4802F0EAFBC1
:1041C00004E000220821274802F0E4FB0020070059
:1041D000B7F5FA7F09DA0821254802F0D7FB002855
:1041E00001D1002007007F1CF2E7002201211D48B9
:1041F00002F0D0FB002202211A4802F0CBFB002281
:104200000421184802F0C6FB00220821154802F0DC
:10421000C1FB01A8F6B2305C0121D5F10702914043
:10422000084205D0012201210E4802F0B3FB04E050
:10423000002201210B4802F0ADFB6D1CEDB2082DF0
:104240009ED100200500761C9AE700220121054836
:1042500002F0A0FB24E7F7BD08ED00E004200D40CC
:1042600008300D4000B00D4000A00D40C9530020A3
:1042700000900D4010B5FFF7DDF810F0010090F050
:104280000104E4B2002C01D0FFF7D0F82000C0B246
:1042900010BD80B500F02AFEFFF714FC00F066FAAE
:1042A00001F056FC00F032F8FFF7E8F901BD80B5E7
:1042B000FFF7E0FF002801D0FFF78EFE06480078E8
:1042C000002803D101F08CFCFFF709FCFFF7F3F99C
:1042D00002F0FAFB01BD00007943002010B582B066
:1042E0000400E4B2E72C0FDBE4B2EF2C0CDA00A9F7
:1042F0002000C0B2FFF78DFD0098401C009000A97F
:104300002000C0B2FFF7AEFD13BD00000020DFF8B3
:10431000201408700020DFF81C140870704770B576
:104320000400DFF80C040078002801D0FFF754FEE9
:104330000120DFF8FC130870DFF8FC030078002888
:1043400003D01D2000F0CFF99FE0DFF8F0030470E8
:10435000DFF8E8030078022802D102F04EFD40E0C9
:10436000DFF8D8030078002806D0DFF8D003007803
:10437000012801D0FFF730FE0020DFF8C4130870D9
:10438000DFF8C0030068807D400607D5DFF8B8037A
:1043900090F84600DFF8B413087006E0DFF8A803D1
:1043A00090F82500DFF8A4130870DFF89003007878
:1043B000002814D1DFF89003C07800280FD0DFF870
:1043C0008C030078032804DB0220DFF880130870D8
:1043D00005E0DFF878030078DFF87013087000F06C
:1043E00055F8DFF85003007800282CD1DFF854038B
:1043F0000068002801D1FFF7EFFDDFF848030068EF
:104400004068007810F02000DFF844130870DFF8EF
:104410003403006840688078DFF838130870DFF8EC
:1044200024030068007A0600C64800684068401E01
:104430000500B01C2870EE20C7490860711CC9B285
:10444000280001F05FFBFEF7F5FF10F0010090F08F
:1044500001000500C148007800280ED1C04800784E
:1044600000280AD18320B2490870EDB2002D01D096
:10447000FEF7DCFF00F020F807E00220AC490870EE
:10448000EDB2002D01D0FEF7D1FF70BD80B5FFF772
:104490002CFB0121AD4A92F900209140491E0840B1
:1044A000B0490870A5480078002802D102F056FCF7
:1044B00001E002F00FFC01BD80B5AB480068400888
:1044C0004000A94908600020A54908709B48007871
:1044D000022802D102F0ADFC01E000F001F801BDBC
:1044E00080B59648007800280DD1FCF7B5FC9D49B1
:1044F0000978C0B2814203D31C2000F0F4F804E034
:1045000002F062FC01E002F05FFC01BD80B5012019
:1045100088490870ED20FFF7E1FE88480078FFF732
:10452000FEFE01BD10B58D480078002803D18C48EF
:104530000078002801D0FFF74FFDFEF77BFF10F059
:10454000010090F0010004007948007802280AD1A7
:10455000832077490870E4B2002C01D0FEF766FF93
:10456000FFF7AAFF04E0E4B2002C01D0FEF75EFFE3
:1045700010BD80B571480078002805D06F480078DC
:10458000012801D0FFF728FD04206949087000F0D8
:1045900078F96B480078401C694908706A4890F8BF
:1045A000240067490978884203D2E12000F09BF893
:1045B00019E066480078401C634991F83110884240
:1045C00005DA62480078401C6049087004E05E48E3
:1045D00090F831005D490870FFF758FF8320544977
:1045E0000870FFF77DFF01BD10B5FEF723FF10F047
:1045F000010090F0010004004D48007883281AD192
:104600005348007800280BD1852049490870E4B24E
:10461000002C01D0FEF70AFF002000F064F80FE044
:1046200086204349087002F05FFCE4B2002C01D000
:10463000FEF7FCFE04E0E4B2002C01D0FEF7F6FE2B
:1046400010BD70B504000D00FEF7F4FE10F001007F
:1046500090F0010006003648007886281DD187209A
:104660003349087002F0A5FCF6B2002E01D0FEF727
:10467000DDFE38480078E4B284420AD1EDB2002D64
:1046800003D01B2000F02FF80CE0002000F02BF8E6
:1046900008E0E92000F027F804E0F6B2002E01D08F
:1046A000FEF7C4FE70BD10B5FEF7C4FE10F00100A9
:1046B00090F0010004001E48007886280DD1872064
:1046C0001B49087002F075FCE4B2002C01D0FEF723
:1046D000ADFEE92000F007F804E0E4B2002C01D0C0
:1046E000FEF7A4FE10BD10B50400002011490870AB
:1046F00000200F49087000F0C4F8FFF74EFAFFF7EA
:104700008FFA2000C0B2FCF711FC10BD80B50D4837
:104710000068002801D1FFF75FFCFFF70EF8094998
:104720000968C86000F00AFD06490968088201BDF1
:10473000EC530020F353002079430020ED53002078
:10474000F05300205C4100207C4A0020EE53002002
:10475000F2530020F153002038880840DF53002036
:10476000E1530020EF530020908608400020794953
:104770000870002078490870704738B50400E4B22A
:10478000002C01D1FFF728FCFEF754FE10F00100C9
:1047900090F0010005006F48007820436D490870D3
:1047A00000F08FF8EDB2002D01D0FEF73FFE31BDD5
:1047B00038B50400E4B2002C01D1FFF70DFCFEF780
:1047C00039FE10F0010090F001000500614800780A
:1047D000204360490870EDB2002D01D0FEF726FE9F
:1047E00031BD38B50400E4B2002C01D1FFF7F4FB71
:1047F000FEF720FE10F0010090F001000500554882
:10480000007894F0FF01084052490870EDB2002D85
:1048100001D0FEF70BFE00F034F831BD10B5FEF705
:1048200009FE10F0010090F0010004000020494949
:104830000870002048490870EF2048490860ED20C2
:1048400046490860ED2045490860E4B2002C01D0DB
:10485000FEF7ECFD01F0CFF910BD10B5FEF7EAFD53
:1048600010F0010090F0010004003A4800780028A0
:1048700001D000F026F8E4B2002C01D0FEF7D6FDFE
:1048800010BD10B5FEF7D6FD10F0010090F001004C
:1048900004003048007800280DD131480078000627
:1048A00009D430480078002805D12F480078000648
:1048B00001D400F01EF8E4B2002C01D0FEF7B6FDE2
:1048C00010BD10B5FEF7B6FD10F0010090F001002C
:1048D000040021480078002805D101201E490870F5
:1048E000E3201E490860E4B2002C01D0FEF79EFDD3
:1048F00010BD38B5FEF79EFD10F0010090F00100EC
:1049000004001548007800281ED0002012490870C5
:10491000EF2012490860ED2010490860ED200F4992
:104920000860FEF787FD10F0010090F0010005001F
:104930002A20FEF703FE7FF004000C490860EDB268
:10494000002D01D0FEF772FDE4B2002C01D0FEF77D
:104950006DFD31BDEB530020EA530020388808403C
:10496000DF530020E1530020EC530020348808403E
:1049700062F30F2262F31F42401810F0030308D0C5
:10498000C91A1FD3DB0748BF00F8012D28BF20F844
:10499000022D130030B414461546103928BF20E903
:1049A0003C00FAD8490728BF20E90C0048BF40F86E
:1049B000042D890028BF20F8022D48BF00F8012DE2
:1049C00030BC7047C91818BF00F8012DCB0728BFAD
:1049D00000F8012D7047E80310B50400E4B2002C84
:1049E00007D1FF20FEF71CFB0021002002F05FFB37
:1049F0000EE000201F4908701E480078002801D0F2
:104A0000012000E000200FF25501C0B202F04FFB80
:104A100010BD010018480078FF2803D11648017026
:104A2000012000E00020704770B504000D0012481E
:104A30000078FF2810D00420FEF71FF90600002E92
:104A400008D0C0203070B570F47031000A4800788A
:104A5000FEF740F9002000E0012070BD70B50400B1
:104A60000D0000263100C9B22000C0B2FFF7DCFF04
:104A7000002870BDFF5300207B43002080B500F06C
:104A800048FB02BD0020BF49086070472DE9F04196
:104A900004000D001600290089B22000C0B200F009
:104AA00032F88046B8F1000F03D0C8F804604046E1
:104AB00027E01020FEF795FB8046B8F1000F1FD0CD
:104AC00088F80A40A8F80850C8F804600020C8F820
:104AD00000000020C8F80C00AB480068002803D193
:104AE000A948C0F8008009E0A748006807003868B6
:104AF000002801D03F68FAE7C7F80080404600E090
:104B00000020BDE8F08102009F4B1B6818000028C0
:104B100009D0038989B28B4203D1837AD2B29342FE
:104B200001D00068F3E77047002801D0002101811F
:104B300070472DE9F04104000D001600FEF77AFCE5
:104B400010F0010090F0010007003200290089B246
:104B50002000C0B2FFF79AFF8046FFB2002F01D0BD
:104B6000FEF764FCB8F1000F01D0002000E008203F
:104B7000C0B2BDE8F0812DE9F04104000D0016003F
:104B8000FEF758FC10F0010090F001000700320021
:104B9000290089B22000C0B2FFF778FF8046B8F143
:104BA000000F01D0C8F80C60FFB2002F01D0FEF753
:104BB0003DFCB8F1000F01D0002000E00820C0B299
:104BC000BDE8F081F8B504000D00FEF733FC10F0ED
:104BD000010090F001000600290089B22000C0B257
:104BE000FFF791FF0700002F02D03800FFF79CFF6E
:104BF000F6B2002E01D0FEF719FC002F01D00020E4
:104C000000E00620C0B2F2BD2DE9F04104000D0025
:104C10000027FEF70FFC10F0010090F001000600E5
:104C2000290089B22000C0B2FFF76DFF8046B8F1BD
:104C3000000F02D0D8F804000700F6B2002E01D011
:104C4000FEF7F4FB3800BDE8F0812DE9F04182B0B9
:104C500004000094FEF7EEFB10F0010090F001005C
:104C6000050048480068201846490860EDB2002D4C
:104C700001D0FEF7DBFB4448006800287BD04248A7
:104C80000068060000200700002E74D05FF00008C6
:104C9000FEF7D0FB10F0010090F001000500BDF818
:104CA000020000281AD19DF80100002816D13079A1
:104CB0009DF80010884205D330799DF80010401A05
:104CC000307116E000987168884204D270680099CB
:104CD000401A70600DE0002070600AE00098716872
:104CE000884204D270680099401A706001E0002088
:104CF0007060B08800280ED1F08800280BD1F068D1
:104D0000002808D03089002805D03189B07AFEF714
:104D100036F9F0687060B088002802D1F088002869
:104D200002D0308900280AD1002F03D130681649FB
:104D3000086001E030683860B046366801E037004E
:104D40003668EDB2002D01D0FEF770FBB8F1000F10
:104D50009AD0B8F80400002809D1B8F80600002855
:104D600005D1B8F8081098F80A00FEF708F940468F
:104D7000FEF7D2FA88E7BDE8F38102480068704781
:104D8000000000000C5300200853002000200449BC
:104D90008871002002490880704701498871704776
:104DA0004C52002010B500242348007880B2400007
:104DB00080B2FEF716FA214908601F4800784200C9
:104DC00000211E480068FDF71FFF2000C0B2FCF75D
:104DD0003DFF641C2000C0B202F0ECF9641C00200E
:104DE00003F0E7FE2000C0B200F02AF8641C2000A7
:104DF000C0B204F0F9F8641C2000C0B204F0D4F989
:104E0000641C2000C0B204F099FD641C2000C0B2F4
:104E100005F0A4F8641C2000C0B206F0E1FA641C9E
:104E20002000C0B206F0C6FD641C2000C0B208F02D
:104E30004FFD641C10BD00BFF35D22000053002035
:104E400021490870704780B508F0A8FE08F0D4FE2C
:104E500008F0DCFE09F044FA02F0FEF801BD70B57E
:104E600004000E00300413D517480078FDF774FFD6
:104E70000500002D08D02800FDF718FF1248007823
:104E8000FDF76AFF0500F4E796F4004080B21AE0EF
:104E9000B00605D508F075FF96F0200080B212E04C
:104EA000F0060FD502F048F908480078002805D12F
:104EB0006422102104480078FFF73BFE96F01000B2
:104EC00080B200E0002070BDCA530020CD53002006
:104ED00080B509F011FA01BDEFF3108072B670478A
:104EE000EFF3108062B6704740BF704770B588B06E
:104EF0001420DFF8301608603F20DFF82C16086019
:104F00005520DFF828160860FC20DFF8241608601A
:104F10008520DFF8201608600120DFF81C160860E5
:104F20001520DFF8181608600020DFF81416086056
:104F30001020DFF8101608600E20DFF80C1608604D
:104F40000320DFF8081608600920DFF8041608605F
:104F50000B2004210860FF20DFF8F815086080218D
:104F60002A20FEF781FA80212B20FEF77DFA2A20E5
:104F7000FEF78CFA2B20FEF789FA80213120FEF70C
:104F800073FADFF8D4050068000CDFF8D01508606C
:104F9000FEF750FA10F0010090F00100040002202A
:104FA000DFF8BC1508600020DFF8B815086028207D
:104FB000DFF8B4150860E4B2002C01D0FEF736FA31
:104FC000DFF8A80500680003FAD5DFF8A40500683B
:104FD00050F00300DFF898150860DFF894050068CA
:104FE0004007FAD5DFF88805006850F00A00DFF8BE
:104FF000801508603120FEF749FA4820DFF8741563
:105000000860FFF75EFCDFF870050068C007FAD59E
:105010000022110000221000C0B2102809DA89B263
:10502000DFF85825126812F0010252EA4101401CD3
:10503000F2E789B2002903D089B2B1F5607F02D1CD
:105040004BF6BE22110089B2CAB2DFF834351A60BD
:1050500089B2090A89B2DFF828251160DFF8C01487
:10506000096800291ED000200500EDB2202D14DAB9
:10507000002000210E00F6B2082E09DAC0B240006E
:10508000DFF8F814096811F001010843761CF2E713
:1050900000A9EDB268546D1CE7E700A8DFF88014A2
:1050A00009688847FFF725FC4020DFF8C81408602E
:1050B000DFF8C004006850F02000DFF8B814086082
:1050C0000020DFF8C01408600020DFF8BC1408607E
:1050D0000020DFF8B81408600020DFF8B41408607E
:1050E0000020DFF8B01408600020DFF8AC1408607E
:1050F00008B070BDDFF8A404006830F00C0050F078
:105100000400DFF898140860DFF894040068C0B267
:105110007047DFF88814096831F00C0151F0040180
:10512000DFF878241160DFF87814096809020800B4
:10513000DFF84C140968081880B2704738B5FEF7DC
:1051400079F910F0010090F0010005000120DFF86E
:1051500010140860DFF81004006800020400DFF893
:10516000040400680443EDB2002D01D0FEF75EF99F
:10517000200080B232BD10B582B0FEF75BF910F0AE
:10518000010090F0010004000020DFF8D413086053
:10519000DFF8D0030068DFF80C0400688DF8000029
:1051A000DFF8040400688DF80100DFF800040068EF
:1051B0008DF8020000208DF80300E4B2002C01D02D
:1051C000FEF734F9009816BD10B582B0FEF732F93B
:1051D00010F0010090F0010004001020DFF88013AF
:1051E0000860DFF8C00300688DF80000DFF8B8033E
:1051F00000688DF80100DFF8B40300688DF8020044
:1052000000208DF80300E4B2002C01D0FEF70EF967
:10521000009816BD11B581B00198000E002801D08C
:10522000FEF7DAFEFFF7A7FFDFF8841309684018DE
:10523000DFF87C130860DFF8780300680199401AF2
:10524000DFF86C130860FEF7F5F810F0010090F03D
:10525000010004000020DFF8081308609DF8040036
:10526000DFF8401308609DF80500DFF83C13086084
:105270009DF80600DFF834130860E4B2002C01D07A
:10528000FEF7D4F813BD31B500250098000E0028B4
:1052900001D0FEF7A1FEFEF7CDF810F0010090F06E
:1052A00001000400DFF80C030068C00609D50120E6
:1052B0000500DFF80003006830F01000DFF8F4129A
:1052C00008603020DFF8981208609DF80000DFF8D1
:1052D000D41208609DF80100DFF8CC1208609DF838
:1052E0000200DFF8C81208607FF01000DFF8C81273
:1052F0000860EDB2002D07D0DFF8B802006850F06A
:105300001000DFF8B0120860E4B2002C01D0FEF704
:105310008DF831BD31B500250098000E002801D070
:10532000FEF75AFEFEF786F810F0010090F001003B
:105330000400DFF880020068000709D5012005009D
:10534000DFF87002006830F00800DFF868120860CB
:105350002020834908609DF80000DFF848120860AB
:105360009DF80100DFF8401208609DF80200DFF8A8
:105370003C120860DFF84002006830F00800DFF8F7
:1053800038120860EDB2002D05D08A48006850F050
:10539000080088490860E4B2002C01D0FEF746F806
:1053A00031BD38B5834800680400834800680500B3
:1053B000EDB2E4B214EA0500C00605D5FEF700FA26
:1053C0007FF010007C490860EDB2E4B214EA0500F9
:1053D000000706D5FEF7F8F97FF008007649086067
:1053E0000BE0EDB2E4B214EA0500C00705D500F009
:1053F0006EF87FF001007049086031BD10B570484B
:10540000006804002A20FEF799F86E480068E4B2AC
:105410002040000706D57FF008006A49086001F0C7
:10542000D5FD1AE067480068E4B22040C00606D502
:105430007FF010006349086001F0D2FD0DE0614883
:105440000068E4B22040C00707D55D480068400806
:1054500040005B49086001F024F85B4800680400E4
:105460005A480068E4B22040400709D500F020FC0B
:105470007FF0040055490860554800684006F5D49F
:1054800010BD10B553480068040053480068E4B2EA
:105490002040400705D57FF004004F49086001F027
:1054A00063F810BD7FF07F004C49087041480068E8
:1054B00050F001003F49086070473E4800684008CE
:1054C00040003C490860454890F900007047444955
:1054D00009680800414991F9001040B2814201DA9F
:1054E0003E490870704710B5FDF7A4FF10F00100A9
:1054F00090F00100040031480078002807D1FEF741
:1055000069F92B49096840182949086002E0002020
:105510002A490870E4B2002C01D0FDF787FF10BDC6
:10552000D0520020A4860840AC860840B0860840CF
:1055300058860840A0860840B8860840C8860840BB
:1055400008860840D4860840D8860840DC86084093
:10555000E887084094870840F80F2800C8520020C8
:1055600010880840148808401888084004200D401E
:105570000488084024860840648608409C860840C9
:1055800014700D4090850840948508409885084027
:105590009C850840A0850840A485084000700D4007
:1055A00018700D4024880840208808401C88084056
:1055B000CC520020088808400C880840DA530020AC
:1055C00090860840308808408C860840348808401F
:1055D0004C860840948608402C880840D953002007
:1055E00060860840DFF8C81400200860704780B566
:1055F00003F083F978B9DFF8B804006800E0406888
:1056000048B1417B0129FAD1016800291CBFBDE8DE
:10561000024001F07CBF01BDDFF89414096800204E
:105620000A4604E0537B042B08BF401C5268002A42
:10563000F8D1DFF880241278C0B282420BD3002068
:1056400001E04968401C0029FBD1DFF86C1409789F
:10565000C0B2814201D201207047002070472DE97D
:10566000F0410746DFF8482416680C46397B0025D0
:1056700000E07668002E1CBF327B8A42F9D14FF0E1
:105680000108FEB97A89386800F0CAF8060031D0FE
:105690003581387C307407F1100009F0CFFD70615E
:1056A0004FF67F41388B3083012570890840708127
:1056B00041074FBF40F08000DFF80014097840EA4E
:1056C000C11070817089C10901F00701A4B10222E3
:1056D00072733268927B520703D5DFF8E423128A93
:1056E000328161B34FF67F421040491E40EAC1103B
:1056F000708124E0A84632E011B94FF000081EE0A6
:10570000810605D5FDF7B5FA00F07F005F3008E0AF
:10571000C00605D5FDF7ADFA00F00F000A3000E035
:1057200001203081042070732021DFF89843207815
:10573000FFF76AFA18B920782021FDF720FC75B12F
:105740003289717B304600F07EF840B1706908B153
:10575000FDF7E2FD3046FDF7DFFD4FF00008404663
:10576000BDE8F08170B5DFF848432268014684B097
:10577000002000E05268002A3DD0137B8B42F9D113
:10578000517B062937D110685589007A8DF80800B9
:1057900010680088ADF80000104600F0F4F8280505
:1057A00028D5BDF80010002000F027F810BBDFF866
:1057B0001053A98C00A80BF02BFB246800E0646850
:1057C00014B160890005FAD54FF6FF767CB12068E8
:1057D0000188B1420ED0A98C0BF011FB1A2809D018
:1057E0006468002CF2D060890005F9D5EEE700204E
:1057F0000BF017FB012004B070BD18B9DFF8B00240
:10580000006800E0406840B142891205FAD50029DD
:105810001EBF026812888A42F4D170470120704787
:1058200070B504460D4616461C20FDF7DAFC48B15B
:10583000002141730573468101818173C173046046
:105840004161416070BD38B5002843D0012910D1B5
:10585000974C2468002304E0657B012D08BF5B1C86
:105860006468002CF8D1984C2478DBB29C4216D2A4
:1058700011E0042911D18E4C2468002304E0657BDB
:10588000042D08BF5B1C6468002CF8D1894C247877
:10589000DBB29C4203D2112032BD02291AD14173DE
:1058A00002810021416082490A6832B100E00A4663
:1058B00051680029FBD1506000E00860814C2078DD
:1058C0002021FFF7A1F918B920782021FDF757FB17
:1058D000002032BDC12032BD10B97548006800E01B
:1058E000406838B1437B8B42FAD11AB103689B7B85
:1058F0005B07F5D470476E49096800E0496821B13B
:105900000A7B8242FAD108467047002070476849F6
:10591000096800E0496861B10A6813888342F9D1D7
:10592000126A1378527803EB0222D205F2D40846A9
:10593000704700207047F8B5044600260D46200049
:105940000AD05B48076800E07F682FB129463846D7
:10595000A0470128F8D13E463046F2BD00207047EE
:1059600053490A6813464FF0000C01E09C465B68FF
:1059700043B18342FAD15868934201D1086070471D
:10598000CCF80400704710B5040011D0FFF7E8FF11
:105990002068006AFDF7C0FC2068FDF7BDFC606967
:1059A00008B1FDF7B9FC2046BDE81040FDF7B4BCD6
:1059B00010BD38B501683E4A0988126800230024EA
:1059C00009E0557B052D01BF641C15682D888D42AB
:1059D00008BF5B1C5268002AF3D13C490978DBB24E
:1059E0008B423FBF3A490978E4B28C422EBF012175
:1059F0003349098A01814FF6FF72052141734189BC
:105A000041F40061418100680188914205D02C4930
:105A1000898C0BF0F4F91A2804D1BDE8324001203A
:105A20000BF0FFB931BD10B550B150F8081C00297A
:105A300002BFA0F108018A79FF2A03D0FDF736F9E9
:105A4000052010BD1F4C22788A7122490A78014630
:105A50002148FDF75FFA012806D120784FF4005164
:105A6000FDF78DFA002010BD042010BD70B5FDF7C4
:105A7000E1FC194D2E6800F0010080F001048EB1A8
:105A8000104856F8081C007800294FF4005102D045
:105A9000FDF775FA01E0FDF795FA00223146284638
:105AA000FDF716FA0CB1FDF7C1FC304670BD0000E1
:105AB000A45300209279210093792100864300208D
:105AC000084B0020C253002083742100BFF0210046
:105AD00042342200AA4A2200A8530020D2B2002A4F
