:020000040020DA
:100000008C6500209D212200D1212200D3212200D5
:10001000D5212200D5212200D52122000000000098
:10002000000000000000000000000000D5212200B8
:10003000D521220000000000D5212200E11A220073
:10004000CD212200D5212200CD212200D521220060
:1000500000000000D5212200D5212200D521220058
:10006000D521220000000000000000000000000078
:100070000000000000000000D52122000000000068
:100080000000000000000000D5212200D521220040
:10009000D5212200D5212200D5212200D521220000
:1000A000D5212200D521220069492000CF49200016
:1000B000D5212200D5212200D5212200D5212200E0
:1000C000E122220021492000D5212200D521220051
:1000D000D521220000000000000000000000000008
:1000E0000000000000000000000000000000000010
:1000F000D521220000000000D5212200D5212200B8
:1001000010B592480FF2C161DA4C41650FF601015A
:1001100081650FF28151E1620FF22D5121630FF6DB
:10012000350161630FF66901A1630FF60501E16313
:100130000FF2BD3121640FF2BD5141640FF2116124
:1001400081640FF28151C1640FF6B9010165206924
:1001500008B102F0AEFBDFF83C0C0B49A0600B22AB
:10016000082020730020206181F8200020750021E4
:1001700004F1150002F0E8FB04F12000BDE8104096
:100180000B22002102F0E0BB184400203EB50446DB
:10019000201D05214182032101740168491E01606F
:1001A0004A1E026094F83A200A7094F83A1011B18D
:1001B0004FF6FF71818601684A1E0260828E120A24
:1001C0000A700268818E11700179C91C017168463C
:1001D00004F12F0102F0E8FD03208DF808006A46C3
:1001E000DFF8B40BC38C0321204601F0EBFC0500C3
:1001F00004BF204600F0C4FE28463EBD38B5044684
:100200000D466068411E100A087001F8012C049820
:1002100001F8020CDFF8800B428D120A01F8032C62
:10022000408D01F8040C180A01F8050C01F8063D90
:10023000207A626861601018401A2072DFF8501C42
:10024000287A03280CBF01200020E0820B2209201D
:10025000207504F1240002F05FFB4FF6FF732A467D
:100260000321204601F0AEFC050004BF204600F04B
:1002700087FE284632BDDFF81C1C897A0829A8BFF2
:10028000072101700078C006000E70472DE9F04785
:1002900005460F46924602F08FFDDFF8F88BD8F83E
:1002A000004000F00100002680F0010913E0607EAC
:1002B000400613D560684178C1F3810103290DD14F
:1002C000ED1F411D284602F06FFD103654F8084C12
:1002D0006D1EF6B27F1EF8B220B101E054F8084C52
:1002E000002CE4D1B9F1000F18BF02F061FD02F05B
:1002F00063FD00F00100D8F8001080F001000BE071
:10030000927905F80129761C4A68527905F8012985
:10031000F6B27F1E51F8081C89B14A685378C3F3BE
:100320008103022BF6D14B7E5B06E9D40A7E92064E
:10033000F0D501228AF80020FAB2002AEAD108B1E9
:1003400002F036FD2E70681EBDE8F087984400204C
:100350002DE9F04385B0044600208DF80000884662
:1003600091460DF10100FFF786FFDFF82C5A297B3B
:10037000401800F14106F6B2304602F015FB0700C6
:1003800049D0B8197860002038722A7B78685142C9
:100390004618A968304602F0BFFA9DF801106A4677
:1003A000701EFFF773FF0021964A0170127869787A
:1003B000920142EAC11141EA091141F00F0100F82E
:1003C000011C44EA081100F8021D7A68397A786045
:1003D0005118091A00203972F88238758DF80C000E
:1003E0000B22DFF8DC1C07F1240002F095FA9DF8DF
:1003F000000018B1F88A40F00800F88201F083FB91
:100400000146002301AA384601F0DCFB00283846EB
:1004100002D002F0DBFA002005B0BDE8F083F8B5A9
:10042000044602F0C9FC00F0010080F00105DFF88D
:10043000640A076800260EE0787E000609D5616828
:10044000786801F06AFB20B1787E00F0BF00787612
:100450003E4657F8087C002FEED11EB1707E40F06A
:1004600040007076002D1CBFBDE8F14002F0A0BC3A
:10047000F1BD0000B87500202DE9F843804689469B
:1004800002F09AFC00F0010080F00107DFF8040A96
:100490000668002400250CE0354605F11800417877
:1004A00041F010014170017841F08001017056F86F
:1004B000086C9EB1707E0006F9D5726849464046C8
:1004C00001F047FB0028F2D0002DE5D0287D01285F
:1004D00004D16868017841F0100101700FB102F099
:1004E00067FC15B100F0D8FC01242046BDE8F2837A
:1004F0002DE9F04182B00024009402F05DFC00F090
:100500004BF880F001050EE057F8088C224639467A
:10051000304602F027FB3946684602F0E0FAB07A2E
:10052000401E4746B07267B1787E000605D5788ACE
:10053000401E788280B20028E6D03C4657F8087CFE
:10054000F1E70DB102F034FCB07AB0B100F02AF856
:100550001EBFDFF84C0C90F8200000280DD1DFF80A
:100560001C4D204602F0E1F83021204602F0C4F88C
:1005700003E06070204600F0E2FB684602F0CBFA30
:10058000040007D0FFF74BFF607E40074CBFE92017
:10059000F020EEE7BDE8F381DFF8386C376800F053
:1005A00001007047DFF8F007407B0F28704700001C
:1005B00070B50546FFF733FFDFF8D848DFF8D86796
:1005C000A06C80470128F08D08BF401C6882A07A8B
:1005D000002804BF707B0F2808D1DFF8A05C2846F4
:1005E00002F0A3F83021284602F086F802F0E4FB7E
:1005F000A17A491CA172002804BFBDE8704002F036
:10060000D7BB70BDD474002038B50446DFF8C45B96
:10061000607E00F0EF0060762046FFF700FF214685
:10062000284602F091FA02F0C7FBA97A491CA97288
:1006300008B902F0BDFBFFF7B5FF04D1BDE83240B9
:10064000082001F0ABB831BD10B50446DFF848070B
:10065000407886B0B8B101208DF8000004F11C018B
:1006600000F014F80DF1020002F09EFB60680078C3
:100670008DF80A0004F10F010DF10B0001F0F8FBF9
:10068000684602F0BDFC06B010BD000000208DF8E9
:100690000100704710B50446FFF778FDDC2818BF4D
:1006A000DD2808D0E42818BFF32804D0DE281CBFBA
:1006B000DF28DB2805D101462046BDE8104001F0C7
:1006C00075B810BD10B586B0044606208DF8000040
:1006D00004F11C010DF1020002F066FB04F10F01B0
:1006E0000DF10A0001F0C4FB684602F089FC06B077
:1006F00010BD000030B5044604F1380585B0A87877
:1007000020B304F12F0101A802F04EFB03208DF865
:100710000C007E48017D0388009101A92A882046AB
:10072000FFF76CFDDC2818BFDD280BD0E42818BFCC
:10073000F32807D0DE2818BFDF2803D0E82818BF29
:10074000DB2803D10146204601F030F805B030BD6A
:100750002DE9F843044602F02FFBDFF8786A37688A
:1007600000F001004FF00008E72580F0010902E0E9
:10077000B84657F8087C97B1787E0006F8D5387DE2
:10078000012802BF97F83D0021798842F0D1424606
:100790003946304602F0E6F9B07A401EB072B9F13F
:1007A000000F18BF02F004FB3FB13846FFF737FED9
:1007B000F021384600F0FAFF002529462046BDE822
:1007C000F44300F0F3BF000030B5044685B0607814
:1007D000F32818BFDF281ED0E82818BFDB281AD05E
:1007E000204600F029F8050014D1207C90B104F1D6
:1007F0001101092000F08FF960B100F011F8FFF746
:10080000FDFC0546F32D18BFDF2D03D0E82D18BFE2
:10081000DB2D03D16570204600F07AF805B030BDBD
:1008200002218DF80C104FF6FF72ADF80420A17A6A
:10083000009101A92389704738B504460025A07AA4
:100840000B381328207B28BFE8251028A8BFE825EF
:1008500001DA0F2804D07D49097A090758BFE82535
:10086000617B884202D20F2918BFE825DFF82805EE
:10087000408D4FF6FF71884208BFEC25242001F01F
:10088000ABFFDFF8F819086120B12422211D02F026
:1008900043F800E01A25284632BD70B50446DFF85B
:1008A000F804217ADFF8586CC51CA972617A80F8C7
:1008B0002C10E07A2870A07A307002F0F1FC3078C9
:1008C00038B1211D502002F013FEA11DE12002F0DD
:1008D0000FFEDFF8CC18012081F8200004F10D0193
:1008E000A87ADFF8145D0F2814BF012000202875B6
:1008F0000B2205F1150002F00FF804F1180105F1C3
:100900002000BDE870400B2202F006B8D272002031
:1009100010B50446607820B9DFF8DC0C0069FFF7F9
:10092000BCFF2C2020702046BDE8104000F08FBF97
:1009300010B5DFF8C41C0446086918B100220A612A
:1009400001F0B7FF082020702046BDE8104002F0FB
:1009500057BB0000DFF82419DFF84408097D90F840
:10096000200081F00101084200D1704780B5DFF816
:10097000280490F82C10C31C1A78987AFFF7E8FC2A
:1009800000281CBFBDE8024000F0FABA01BD00001B
:1009900030B5054689B0A87B012440071ED5E98EF5
:1009A00005F11C00FFF768FDC0B9DFF8D40C4079F1
:1009B00008B1002412E00B2205F10F0106A801F096
:1009C000ABFF01F0A0F806A9019105F11C0230214E
:1009D00000910146EB8E012001F0A2F910208DF864
:1009E000080005F11C010DF10A0002F0C6F9E88EBD
:1009F000ADF814008DF8164002A802F001FB09B012
:100A000030BD0000DFF8F80A0078002818BF01F0B8
:100A10006BBB70470D4800F154010162DFF8641CA4
:100A2000416200F1440181620FF224010164DFF8A8
:100A3000581C0166DFF8541C8167DFF86C1DC16724
:100A4000018941F0020101817047000098440020B3
:100A5000030471040204600411047004020402041B
:100A60000104020410046104000414046304730408
:100A70007204620443040004130406040004000426
:100A8000040412040004000400040004510464007F
:100A900000040004000444040004000400040004F2
:100AA0006504000435048104640005040004830423
:100AB0000004000002460146032000F017BF014673
:100AC000082000F0EDBE0FF26D2010B5DFF80447EE
:100AD000606482B00FF24D20A06404E0204602F072
:100AE0001AF800F014F820680028F7D1606828B1DF
:100AF000201D02F010F800F00AF8F7E72060A0725D
:100B0000E07220730FF2D950E06213BD0000009034
:100B1000684600F09DBF38B504460FF23C00055D05
:100B2000284601F041FF20B14119416000210172C6
:100B300032BD022001F038FF50B10FF2C051095D03
:100B400001701A214170014600F0CCFE01F04DFF0A
:100B5000002032BD0000000000464A4C4449494391
:100B600039513A00821DC907D2B210D50A2192FB31
:100B7000F1F10A2303FB1121C9B241B10A32521A21
:100B8000D2B20529A4BF0A32D2B20B32D2B2132894
:100B9000ACBF142006208018C0B209300A2190FB97
:100BA000F1F0C0B2704780B5DFF8F00C007A800732
:100BB00004D502F02BFB10B1012002BD002002BDC4
:100BC000DFF8D80C007A80070CD5B248807A38B9A3
:100BD000DFF8CC05C06F28B1407E10F0800002D055
:100BE0000120704700207047AA49DFF8942A097B4A
:100BF0009278914238BF01F0D7BE0020704780B58F
:100C000000F026FF002002BD31B5007BA14C20B1D1
:100C1000012823D0032823D037E05F4D687B0F28BD
:100C200005D000F00DFE10B90098E16B88470099DF
:100C300095F83A008873142000990870201D0099D7
:100C400001F04DFF02F0B8F8217B491C217308B96F
:100C500002F0AEF8202000F0A1FD31BD1520EBE739
:100C60000098007A88B100984168491C416011F8E9
:100C7000010D009948730098C07D00280098407BC2
:100C800006D0010001D00A2815DBFFF741FF31BD76
:100C900001000AD00A2808DA009A0FF24843127AB3
:100CA000191811F8011C8A4205D0082802BF0098C3
:100CB000007A0828E9D100980099007A401E08724D
:100CC00000980099407B0A30087000980099407B9A
:100CD000401C4873B2E7DFF8FC04C06C010018BF89
:100CE000004700207047000038B5044604F11400A6
:100CF0000121017004F13C014A88C38C42800A79C9
:100D0000C2714A790272CA79027304F13002097819
:100D1000204600F057FF050004BF204600F030F9E0
:100D2000284632BD80B500F08BFD002814BF20207E
:100D3000012002BD417E41F001014176704710B5AE
:100D4000017D027E012903D1130701D441787DE1A1
:100D50005406DFF8803404D54078196CBDE81040A3
:100D60000847012903D1120748BF30210BD442782C
:100D70001B2A08BF222106D0002A0CBF0FF27032B6
:100D80000FF27832515C01700146BDE81040187CCA
:100D900001F02BBE9D172000AC72002070B5DFF86B
:100DA00000440646E06F002871D03100DFF8345D62
:100DB00004D01B2E05D1017D052952D000214170A0
:100DC00051E0E92E2DD1807E30B902F021FA18B120
:100DD000E06F807D40072DD5EE2002F0DBFCE06F58
:100DE000817E0A003ED0827D520705D4491E81765D
:100DF000BDE8704002F094BD017E01F07F010176F4
:100E0000E06F017D032903D1417E41F00401417669
:100E1000ED2002F0BFFCDFF8841AE06FC96F88474D
:100E200024E0E12E15D102F0F3F9D0B1E06F807D1E
:100E3000400716D4E16FA87C8876E16F496828786E
:100E400088702878401C28700120BDE8704002F0AE
:100E5000BABC1C2E05D10F49096D88470020E067F8
:100E600070BDE06F4670E06FFFF769FFE06F807D57
:100E7000000605D5287E02F060FAE87D02F029FA26
:100E80000020E0671020BDE8704000F087BC70BD16
:100E9000CD750020307400202DE9F04101F08CFF69
:100EA00000F00100BE4C80F00108E06F0025002832
:100EB00045D1C84EB06C8047376840F0100002E062
:100EC0003D4657F8087CD7B3797E01408142F7D17F
:100ED0002A463946304601F045FEE767787E00062F
:100EE00034D4F07A401EF072B8F1000F18BF01F050
:100EF0005FFFE56FE98A287AFFF734FE3081A87D2D
:100F0000000606D5E87E02F018FAE06F007F02F0D6
:100F1000E0F9E06F30F8161FC90525D531890A00C0
:100F20001AD0827A130017D092FBF1F1C172E06FF0
:100F300010F8081F1329ACBF022100210AE0B8F104
:100F4000000F1BD0BDE8F04101F032BFB07A401E67
:100F5000B072C9E7817605E00121C1720120E16F1D
:100F600081F82200032005E08078400800F00100AD
:100F700080F00100BDE8F04102F025BCBDE8F08141
:100F800038B5044600F05CFD217EDFF8F406090761
:100F900004D4217D012908BF027800D042788D4D0C
:100FA0002146284601F0FBFDD0B1696C20468847F8
:100FB000A07D40070DD401F0FFFEE97A491CE972DB
:100FC00008B901F0F5FEE08AC0050FD4BDE8314054
:100FD00062E72046BDE83440DFF8C018896F084753
:100FE000F12060702046BDE83240A8E631BD53E7ED
:100FF00010B5DFF8A8180A8904460020930704F109
:10100000380103D48B795B0748BFE82060231A427C
:1010100003D18A79920748BFE820DFF8A42B237A0E
:1010200092799A420A7938BFE820002A02BF0978EB
:101030000029F52006D0010004BF2046FFF754FE2A
:10104000010002D00146204600E010BDBDE810407E
:10105000ACE30D21017001F0D3BF38B50446002088
:1010600020706070DFF81816E08F0978594D42073C
:1010700007D4EA7A8A4207D3F1212046BDE83440FA
:1010800094E3AA7A8A42F7D2C10510D594F84210A7
:10109000052912DB052108420FD105F1240001F0DA
:1010A00044FB94F8421005F1240001F025FB287C54
:1010B0002146BDE8344001F098BCE821DDE700009E
:1010C000D875002010B5044604F15C0080B201F030
:1010D0006BFC18B100F15C010472416010BD0000AE
:1010E000DAE6000002040201010101090200000029
:1010F000303016181920231A1C1E300030301718F3
:101100001921301B1D1F3000DFF8100C0FF2711178
:10111000016000220FF29D3141600FF2E911816000
:101120000FF21D21C1600FF2293101610FF2E1219F
:1011300041610FF2B92181610FF2C931C1610FF232
:10114000114101620FF2614141620FF295418162EA
:101150000FF22121C1620FF2F10101630FF2D501FB
:1011600041630FF2E12181630FF25D41C163DFF85A
:10117000401D01640FF2854141640FF2D941816441
:10118000DFF8300D00F15C010A70CA7002220FF224
:101190000D6140F83C1F016102710121017570472A
:1011A0001844002000B585B002228DF800208DF88B
:1011B000010008B14FF6FF71ADF802100B22DFF805
:1011C000F81C01A801F0A8FB684601F019FF05B062
:1011D00000BD00003074002080B50A228DF80100A7
:1011E0008DF800208DF80210684601F009FF01BD5E
:1011F0003EB50446251D0120688204F1320102201B
:101200002874684601F0B9FD28682B8F401E2860BD
:101210006A4694F83E10017083212879401C287199
:10122000204600F0CFFC050004BF2046FFF7A8FED3
:1012300028463EBDDFF80C0D90F8350030214143C3
:10124000DFF8040D01F058BA30B5DFF8F84C607BD8
:101250000F2893B006D02E208DF80000684600F0CD
:10126000F6FA09E000F0E8F8608E1421B0FBF1F125
:1012700005F1340001F040FA13B030BDB87500201C
:1012800038B504466078010032D104F13205297A7C
:1012900002291CBF0329E82094F82F100B391329C9
:1012A00013D2010024D104F12F01E12002F020F932
:1012B00004F13C01502002F01BF9297ADFF8840C7C
:1012C000022904D12988018408E0E82012E04FF6C1
:1012D000FE7101841630294601F066FD0B2204F1EF
:1012E0002401DFF8D40B01F017FB2046FFF780FF45
:1012F000010006D06070172020702046BDE8324003
:10130000A5E231BD10B5DFF8AC4B94F85F0086B0B4
:10131000A0B9012084F85F0002F007FC02A800F0E9
:10132000E3FB04F15400019002AA01200090032184
:10133000DFF8100CC38C052000F0F2FC06B010BDE5
:1013400010B500F0F7F82078202804BFEB2060707B
:1013500000F0AAF844BF01F0FB0180F85F1000F034
:10136000E5F800D5EAE02A2020702046BDE81040CC
:101370006DE2000070B5044682B0012002F0E3FB8C
:1013800000F05AF805F1440001F0CFF900F027F819
:10139000ADF8000060688678300008D169465320B7
:1013A00002F0A6F804F11C014A2002F0A1F80B2279
:1013B00004F10F0105F1540001F0AEFABDF8001080
:1013C0003046FFF7EFFE95F85F00800703D56078A1
:1013D0000021FFF701FF002085F85F0073BD606802
:1013E0000178407801EB00207047000010B50446FA
:1013F000EB206070DFF8540C90F85F00800703D595
:101400000021EB20FFF7E8FE4FEA0400BDE81040A2
:1014100038B500F08FF800F00FF805F1440001F046
:1014200084F905F15C0000210170C1704FF6FF7175
:101430006078BDE83440B5E6DFF8105C05F13400B3
:1014400001F073B910B50446FFF7D0FFC2E0000009
:1014500010B500F06FF8207A002814BF0020EB20B0
:1014600000F021F844BF01F0FB0180F85F1000F0AC
:101470005DF80BD501F0FD0180F85F1000F08EF8EB
:10148000ACBF01210021FFF7A7FE08E0C80706D581
:101490002A202070EB206070204600F0D8F920460A
:1014A000BDE81040D5E56070DFF8A00B90F85F1044
:1014B0004A0770471CB50446DFF8900B90F85F10A0
:1014C00041F0020180F85F10012002F02EFB6078ED
:1014D00068B900F018FB04F110010191221D0121EF
:1014E00000910146E389052000F01AFC60706078E5
:1014F000010003D0BDE81C4000216DE613BD0000D3
:10150000D474002010B500F015F82078202804BF0E
:10151000EB206070FFF7C8FF44BF01F0FB0180F8CB
:101520005F1000F003F800D508E010BD90F85F10E0
:101530008A0770470446012002F005BB01F0FD0157
:1015400080F85F1000216078BDE8104044E600009C
:1015500038B5FFF7EFFFFFF76FFF207A002814BFC1
:101560000020EB20607095F85F00410744BF00F059
:10157000FB0085F85F0095F85F0081070AD500F051
:10158000FD0085F85F0000F009F8ACBF01210021E3
:10159000FFF722FE2046BDE832405AE5A07B00F06E
:1015A000100001286078704710B5FFF7C3FFEB20EB
:1015B000FFF779FF44BF01F0FB0180F85F10FFF7F0
:1015C000B5FF00D5BAE710BD10B500F010F8204601
:1015D000FFF7EAFF2046BDE8104000F011BD000013
:1015E00010B500F004F82046BDE81040DCE70446E2
:1015F000DFF8EC0B01F099B8B875002010B504467F
:1016000086B004F11C01DFF8DC0B01F09FFBF0B1A8
:1016100009208DF80000EF208DF80100FFF7DFFEB4
:10162000ADF8020004F10F01606800798DF8040044
:10163000207A082806BF6068C07900208DF8050070
:101640000DF1060000F014FC684601F0D9FC06B06C
:1016500010BD000000F048BD9048DFF8C016816161
:101660003831C1610FF2280141630FF288018163B3
:10167000DFF84C1CC165018941F00101018170470F
:10168000D0222200E475002001012000B1052000D5
:10169000010171010101010111010101310101018A
:1016A00001018001100161013B001400630173011D
:1016B0007201620143010001130106013D01350081
:1016C00004011201000100010001000104010401F4
:1016D000330133013C0144013201360000010001B5
:1016E00065010001350081010001050182018301CE
:1016F0000001000003027102300160021102700259
:101700000102020202028002100261023A0041005C
:101710006302730272026202430200021302380083
:101720000002000204021202000200020002000293
:1017300004020402370037003C0244020002390070
:101740000002000265020002350281020002050269
:101750008202830200020000024601460220C5E028
:10176000014606209CE010B54C4C206882B010B1B8
:10177000204600F06DF90020A072DFF83C0C0068F4
:1017800050B102E0684600F063F900F0ABF801F0F8
:101790005AF900280090F5D113BD00000146DFF88A
:1017A0001C0C007C01F01CBA0906200000B585B0B5
:1017B00003780FF28002D25C8DF800200B2A03D14F
:1017C000417000F07BFB32E08AB30C2A2AD11A293F
:1017D00002D10020019025E0019090F83D208DF885
:1017E0000220C2680292028AADF80C20827DD206E5
:1017F00048BF002205D4DFF84C27837E92F83420BE
:10180000D21A8DF80E20427F8DF80F20827F8DF83E
:101810001020C27F8DF81120C08AC00544BF11205E
:101820008DF800008DF80110684601F0E9FB05B065
:1018300000BD00000C0E020B040B0A0708000F008D
:101840001648807A03280CBF01200020704710B58D
:1018500012498A7A037801EB820203F07F03126B4C
:10186000037002EB43035B7801EB8304246B04B148
:101870008B72037812F81320130901EB8301C968F6
:10188000002904BFBDE8104000F0F9BA920002F050
:101890003C028958BDE810400847000098440020E9
:1018A000B0B504460FF2980082B0005D0D4601F01D
:1018B0007BF807000FD03C700020787029460FF2AB
:1018C0008C00025D381D01F027F800F00BF8394656
:1018D00001F08BF8B3BD8DF800401A216846FFF780
:1018E00065FFB3BDDFF8D40A007C7047F8B5074642
:1018F0000FF24C00C55D0C46284601F055F8060075
:1019000015D037700020707021467019706000206B
:1019100030720FF23800C25D06F1240000F0FCFFC7
:10192000FFF7E0FF314601F060F80020F2BD8DF8CE
:1019300000701A216846FFF739FF1A20F2BD000037
:1019400000055957515C1C202807020000011C1893
:101950001A18181C24030000DFF8601A0874704776
:10196000F8B50C46A006DFF8545CDFF8506A16D4D0
:101970001AE001F021FA317B491E317308B901F0F8
:1019800017FA38788DF800006F603846FFF75FFF70
:101990009DF8000015281CBF281D00F059F8301DC7
:1019A00001F0B9F80700E4D1200406D40AE0686029
:1019B000FFF74DFF281D00F04BF8307C01F043F895
:1019C0000028F4D1E00602D52D2000F035F8E0071C
:1019D00002D5242000F030F8A00702D5252000F021
:1019E0002BF8600702D5262000F026F8200702D544
:1019F000282000F021F8600604D5FEF747FE2C20D1
:101A000000F01AF8200604D5FEF740FE2F2000F063
:101A100013F8286870B101F0CFF92C680021296013
:101A200008B901F0C5F96C602046FFF710FF281DCA
:101A300000F00EF80020F2BD8DF80000684606E7C1
:101A4000DFF8781B4A68824204BF00204860704774
:101A500038B5040008BF02F00FF901F0ADF900F04D
:101A60000100216880F0010561B1DFF8502B536857
:101A7000A1F108008B4204BF0021516000212160C8
:101A800000F017FF002D1CBFBDE8314001F090B9F8
:101A900031BDDFF8100C0FF2E13181600FF2ED3152
:101AA000C1600FF2ED310161DFF8FC1B41610FF203
:101AB0000D418161DFF8F41BC161DFF8381C016260
:101AC0000FF21971C1630FF2994101640FF2F141F4
:101AD00041640FF28D5181640FF22551C1640021E0
:101AE00001707047CE720020DFF858140A8C4FF650
:101AF000FE739A4204BF163101F03FB9022202720E
:101B0000098C01807047DFF83C04408D4FF6FE7170
:101B10008842ACBF03200220704742784B78C2F362
:101B20008102C3F381039A4211D1022A09D1427979
:101B30004B799A4202BF80798979884207D1012086
:101B40007047032A03D1491D401D01F01FB9002031
:101B5000704738B55478034600201D7AC4F38104D9
:101B6000AC421AD1022C10D1547995791B8804EB20
:101B70000524A4B2A34210D1D378127903EB022238
:101B800092B2914209D1012032BD032C05D1511DE1
:101B9000BDE83440184601F0F9B832BD017ADFF8EB
:101BA000A423022906D1118C008881420CBF012098
:101BB00000207047014602F1160001F0C7B800008E
:101BC000D02222002DE9F84F044690469A46002282
:101BD000DFF8940B98F8087001F07F0600F1140507
:101BE0000B06A17D4CBF4FF6FF79B5F81290890620
:101BF0004CBF08210021217600F13403A17D490763
:101C00004CBF802110216176A17DC9064CBF002107
:101C10001978A176E18A5FEAC17C48BF20220907D2
:101C2000616894F814C048BF42F01002491EBCF12C
:101C3000020F09DBBCF10B0F1CBFACF1010C01F86A
:101C400001C942F0030201E04CEA02025B7D012B74
:101C500004D1237A672BA8BF42F4805242EA86322D
:101C6000022E1FFA82FB07D1E88A000A0870E88A70
:101C700001F8010C891E0AE0032E08D1C91F00914A
:101C800000F13C01009801F08FF80098411E5EB110
:101C900027B1D14508BF4BF0400B05D04FEA2920B2
:101CA000087001F8019C891E4BEA8720022F1FFA59
:101CB00080F909D1B8F80000000A01F80109B8F864
:101CC000000001F8010907E0032F05D1CE1F4146AE
:101CD000304601F069F8711E2FB14FEA1A200870E2
:101CE00001F801AC891E227D481E1AB92A78531CBE
:101CF0002B7002E0AA7B531CAB730A704FEA1921C8
:101D0000017000F8019D217A626860605118091A1B
:101D1000217200206070BDE8F28F00002475002061
:101D20002DE9F047099F8A46044690469946394670
:101D3000FEF7F1FE1A2605001AD00898E8822C75E5
:101D40000B22394605F1240000F0E6FD4B464246E1
:101D500051462846FFF736FF060009D1E41F012C43
:101D600003D8687E40F0200068762846FFF708F91F
:101D70003046BDE8F08770B584B0044604F13C06F7
:101D80000120717801B10520251D04F13001688220
:101D900004202874684600F0F0FF2868EB8E401E8F
:101DA00028606A463178017003212879401C287127
:101DB0002046FFF707FF050004BF2046FFF7E0F8C5
:101DC000284604B070BDF8B504460E4605202070C4
:101DD00006F13A07351DF878A0706068E96A41613C
:101DE00006F11C0100F0C9FF6068698E41813978F5
:101DF0004174002160680176C17306F10F016068CB
:101E0000193000F035F86168A87A8873286862682C
:101E100001789181437841EA032191818178C01C46
:101E2000CB0918BF0123137411F0070201F0070159
:101E300018BF012201EB41015118C9B2084410F842
:101E4000011B2172E060217A4A00490802F00E026B
:101E500001F0380189180844606129792A6853180B
:101E6000834227BF081A1018002020722074F1BD89
:101E70000B2200F051BD00007047182196E4017854
:101E80000B29B8BFFFF7F9BF7047000019218DE497
:101E900038B5DFF8D8580446286820B1FFF7F6FFB8
:101EA0002846FFF7D5FD2046FFF7CAFD2C6031BD5F
:101EB0006924200078730020CC73002030B50446DC
:101EC00089B020781F4D032808D0052808D018288D
:101ED00004D01E2818BF1F2802D00FE0002000E009
:101EE00001208DF8180004F12F0103A800F05CFF19
:101EF00003208DF8140000F029F812E002208DF87C
:101F0000180004F11C0103A800F04EFF03208DF817
:101F1000140004F10F0100F019F80DF11900FFF79A
:101F2000A7FF0B208DF8000004F10F0160788DF8F9
:101F300001000DF11900FFF79BFF684601F060F802
:101F400009B030BDAC720020BC730020688DADF8C4
:101F5000020002208DF80A00E88CADF816007047E8
:101F600038B504466578280014D1DFF8FC17608F77
:101F7000C98C884218BFE82504F13000FFF70EFE37
:101F800090B1002084F83D00280003D12046FFF7DF
:101F9000F2FE0546280006D0657019202070204604
:101FA000BDE8324053E431BDDFF8C41794F83D007A
:101FB00091F8201080F001000843E5D1E825EBE717
:101FC00010B586B004218DF8041041788DF8051005
:101FD000418FADF8101000F130010DF1060000F056
:101FE000CCFE0DF10600FFF7D9FD20B100F030F86E
:101FF000DFF87407048401A801F002F806B010BDF0
:1020000010B588B0044603208DF8040004F11C01CB
:102010000DF1060000F0C8FE606800788DF80E0033
:1020200004F10F010DF10F00FFF722FF04F11C0076
:10203000FFF7B4FD20B100F00BF8DFF82C070484A3
:1020400001A800F0DDFF08B010BD0000787300208B
:102050004FF6FF74ADF800406946532001F048BACE
:1020600070B5054692B06868DFF8FC664078B41C2D
:10207000400609D5A08CE98E884205D1DFF82406F8
:102080000078D0B100F030F808A80390294602A8E3
:10209000FFF799FE2B208DF8080002A8FFF7D7FB69
:1020A000207810B19DF8180028B105208DF808009F
:1020B00002A800F0A5FF12B070BD96F8300000280D
:1020C000E2D005F11C00FFF769FD0028DCD105F125
:1020D0000F0001900120009006F11602A38C03214D
:1020E0000620FFF71DFEE6E700B585B009208DF854
:1020F0000000EE208DF80100684600F081FF05B079
:1021000000BDF8B5054600F057FE00F03BF80DB1F4
:1021100001F0B2F9DFF8505601F01FFB05F1260778
:10212000DFF88065387D01F008F9F87C01F0D1F81E
:10213000307801F0B5F8388801F0BDF8B88801F0C2
:10214000BCF805F13C0001F0BFF80027DFF81C06E1
:1021500000EB8700C06D010018BF80477F1C072F70
:10216000F4DB00F0F3F9FFF7FEFA00203071FEF720
:10217000AAFCFFF78EFC00F00AF80CB100F018FE84
:102180000020F2BD00F0010080F00104704705F16D
:102190002901522001F0ACB9DFF808050FF2650102
:1021A000416200F108020FF2493181620FF2793188
:1021B000C1620FF2111101630FF2052141630FF2A9
:1021C000B1118163DFF8A415CA6000F13C0224302C
:1021D00048610A610020088101F0B0BA7047000030
:1021E000AC730020C2720020072202700A7A82704B
:1021F0008A7AC2704A68426000220272C969C1606C
:102200007047000070B5DFF86C5504466E1C002066
:102210003070207A0628A4BFE8203070607A0F283A
:1022200004DB207A032804D0E8203070207A0328C9
:1022300006D1DFF88803007AC0075CBFE820307061
:1022400021462846FFF7D0FF616805F11800890A8A
:1022500081600B22617A0173E17A4173217B817382
:10226000617BC173A17B01740A214174DFF8F8140A
:1022700091F83A108174DFF80015016004210171B2
:1022800005F12B0004F10F0100F046FB3078002827
:1022900004BF607800280CD1707801001CBFEA21CF
:1022A000317001F08FF826202070042001F029FC05
:1022B00001E0292020702046BDE87040FFF7C7BA32
:1022C00009112000F0B5DFF8AC64751C044668788D
:1022D00085B006F10C0760B9787F0A2809D001F0B3
:1022E000B1F839687A7F114401F80B0CE879401C89
:1022F000E8717869797F40087861491CC00779776F
:1023000002D4C9B21E29F4DBC9B21E292CD006F1B1
:102310002901E12001F0ECF802208DF810004FF6C1
:10232000FF736878ADF80830010018BF022803D1A8
:10233000204600F01DF819E006F12B020128019259
:1023400007BF08208021072083210022009202AAD3
:10235000FFF7E6FCDB2818BFE52804D0F3281CBFF4
:10236000DF28E82802D1287000F0BDF805B0F0BDE4
:1023700038B5DFF80044626804F124000121437994
:1023800001FA03F39A4362603023A278032A04D14E
:10239000DFF8D40390F8350003E0007801FA00F08C
:1023A000401C03FB00F50AB901F04AF8294604F184
:1023B0001000BDE834409FE1187A002030740020FE
:1023C0002DE9F041DFF8AC737D1C80466878022867
:1023D0001CBF0128052890B03BD100202870CDF803
:1023E00028D0414609A8FFF7EEFC0C37EE79797E3C
:1023F0008E421BD23C680BE06089BDF80A1088420F
:1024000004D16946204600F0A1FC78B9761E243438
:10241000F0B20028F0D1EB793868242253436946A2
:10242000184400F079FAE879401CE871DFF83803C5
:10243000807820B19DF8340008B9787E10B909A8D9
:1024400000F0DEFD787E01000BD0E979814208D1F1
:1024500001E0E8202870292088F800004046FFF7B6
:10246000F6F910B0BDE8F08170B5044604F124001F
:1024700082B00178DFF8FC52032904BF807A032878
:102480002CD104F11C014A2001F032F86068017877
:10249000427801EB0221ADF80010861C69465020FD
:1024A00001F026F83078717800EB0120ADF80000DB
:1024B00069464B2001F01CF8B61C3146E12001F0C2
:1024C00017F8701C0178407801EB0020ADF800008F
:1024D0006946532001F00CF8002000E0E820687005
:1024E00000F001F873BD292020702046FFF7AFB936
:1024F00010B5DFF8804204F1100000F016F900F08A
:102500007EFF042001F01FFBA078032804BF607841
:10251000002804D004F12A01E12000F0E9FF204660
:10252000BDE8104000F06CBD00B585B001466846BE
:10253000FFF75AFEFC208DF80100684600F060FDB0
:1025400005B000BD01460720FFF7AAB98B4800215E
:10255000016041604FF47F018160C1600021016131
:10256000704710B5854C00202061206868B1406834
:10257000A168884209DA01F0BAFB21684A68824200
:10258000B8BF02464A6020682061606838B121699E
:1025900019B1426849688A4203DA206101E0206982
:1025A00040B12069A16840688842BCBFBDE81040C6
:1025B00001F0C1BBBDE8104001F0E4BB984400202D
:1025C000F8B500F0F9FB00F001006C4D80F001045B
:1025D000286918B3A9684068814203DA01F04CFB0E
:1025E0002869D8B101F083FB29694968884215D36D
:1025F000002948BF01F040FB2E69304600F095F8F5
:10260000377BB6680CB100F0D3FB3846B04700F01A
:10261000D3FB00F0010080F00104E1E7002C1CBFB7
:10262000BDE8F14000F0C4BBF1BD38B504460D462D
:102630000EE052496868096920188D4202D10028CD
:1026400048BF00206860002848BF01F015FB2D68D6
:10265000002DEED131BD70B500F0AEFBFFF792FD5D
:10266000464DA8686E6829684042FFF7DEFF06E025
:10267000A86871688142A4BF081A70603668002E8D
:10268000F6D1E868A96881421CBFA86001F018FB78
:10269000FFF767FF002C1CBFBDE8704000F088BB4F
:1026A00070BD0000D4740020F10F2000EF0F200057
:1026B00070B504460D4600F07FFB00F0010080F08D
:1026C00001062968284601E00846096819B16268D0
:1026D0004B689A42F8DA046021602868A04208BF7B
:1026E000FFF73FFF002E1CBFBDE8704000F060BB4D
:1026F00070BD00005310200038B504460D4601F0AF
:10270000F6FA401960602046BDE834401B49CFE727
:102710000A6801E011461A462AB113688242F9D1CB
:102720000B60012070470020704770B5044600F030
:1027300043FB00F0010080F00105104E31462046B9
:10274000FFF7E6FF18B9311D2046FFF7E1FF3069BA
:10275000844208BFFFF705FF002D1CBFBDE8704095
:1027600000F026BB70BD0000AC7200209844002031
:10277000184400206C7600209D172000184500208A
:10278000614841F2FC7200218152604908604FF4B7
:1027900027710180084448F20401018041F25C5134
:1027A0008180704738B5012000F016F8040008BF9A
:1027B00001F062FA00F000FB05465449201F086052
:1027C000204600F076F85249012008701DB9BDE896
:1027D000314000F0EDBA31BD2DE9F8430024002668
:1027E000071D17F003001CBF391D0F1A00F0E4FA93
:1027F000474B46491B780A6800F001001D0080F035
:10280000010002D0BFB2112F01D2154600E0414DA8
:10281000D5F800E0CEF3C03CBCF1000F18BF002695
:1028200024D1BFB2E6B1D4F80080C6444FEAD8390B
:10283000CEF30E0E4EEAC93EC4F800E0CEF30E0E03
:10284000BE4513DB25464DB32C68C4F30E06F61BBC
:10285000B6B2082E16D3EE5347F400442C8014E091
:10286000CEF30E04BC42EEDA01262C46D5F800C0A9
:10287000CCF30E0C6544B5F800C0BCF1000FC7D115
:1028800000250BE044F400442C6033B1AA4204D18B
:102890002A68C2F30E022A440A602D1D08B100F016
:1028A00087FA15F0030018BF01F0E6F92846BDE8E5
:1028B000F28310B514498842044604D34FF4C05241
:1028C0001144884201D301F0D7F954F8040CC0F345
:1028D000C03008B901F0D0F900F06EFA54F8041CC9
:1028E0000A4A21F4004144F8041C211F136800F037
:1028F0000100994280F0010038BF116018B1BDE8B5
:10290000104000F055BA10BD8C4500208C670020A7
:10291000B97A00202C48002003E011F8013B00F8B0
:10292000013B13465A1E002BF7D1704710B51346D2
:102930005A1E3BB110F8013B11F8014BA342F6D0EF
:10294000002010BD012010BD10B5044610460A46F7
:102950000146204601F02AFA204610BD0178407851
:1029600001EB002080B270470278022903D1407841
:1029700002EB00207047032906D14178807802EBF2
:10298000012101EB00407047042909D1417802EB95
:1029900001218278C07801EB024101EB00607047B1
:1029A0001046704701F06EBA10B5040001D1002046
:1029B00010BD04F1080080B2FFF70EFF28B100211E
:1029C00001608480FF218171083010BD80B508B995
:1029D000052002BD10F8021CFF2901D0042002BD11
:1029E0000838FFF766FF002002BD0022FFE710B5A0
:1029F0000446080012D0DFF840331B789C4203D312
:102A0000FFF7E4FF032010BDA0F108010B68002BC5
:102A100004BF8B79FF2B03D0FFF7D8FF052010BD33
:102A20008C71012ADFF814330146184602D100F0F8
:102A30008BF801E000F053F84FF40041204600F01D
:102A4000CFF8002010BD2DE9F041804600F0B4F928
:102A500000F00100DFF8E46280F001073068002533
:102A6000002403E004B9054650F8080C68B110F8DA
:102A7000021C4145F6D1002C08BF0446F4D04FF4A7
:102A80000041404600F0ACF805E04FF400414046FC
:102A900000F0B2F824B12A462146304600F062F830
:102AA0000FB100F085F92046BDE8F08170B500F067
:102AB0002EF8A2490E6800F0010080F0010001E04C
:102AC00056F8086C36B116F8021CA14204BF3178E2
:102AD000A942F5D108B100F06BF9304670BD38B5A8
:102AE00000F015F8002145F8081C00F001002168ED
:102AF00080F0010011B9256006E0114651F8082C5C
:102B0000002AFAD141F8085C00B127E031BD044643
:102B10000D4600F051B938B5054600F04DF900F00A
:102B200001002968002480F0010041B10C46A4F1A5
:102B300008010A682A6000220A60FF228A7108B12F
:102B400000F036F9204632BD38B5FFF7E0FF2168C6
:102B500045F8081C256000B900E031BDBDE83140F2
:102B600000F026B970B504460D46164600F024F96B
:102B7000A5F1080123680A689D420CBF226046F84F
:102B8000082C00220A6000F00100FF2280F0010002
:102B90008A7118B1BDE8704000F00AB970BDF8B58F
:102BA00007460D46164600F007F900F001003968A7
:102BB000002480F0010021B93D600BE0F1B251B179
:102BC000114651F8082C761E002AF7D1F6B216B13C
:102BD00041F8085C012408B100F0EAF82046F2BD93
:102BE00038B500F01AF805D200F0E6F800F010F859
:102BF0002A4318E0032032BD38B500F00EF805D2A4
:102C000000F0DAF800F004F8AA430CE0032032BD2B
:102C10004B49096831F8142070470D464649097838
:102C200088420446704721F8142008B900F0C0F823
:102C3000002032BD80B5FF2803D100F0B9F8002094
:102C400002BD072002BD80B5FF2803D100F0B4F813
:102C5000002002BD072002BD80B5FFF791FD374976
:102C60000020086001F010F901F002FA01F00AFA00
:102C7000FFF798FD002002BD80B500F001F8FCE7E9
:102C80002DE9F04101F05EFA2B482D4C007800262A
:102C90002168F6B231F8161019B9761CF1B28142EA
:102CA000F6D3F1B2814224D200F086F82168F6B260
:102CB000354631F81580002221F8152008B900F0BA
:102CC00077F8204F204A3E70414652F82520304682
:102CD00090470646FF20387000F06EF8216831F802
:102CE0001520324321F8152018B9BDE8F04100F055
:102CF0005FB8BDE8F08101700A0A42700A0C090E43
:102D00008270C170001D704701700A0A090C427080
:102D10008170C01C704710B548B1002300E05B1CF7
:102D2000DCB2944205D2DBB2C45C8C42F7D0002006
:102D300010BD012010BD000080222200147A002066
:102D4000187A00205F4500205022220010B5027A38
:102D50000C7AA2420CD113000AD0022A05D10088B5
:102D60000988884204D1012010BD032A00D101E066
:102D7000002010BDBDE8104008E00A7A0272032A64
:102D800008BF00F011B809880180704710B508220B
:102D900010F8013B11F8014BA34201D0002010BDF7
:102DA000521EF5D1012010BD0822FFF7B5BD280C39
:102DB00080B501F0CDF902E080B501F0C5F900B1B0
:102DC0000120C0B202BDF0B54F4C504A2568954273
:102DD00009D02568002655F8267042F82670761C22
:102DE000402EF8D3226042F82010F0BD10B50FF24B
:102DF0003013820853F82220136800F00300C0004B
:102E0000FF248440A34301FA00F01843106010BD72
:102E10003F49042803D1086840F4803022E00528A7
:102E200003D1086840F400301CE0062803D108688C
:102E300040F4802016E00F2805D13648016841F0A3
:102E400002010160704710280DD3A0F110010FF2AC
:102E50007412490952F821101038012200F01F00A5
:102E600002FA00F0086070472949042803D1086875
:102E700020F4803022E0052803D1086820F40030D7
:102E80001CE0062803D1086820F4802016E00F28F3
:102E900005D12048016821F0020101607047102827
:102EA0000DD3A0F110010FF23012490952F8211090
:102EB0001038012200F01F0002FA00F0086070478D
:102EC00015490E2803D1086840F0006014E00F286F
:102ED00003D1086840F000700EE010280DD3A0F177
:102EE00010010FF20812490952F82110103801227E
:102EF00000F01F0002FA00F0086070470748016800
:102F000041F001010160704708ED00E00040002041
:102F100024ED00E010E000E004ED00E098200D401A
:102F20000000000018ED00E01CED00E020ED00E0E6
:102F300000E400E004E400E008E400E00CE400E069
:102F400010E400E014E400E018E400E01CE400E019
:102F500020E400E024E400E028E400E02CE400E0C9
:102F600030E400E034E400E038E400E03CE400E079
:102F700040E400E044E400E048E400E04CE400E029
:102F800050E400E054E400E058E400E05CE400E0D9
:102F900060E400E064E400E068E400E06CE400E089
:102FA00070E400E074E400E078E400E07CE400E039
:102FB00080E400E084E400E088E400E08CE400E0E9
:102FC00090E400E000E100E004E100E008E100E05E
:102FD0000CE100E010E100E080E100E084E100E0CD
:102FE00088E100E08CE100E090E100E080E200E0B8
:102FF00084E200E088E200E08CE200E090E200E0A1
:103000002DE9F14382B004780FF26020055DADF840
:103010000050002D4CD00D2C4FF6FF7811D1694691
:10302000532000F048FABDF800004FF6FE718842C8
:103030001FBF40450298007A002800F0B780029E2A
:103040006EE0052C4FF0240904D10299097C24314B
:1030500048190BE0072C0BD10298807800282846ED
:103060000FBF1B300299097A09FB0100ADF800007F
:10307000BDF80000FFF798FC06001DD10C2C17D1FD
:1030800002984068002813D0FFF796FE00F0010078
:1030900080F001070298001DFEF7DAFCBDF8000081
:1030A000FFF782FC060004D1002F01D0FFF780FE5D
:1030B000A1E00FB1FFF77CFE02992A463046FFF7E8
:1030C0002BFC052C11D17168242206F11800FFF7A2
:1030D00023FC06F118007060327C71692430FFF720
:1030E0001BFC7068243070611AE0072C18D1564818
:1030F0000568ADB100210160B078002806F110002C
:10310000F06002D11B22294605E0307A09FB00F26B
:10311000294606F11000FFF7FFFB2846FFF7C9FB21
:103120004A480168080003D030468847002857D134
:103130000D2C47483ED102994A6813785278C3F360
:10314000830103F00303022B0BDA424B9B7C994271
:1031500004BFC0231A4202BF029A92F82420022A16
:1031600011D0032907D1029A012111700078029928
:10317000FFF73BFC3FE03849002008703749086002
:103180003749088012E096F83B0006F13A0100F05A
:1031900041F80298C08C40451DD102984068807962
:1031A000022818DB304601F0DDF920B302A8FEF753
:1031B0004FFC20E00C2C20D1029840781A281CBF2C
:1031C0007068002807D0807DC00704D5307C06F1E8
:1031D0000F0100F01FF8234800783146FFF705FC87
:1031E0000C2C18BF112C06D10298406818B1029817
:1031F000001DFEF72DFCBDE8F783112CEBD100215B
:10320000317031460078FFF7F0FBEDE701F02FB9A0
:1032100000207047144A1278130013D00B7832281C
:10322000B8BF322002DB6F28A8BF6E20012A05D16B
:10323000323858433C2290FBF2F39BB2FF2BC8BFBD
:10324000FF230B7070470000BC790020587A0020E3
:103250001478002034720020D27A0020907A002066
:10326000AC7A0020C8790020CA7A0020001610002D
:103270000018151002000224144000001014000071
:1032800062480B218170FF214170C170017070474D
:1032900080B500F0B4F8BDE80140D3E001F07BBA9E
:1032A0005B490A68030018BF012322F0020040EACC
:1032B000430008607047574900E0574900F0FF029B
:1032C0000A60000A4860704701460822534801F02E
:1032D000F9BB10B552490A78044640B253B2834252
:1032E000B8BF144604DB49784AB29042B8BF0C46D6
:1032F000FFF762FD454AFF21D17008B9FFF758FD7D
:1033000000F002F8204610BD10B5FFF755FD3F490B
:10331000CA780C7800F00100A24280F0010009D0C8
:10332000404B1B7833B9404B1B781B0602D40A7004
:103330003E490A6000B141E010BD38B50446A4F131
:103340000B00122828BF00F097FCFFF735FD00F0B6
:10335000010080F001052D4884703348007808B9D9
:1033600000F006F81DB1BDE83140FFF721BD31BDC9
:1033700010B52D48007808B100F07EFC234CFFF713
:103380001BFDA178637800F00100994280F00100F4
:1033900011D0617008B1FFF70BFD00F03AFC6078C6
:1033A000234900EB80002C38086001F0F3FBBDE8F6
:1033B000104000F0EFBB00B100E010BDBDE81040D0
:1033C000FFF7F6BC38B504461A48007808B100F09B
:1033D00053FC194D287808B100F04EFC20000CBFBA
:1033E0000120032C09D0012C1CBF022C00F044FC4E
:1033F0000849FF220A6002204A60287031BD0E4948
:103400000020087003490D48C08C57E7087A002057
:1034100000860840C8850840D0850840A885084037
:1034200084222200EA770020D778002040860840D6
:103430003C8608405C450020E9770020AC72002003
:1034400001F0EDBA80B501F0F4FABDE80240493868
:1034500040B210F1570FB8BF6FF0560002DB0B28D7
:10346000A8BF0A205730C0EB0020612190FBF1F08B
:10347000C0B27047EDE7000010B5664C0FF29C112A
:1034800020466C2201F0BAFE1434FFF707FFA07348
:10349000FFF704FF207010BDA0F140021E2A38BFC4
:1034A000403804D3A0F1E0010F2902D23E30C0B26F
:1034B00070472D20704770B50C46FFF7EDFF0546AD
:1034C0002D2D01D1F42070BDFFF776FC06460FF2DA
:1034D000B81000EB85014A7810F825004D490144E9
:1034E0002046FFF719FA0EB9FFF762FC002070BD05
:1034F0002DE9F8430446DFF81C91F12C0D4609F143
:10350000080711D1287801280AD1022000F01BFBFE
:103510002046FFF7C1FF2D28014611D1F42075E0A8
:10352000022000F0EEFAF3E7F02C05D128783A49B2
:103530000870FFF7B5FEEBE7452CE9D13D6064E08C
:103540000FF2441000EB8106B078010004BFF1785F
:10355000002915D0F178884208BFFB2056D0582C9E
:1035600005D128888F3846F22241884206D2287831
:10357000B278904224BFF178814201D2E82045E040
:10358000FFF71AFC80463078727829464844FFF7E6
:10359000C3F9B8F1000F08BFFFF70AFC502C09F17E
:1035A0002A0010D0522C16D0532C10D0E02C26D04C
:1035B000E12C1BD0E22C1DD0E52C24D0E62C04BF3E
:1035C0002978C17721E0F88BFFF775FE1DE00088B0
:1035D000FFF773FE19E099F8290018B1022000F0F6
:1035E00090FA12E0022000F0AEFA0EE0007CFFF745
:1035F000A4FE0AE009F13C00FFF766FE05E0C07B8F
:10360000FFF767FE01E0297881770020BDE8F283AB
:1036100000000000AC720020D474002036000100CD
:103620000600000000000000000F00000000000085
:10363000000000000000000000000300FFFF000089
:103640000403FFFF0000FFFF0F00F4010005C404A6
:103650000320000100000B0000000000000000003B
:103660000300010F00000000000000000000000047
:10367000000000000000000000000000000000004A
:1036800000000000000000000001363601010001CA
:103690000201000103010001040106060804000004
:1036A0000C0100340D01000F10040101140100FF92
:1036B0001608000020020000220100FF2301000183
:1036C000240100FE25010008260200002801000157
:1036D000290100012A0200002C01000F2E02000027
:1036E0003001000131010008320200FF34010007FF
:1036F00035010240360100003701000138010001A8
:10370000390100FF3A010B1D3C080000460100088A
:103710004701000F48010001490100FF4C0400006F
:103720005004000054040000580400005C04000031
:1037300060040000640400006804000080B500F02C
:103740008BFFFFF79DFD00F0D7F901F0F1F900F0D4
:1037500035F8BDE8014000F091BA80B5FFF72CFBC9
:1037600018B9FFF725FB00F087FA0848007818B968
:1037700001F006FAFFF78CFD00F098FA01F06AFDFF
:103780000349012081F8480001BD00005C4500208C
:10379000AC72002010B50446A4F1E700082882B0FE
:1037A0000AD269462046FFF786FE0098401C00902A
:1037B00069462046FFF79CFE13BD0000C448002167
:1037C00001700172704738B5C14C0546207808B1C8
:1037D00000F052FA01202070BE48007818B1BDE810
:1037E00032401D204DE1657028460228BA4D02D1B5
:1037F00001F0EFFD27E003280BD1286810F8211F06
:10380000E1704078010008BF0120207101F01FFE27
:1038100019E000281CBF012800F02EFA002060717A
:103820002968AE48897D627849064CBF90F84610F9
:1038300090F8251022B9C07810B10329A8BF022141
:10384000A17000F035F8207AB0B9286808B900F006
:1038500013FA2868A24B41680A7802F02002E2714C
:103860008A78A271027A481E911C0170EE211960BB
:10387000511CC9B201F03AF9FFF79EFA99499A4AE8
:103880000978127800F00100114380F0010007D19F
:103890008321217008B1FFF78BFABDE831401CE0AD
:1038A0000221217018B1BDE83140FFF781BA31BD66
:1038B00080B5FFF7F3FC864991F9023001229A4066
:1038C000521E1040C870487818B9BDE8014001F098
:1038D00034BDBDE8014001F021BD844801684908BC
:1038E000490001600020804908707948407802282A
:1038F00008BF01F074BD032808BF01F0C3BD10B5B7
:10390000734C607840B9FDF7E6F9E178814203D362
:10391000BDE810401C20B4E0BDE8104001F030BD0F
:1039200010B56B4C01202072ED20FFF733FF60785B
:10393000BDE8104047E780B56A486B4900780978D0
:10394000084318BF00F098F9FFF736FA60490A7883
:1039500000F00100022A80F0010007D183220A70E2
:1039600008B1FFF725FABDE80140B6E718B1BDE898
:103970000140FFF71DBA01BD10B5554C607801003C
:103980001CBF012800F078F90420207000F012F923
:1039900060795749401C6071C0B20A78824203D2F4
:1039A000BDE81040E1206CE0487BA1784A1C8242CF
:1039B000B8BF481CA070FFF77BFF83202070BDE8D4
:1039C00010409CE710B5FFF7F7F900F04FF8832996
:1039D0000ED1C17941B9852101700CB1FFF7E8F929
:1039E000BDE8104000204CE08621017001F077FD19
:1039F00004B142E010BDF8B504460D46FFF7DCF90E
:103A000000F00100324F80F001063878862812D18C
:103A10008720387001F0D2FD0EB1FFF7C9F9B879EF
:103A2000844204D1002D0CBF00201B2000E0E920BF
:103A3000BDE8F24025E01EB1BDE8F140FFF7B8B99E
:103A4000F1BD10B5FFF7B8F900F010F886290AD1DA
:103A50008721017001F0B2FD0CB1FFF7A9F9BDE8B3
:103A60001040E9200DE004B107E010BD00F00100B6
:103A700080F00104164801787047BDE81040FFF758
:103A800097B910B50446124800211B2C0172017031
:103A900004D01848017801F0FE01017000F08AF8A6
:103AA000FFF732FCFFF764FC2046BDE81040FDF74D
:103AB00075B910B5084C206808B900F0DDF800F0C1
:103AC00028F92168C86000F07FFE2168088210BDD7
:103AD000D77800205C45002094440020AC72002080
:103AE00038880840E8770020EA7700209086084070
:103AF000D0720020997A002059480021417001704D
:103B0000704738B5040008BF00F0B6F8FFF754F965
:103B10000546534841782143417000F065F81DB9CE
:103B2000BDE83140FFF744B931BD10B5040008BF0E
:103B300000F0A2F8FFF740F949494A7822434A7059
:103B400000B933E010BD10B5040008BF00F094F8D0
:103B5000FFF732F942494A7884F0FF031A404A706D
:103B600008B9FFF725F9BDE8104023E080B5FFF75D
:103B700023F93B4900224A700A70EF2239490A6052
:103B8000ED220A600A6008B9FFF712F9BDE80140AA
:103B900001F000B810B5FFF70FF900F05BF84078BE
:103BA00008B100F021F804B100E010BDBDE81040FC
:103BB000FFF7FEB810B5FFF7FFF800F0010080F046
:103BC00001042748407860B927480078000608D4E7
:103BD0002648007828B926480078000658BF00F02B
:103BE00018F804B1E2E710BD80B5FFF7E5F81C490D
:103BF0000A7800F0010080F0010022B901220A7069
:103C0000E321184A116018B1BDE80140FFF7D0B8B0
:103C100001BD70B5FFF7D0F800F01CF8017899B13C
:103C200000210170EF20134D6860ED20686068602E
:103C3000FFF7C2F806462A20FFF742F96FF00400AA
:103C400028600EB9FFF7B4F81CB1BDE87040FFF76B
:103C5000AFB870BD00F0010080F00104004870476B
:103C6000987A002038880840E8770020EA7700201A
:103C7000D7780020348808407047000080B50020C5
:103C800000F0D5FD4FF47F0000F01AF844486FF0C3
:103C900008014160016841F0080101606FF0100106
:103CA0004160016841F01001016001BD3C480168BC
:103CB00021F010010160016821F008010160DDE7D9
:103CC00038B5044600F090FDA04228BFFFF7D4FFAE
:103CD000FFF772F8054633480460204600F0E9FD1E
:103CE00005B900E031BDBDE83140FFF761B838B536
:103CF000FFF762F8044600F077FD05460CB9FFF7C0
:103D000057F828480068854201D3002032BD284674
:103D100032BD38B5FFF750F8044600F071FD054696
:103D20000CB9FFF745F81F480068854201D3002011
:103D300032BD284632BD70B51A4D0446286884420B
:103D400028BFFFF799FFFFF737F800F0010080F078
:103D500001066C60204600F08AFD00F045FD8442BB
:103D60000AD111496FF0100008600EB1FFF720F87A
:103D7000BDE87040FEF724BC1EB1BDE87040FFF7FF
:103D800017B870BD7047FEF71BBC80B500F05AFE37
:103D9000BDE80140FEF75FBC0248006870470000C4
:103DA00008880840587900200C88084062F30F22E8
:103DB00062F31F42401810F0030308D0C91A1FD342
:103DC000DB0748BF00F8012D28BF20F8022D1300A3
:103DD00030B414461546103928BF20E93C00FAD803
:103DE000490728BF20E90C0048BF40F8042D89008E
:103DF00028BF20F8022D48BF00F8012D30BC7047C5
:103E0000C91818BF00F8012DCB0728BF00F8012DF5
:103E10007047000080B528B9FF20FEF714FF00218D
:103E2000002004E01549002008700FF24D01BDE8A4
:103E3000044001F00BBC12490A78FF2A02D1087035
:103E4000012070470020704770B50D4E0446307851
:103E5000FF280D460DD00420FEF7A6FD38B1C02185
:103E600001708570C47001463078FEF7BEFD0020F9
:103E700070BD012070BD00000021E5E7B87A002088
:103E80005E45002000F092BC7849002048607047F1
:103E900070B504460D46164600F018F808B14660A5
:103EA00070BD1020FEF798FC78B1847205814660E1
:103EB00000210160C1606D490A6812B9086070BDD7
:103EC0000A4611680029FBD1106070BD674A12686C
:103ED0002AB113898B4204BF937A8342F7D11046EB
:103EE000704708B1002101817047F8B500F024F84F
:103EF000074600F01DF804460FB9FEF759FF0CB154
:103F00000020F2BD0820F2BDF8B500F015F800F071
:103F1000010080F0010700F00BF8040018BFE66014
:103F20000FB1FEF745FF0CB10020F2BD0820F2BD35
:103F3000324629462046ABE704460D461646FEF7B4
:103F40003BBF70B504460D46FEF736FF00F001009A
:103F500080F0010629462046FFF7B8FF040018BF8D
:103F6000FFF7BFFF0EB1FEF723FF0CB1002070BDBD
:103F7000062070BDF8B504460D46FEF71DFF00F0A3
:103F8000010080F0010729462046FFF79FFF002629
:103F900000B146680FB1FEF70BFF3046F2BD2DE9C8
:103FA000F14181B0FEF708FF304C019A6168511869
:103FB000616008B9FEF7FCFE2668002E50D000258F
:103FC000FEF7FAFE00F0010080F00108BDF80600DF
:103FD0000027002804BF9DF80500002807D130798C
:103FE0009DF80420904202D3801A307106E0706878
:103FF000019981423ABF401A70607760B08858B921
:10400000F08858B9F06868B1318908000AD0B07AF0
:10401000FEF7E6FDF0687060B08808B9F08808B176
:10402000308930B93068002D0CBF206028603746D9
:1040300000E035463668B8F1000F18BFFEF7B8FE4D
:1040400067B1B888002804BFF888002803D13989EF
:10405000B87AFEF7C5FD3846FEF72BFC002EAFD12F
:10406000BDE8F3810148406870470000887900206E
:1040700003480021817101807047014988717047B0
:104080008079002080B51820FEF7A6FB154908604E
:1040900018220021FEF758FC0020FDF75DFC0120EE
:1040A00001F0D8FA022003F003FB032000F01CF813
:1040B000042003F09DFB052003F05AFC062004F0C9
:1040C00043F8072004F034FB082005F01FFC09200A
:1040D00005F01EFE0A2006F09DFFBDE802400B2001
:1040E00007F0C4BD187A002015490870704780B5E4
:1040F00007F0EAFE07F00AFF07F012FFBDE80140F3
:1041000008F076B938B50C4620040BD50C4D01E00B
:10411000FEF75CFC2878FEF796FC0028F8D184F4C2
:10412000004032BDA00604D507F07FFF84F02000D8
:1041300032BDE00602D584F0100032BD002032BD51
:10414000B27A002008F05BB9EFF3108072B67047C6
:10415000EFF3108062B6704740BF7047DFF8CC14B1
:1041600000200860704780B502F0B1FD58B9002208
:10417000012100F039F930B1016800291CBFBDE808
:10418000024001F04CBC01BD80B5042000F01EF9D6
:10419000DFF89C140978814207D3FF2000F016F95C
:1041A000DFF890140978814201D2012002BD00207D
:1041B00002BD2DE9F04107468846387B00F024F91E
:1041C00000240546012625BB7A89397B386800F032
:1041D000B7F8050062D02C810124387C2874788AD5
:1041E000688207F1100009F06BF868614FF67F41B3
:1041F000388B2883B87EA876688908406881410793
:104200004FBF40F08000DFF83014097840EAC11059
:1042100068816889C109B8F1000F01F0070112D067
:1042200002226A732A68927B520703D5DFF80C24B6
:10423000128A2A8121B34FF67F421040491E40EA7C
:10424000C11068811CE009B9002619E0810605D576
:10425000FEF7A8FB00F07F005F3008E0C00605D540
:10426000FEF7A0FB00F00F000A3000E001202881DB
:10427000202104206873DFF8C8030078FEF7B0FC43
:104280006CB12A89697B284600F06DF838B16869FD
:1042900008B1FEF70EFB2846FEF70BFB0026304662
:1042A000BDE8F0813EB500F0AFF8002498B3417B43
:1042B000062930D101684489097A8DF8081001680F
:1042C0000988ADF8001000F0E6F8200522D5BDF809
:1042D0000010002000F021F8E0B9DFF86043A18C65
:1042E00068460AF05AFB002100200CE0286801888B
:1042F0004FF6FF7291420DD0A18C0AF04CFB1A28A8
:1043000008D00021284600F008F80500EED1002072
:104310000AF045FB012420463EBD18B9DFF80C0326
:10432000006800E0406840B142891205FAD50A00F1
:104330001EBF026812888A42F4D17047012070477C
:1043400070B504460D4616461C20FEF745FA48B1E6
:10435000002141730573468101818173C17304603B
:104360004161416070BD70B504000D4616462BD00A
:10437000012D284606D100F029F8B249097881427A
:104380000CD207E0042D07D100F020F8A8490978E5
:10439000814203D2112070BD022D15D10020606032
:1043A00065732681A148016831B100E00146486883
:1043B0000028FBD14C6000E00460A1480078202177
:1043C000FEF70EFC002070BDC12070BD974A126838
:1043D000002105E0537B5268834214BFFF28491C2B
:1043E000002AF7D1C8B2704710B99048006800E0C1
:1043F000406840B1437B8B42FAD1130003D003687D
:104400009B7B5B07F4D470478849096800E04968E2
:1044100021B10A7B8242FAD10846704700207047DA
:104420008249096800E0496861B10A6813888342DB
:10443000F9D1126A1378527803EB0222D205F2D432
:104440000846704700207047F8B504460026200053
:104450000D460AD07548076800E07F682FB12946ED
:104460003846A0470128F8D13E463046F2BD00202C
:10447000704710B56D490A681346002401E01C46D8
:104480005B683BB18342FAD15868934201D108601E
:1044900010BD606010BD10B5040011D0FFF7E9FF3A
:1044A0002068006AFEF705FA2068FEF702FA6069E4
:1044B00008B1FEF7FEF92046BDE81040FEF7F9B955
:1044C00010BD38B50168594A0988126800230024D4
:1044D00009E0557B052D01BF641C15682D888D42B0
:1044E000526808BF5B1C002AF3D1574A534912781F
:1044F000DBB293423FBF554A1278E4B294422CBFDC
:1045000001220A8A02814FF6FF7305224273428913
:1045100042F400624281006802889A4204D0898C89
:104520000AF039FA1A2804D1BDE8324001200AF015
:1045300036BA31BD70B53D4C2568002D0EE02868B7
:104540006E68006AFEF7B5F92868FEF7B2F9686987
:10455000FEF7AFF92846FEF7ACF93500EFD10020A1
:10456000206070BD10B548B1A0F108010A68002AAA
:1045700004BF8A79FF2A03D0FEF728FA052010BD70
:104580002F4C22788A7132490A7801463148FEF769
:1045900006FB012806D120784FF40051FEF720FBDE
:1045A000002010BD042010BD70B5FEF705FC294D9C
:1045B0002E6800F0010080F001048EB1204856F80A
:1045C000081C007800294FF4005102D0FEF708FBC8
:1045D00001E0FEF711FB002231462846FEF7C2FA41
:1045E0000CB1FEF7E5FB304670BD70B504460F48D0
:1045F0000668002514E030680088A0420FD1002032
:104600003081B07A400744BF307B0BF044FB06207A
:104610007073F0213068407B01F056FA6D1C7668AB
:10462000002EE8D1E8B270BD00000000887A0020BA
:10463000CA1F2200CB1F22006445002034720020D4
:10464000C8790020C91F2200CD1F2200CE1F2200E2
:10465000D91F22008C7A0020F0B5DFF8200489B041
:10466000142101603F2181605521C160FC21DFF8E8
:104670001044DFF81054DFF81064DFF8FC73616356
:104680008521E16701214161152141620021A9676E
:10469000102101630E2141630321816309207065AC
:1046A00004210B2008608021FF2030602A20FEF7C3
:1046B0009DFB80212B20FEF799FB2A20FEF7A8FB0B
:1046C0002B20FEF7A5FB80213120FEF78FFBDFF8C2
:1046D000BC030068000C3860FEF76EFB0221F16736
:1046E0000022DFF8AC130A6028224A6008B9FEF7FE
:1046F0005FFBDFF8A00300680003FAD5306F40F0DD
:1047000003003067306F4007FCD5306F40F00A007F
:1047100030673120FEF77CFB48202060FFF764FA09
:10472000206CC007FCD500201021A26F5208404128
:10473000491E80B2F9D1002814BFB0F5607F4BF656
:10474000BE20DFF8541300F0FF020A600012086078
:10475000796808000ED0002000220823A66F760892
:1047600052415B1EFAD10DF80020401C2028F3DBDB
:1047700068468847FFF74DFA40202060206840F0E7
:1047800020002060002028606860A860E860286140
:10479000686109B0F0BDDFF80403016821F00C0185
:1047A00041F0040101608069C0B27047DFF8EC029B
:1047B000016821F00C0141F0040101608169406948
:1047C00000EB012080B2704710B5FEF7F5FADFF874
:1047D000D01201220A608A68496841EA022408B9B5
:1047E000FEF7E6FAA0B210BD80B5FEF7E5FA00F0DC
:1047F00002F84A680AE0DFF8A81200220A6070474F
:1048000080B5FEF7D9FAA64910220A604A698DF8E8
:1048100000200A698DF80120C9688DF80210002176
:104820008DF8031008B9FEF7C3FA009802BD01B570
:10483000000E18BFFFF720FAFFF7D6FF9949CA68A4
:104840008018009A801AC860FEF7B6FAFFF7D3FF07
:104850009DF800204A619DF801200A619DF8022020
:10486000CA6018B9BDE80140FEF7A2BA01BD11B592
:10487000002481B0000E18BFFFF7FEF9FEF79CFA86
:1048800000F03AF8D20680F0010004D50A6822F060
:10489000100201240A60302200F033F86FF0100299
:1048A0004A601CB10A6842F010020A6000B133E0AD
:1048B00013BD11B5002481B0000E18BFFFF7DCF95D
:1048C000FEF77AFA00F018F8120780F0010004D51C
:1048D0000A6822F0080201240A60202200F011F880
:1048E0004A6822F008024A601CB10A6842F00802D5
:1048F0000A6000B110E013BD6B490A6800F00100C6
:1049000070478A609DF80420CA619DF805208A617D
:104910009DF806204A617047BDE81340FEF748BA8B
:1049200038B5614C2068616800EA0105E80604D5E5
:10493000FFF729FA6FF010006060280704D5FFF731
:1049400024FA6FF008000DE0E8070CD557485849E5
:10495000006891F9002043B29A42B8BF1A460A7023
:104960006FF00100606031BD70B5524C524D666C05
:104970002A20FEF7A5FA28683040000705D56FF019
:104980000800286000F025FE13E028683040C006CB
:1049900005D56FF01000286000F022FE09E02868BD
:1049A0003040C00705D5606C40084000606400F0EE
:1049B00097FB206C69680840400707D500F024F990
:1049C0006FF00400686020684006F7D470BD10B531
:1049D0003A4804682B20FEF773FA394801682140F1
:1049E000490603D56FF04001016010BD0168214008
:1049F000C90708D56FF001010160FFF7B7F8BDE8FE
:104A00001040FFF7F1B801682140490706D56FF063
:104A100004010160BDE8104000F0A7BB10BD2449AF
:104A20006FF07F0008702048016841F001010160CB
:104A300070471D4801684908490001601C4890F909
:104A40000000704738B5FEF7B7F900F00100154DCA
:104A500080F00104287828B9FFF79EF9E96840182A
:104A6000E86001E0002028701CB1BDE83140FEF78D
:104A70009FB931BD0000000060790020A486084085
:104A8000248608409085084094870840F80F280045
:104A90001488084004200D4014700D4000700D4033
:104AA0001088084078780020088808406086084010
:104AB000B57A00204C86084030880840948608402B
:104AC0002C88084004E011F8013B40F8043B521EDA
:104AD000D3B2002BF7D1704704E050F8043B01F843
:104AE000013B521ED3B2002BF7D1704738B50446B4
:104AF0000D0008BFFFF7C0F814F8010B0B49086060
:104B00006D1EE8B20028F7D131BD38B504460D005E
:104B100008BFFFF7B1F80548006804F8010B6D1EE7
:104B2000E8B20028F7D131BD000000002888084015
:104B3000DFF86C060021C172416181800FF2ED0146
:104B400001610021817181818173704738B5DFF87F
:104B5000544605202060FEF72FF900F00DF8DFF82D
:104B600048166FF0040008600DB9FEF721F9E06BFC
:104B700040F00400E06331BD05462A20FEF7A0B9ED
:104B800080B5FEF7F3FFDFF8181600204871BDE886
:104B90000240EFE210B5DFF8084601206073207B89
:104BA00018B900F003F80020607310BD38B5DFF8C5
:104BB000F405DFF8F445016C49084900016405215A
:104BC0000160ED2060606060FEF7F6F8FFF7D4FF4B
:104BD0006FF0040020600DB9FEF7EAF8DFF8C04579
:104BE000606918B104F11400FCF709F80FF23D00F8
:104BF000A17920612079084305D000202071A0719F
:104C0000BDE8314075E231BD10B5DFF89445607BF9
:104C100058B9012020732069804700202073607BF1
:104C200018B1FFF7C3FF0020607310BD2DE9F84FE6
:104C3000DFF86C452079002708B1FFF71DF88120C7
:104C40002071DFF86805007838B1DFF86455686ACC
:104C5000000606D4686A400603D4277100F049FABA
:104C600049E100F028FCA86EDFF8488540084000C4
:104C7000A866A77104216079A0722046FFF745FF5E
:104C8000207800F07F00C01EE071C0B27D28BEBF5A
:104C9000607800F0070104296ADA00F007000228B2
:104CA00004BFE07A0028DFF8106538D100F073F90E
:104CB000FEF782F800F0010080F0010530788628C8
:104CC00029D1DFF8F864306808B9FEF7D5FF9DF9FF
:104CD0000000A0F149079DF8010000F07F09494656
:104CE00078B2FEF7C7FB31684877306880F81E90CD
:104CF0003068C7770DB1FEF75BF89DF8010000063C
:104D000006D5607800F01001E078FEF774FE34E01C
:104D1000FEF797FE31E085B3FEF74AF82DE03078D4
:104D2000862808BFFEF78DFEA17A60780A000ED0B3
:104D3000E27A62B9012935D0022902D10722104254
:104D400030D1032903D100F0070103292AD1A1782A
:104D5000C1F381028DF802204FEA91191146DFF864
:104D60006024126862B9B9F1010F18BF012907D197
:104D7000ED20C8F80800C8F8080000F09DF9BAE076
:104D80000FF25442515C12F809205618B9F1000F85
:104D9000F6B203D0410644BFB61EF6B2E179B21CAA
:104DA000914202DA00F0AEF9A5E0891B891E61721A
:104DB000000748BF2527C9B2C8194C3080B2FBF79D
:104DC00013FF606118B9E820C8F80800EAE7E07A44
:104DD000002718B9607800F02000A071A07990B386
:104DE000FDF7EAFF00F0010080F0010A607800F0B2
:104DF000070003280CD1FBF7E3FE00286CD1DFF895
:104E0000C4030078002863D00BF00AFBFE2863D0AF
:104E1000286820F004002860FDF7CEFF8346FFF7E6
:104E2000ACFE6FF00100C8F80000BBF1000F08BF36
:104E3000FDF7BEFFA86E40F00100A866BAF1000FB2
:104E400018BFFDF7B5FF606900F14C0141600164D6
:104E5000617A01726069017A80F844106078000715
:104E600010D56169032081F84400611C60694030FD
:104E700002790068FDF750FD606950F8401F027923
:104E800011440160606980F8249061699DF8020016
:104E900081F82E00FFF7B4FC61690863FFF794FC0A
:104EA00061698886607800F0070008736169E078BE
:104EB00081F83D006178A078C0F3011001F078011D
:104EC00008436169384388735EB900F05FF812E007
:104ED000FBF769FE00289BD02868042740F00400F7
:104EE00099E726726178207A090758BF401EA862A8
:104EF0000FF209002061BDE8F18F000030B5A84C29
:104F0000207A85B008B9FEF7B7FE00F043F8A07824
:104F10006946C0F38100C8B162699DF800304D78E0
:104F200003EB052313870328138FD38608D10DF1D4
:104F3000020102F12600FDF737FF0DF10A0105E03D
:104F40008878C97800EB0120D08401A9A078800975
:104F500015D06269937B5B0605D40B784D7803EB23
:104F60000523D386891C032804D102F11C00FDF718
:104F70001BFF04E00878497800EB012090830020B3
:104F80006169C87500F002F805B030BD0FF2350058
:104F9000206103E0217A6846FFF7B7BD8048814A67
:104FA000417A0B0005D1012111600FF23D01016131
:104FB00070471029A8BF10210172007A401E1060AE
:104FC0007047000010B5764C6069217A006CFFF7DD
:104FD0009CFD6169207A0A6C02440A64617A081AAD
:104FE0006072BDE81040D9E72DE9F8436C4D02210D
:104FF0002846FFF78AFD6878002400F080085FEA01
:1050000008006B4F02D1E87A022840D1E720FEF772
:10501000C1FB02202871FEF7CDFD2857A0F14906FB
:10502000687800F07F09494670B2FEF723FA696993
:1050300081F83A00686980F83C60686980F83B90C4
:105040006869011D00F14C02CA6390F844000B79B5
:105050000A68C01A10440860897A490706D50078A2
:10506000042803D0386820F00400386055480078E0
:1050700018B10BF0DCF900B104246869817B44EAC3
:105080000802114381736869FBF7BEFD0BE0E8205D
:10509000FEF780FBB86E40084000B866AC7105F1C1
:1050A0001400FBF7ACFD002068610520B86246489B
:1050B000C5F81000BDE8F14344480168490606D52B
:1050C0000068000603D44248ED2101600160002120
:1050D000334801718079002808BF00F00AB8704792
:1050E0002F48002181710079002808BF00F001B825
:1050F000704780B5FEF75EFDFEF706F9BDE801409A
:10510000FEF719BC10B5264C2F492069884218BFFC
:10511000FEF7B2FDE079010002D1BDE81040CBE717
:105120001028A8BF102020721E49207A401E086057
:105130000FF20500206110BD1FB5194CFFF72AFFC3
:10514000E079217A401AE071C2B2164932B1C0B298
:10515000102809DA2072401E08601FBD0520086073
:1051600019482061FFF7A8FF1FBD0D48817B491C2E
:1051700081730FE510B50A49164CC872010005D1BC
:1051800000202060206840F0090007E002281CBFD2
:105190000128FEF771FD206840084000206010BD26
:1051A000E47700205086084034880840987A002030
:1051B0002886084030880840D77800209444002092
:1051C00060790020B37A00202D4C20004C860840E6
:1051D000388808400086084000BE040A62B38B0786
:1051E00008D0521E11F8013B00F8013B00F024806A
:1051F0008B07F6D1830740F0208000BF103A07D319
:1052000030B4B1E83810103AA0E83810F9D230BC08
:10521000530724BFB1E80810A0E8081044BF51F8B4
:10522000043B40F8043BD20724BF31F8022B20F89E
:10523000022B44BF0B7803707047083A07D3B1E8DC
:105240000810083A40F8043B40F804CBF7D2530763
:10525000E4E7000038B5134C2078010021D0124D4E
:1052600029680903FBD511490A6842F003020A6064
:105270000A685207FCD5022804D10BF07DF9FFF72C
:1052800065FC08E0012818BFFEF7F6FC286800035B
:1052900058BFFEF7F1FC00202070BDE83140FEF75A
:1052A00079BC31BD5C45002004200D4004880840D5
:1052B00010B5FDF781FDDFF8601300220A604A682F
:1052C0008C6808B9FDF774FD2406600E10BD38B572
:1052D000D0480068C00648BFFEF7CEFCCF48D04C8F
:1052E000012101670160E220A060FF20A060FDF7BE
:1052F00063FD00F05FF96FF0100020600DB9FDF75D
:1053000057FDFDF759FD00F055F96FF008002060DA
:105310001DB9BDE83140FDF74BBD31BD80B5FFF78C
:10532000D6FFC048BC210160B82101600F21016097
:10533000D0210160016001600EE080B5FFF7C7FF7A
:10534000B848BC2101601721016081210160102152
:105350000160D22101608121016010210160D22110
:105360000160D92101600121016009210160BA2198
:10537000016001210160C5210160D221016001BDF0
:1053800010B500F089F8A84C08606FF002002060AA
:10539000FDF712FD0021616000F00100A34BA16840
:1053A000E2681B68122B80F00100D2B204D2C9B2AD
:1053B00052EA010308BF491C03236360C9B2A1601C
:1053C000E26008B1FDF7F4FC00F06AF8E120E06269
:1053D00010BD80B5FFF77BFF9248BC21C0E72DE9E7
:1053E000F0418C488C4D0168914C41F010010160F6
:1053F000016841F008010160FDF7DEFC00F00100EA
:1054000080F001080020286068686E69F6B206F036
:105410000F00C0F10F07FFB22760FEF7A7FB854919
:1054200001200870E120A86200202860686868698F
:10543000864203D0022FA4BF781E2060B8F1000F6F
:1054400003D0BDE8F041FDF7B3BCBDE8F08180B505
:10545000FFF73DFF7348BB2101607749097801F0F0
:105460001F0141F080010160D9210160012101602B
:1054700009210160BA21016001210160C32101609D
:10548000AC2177E780B500F007F8086000F008F875
:105490006449E120086001BD6848654900787047AB
:1054A0005C48016841F010010160016841F00801A9
:1054B0000160FEF799BB5948006800B1704780B59C
:1054C00054480168C90609D5016821F0100101603E
:1054D0000068000748BF00F07CF8B3E001BD2DE98B
:1054E000F8434C4C2068C00648BFFEF7C5FBFFF7E9
:1054F000DFFE814652480678152EB8BFFEF7BCFB8A
:1055000009EB06001438C0B2142190FBF1F114220B
:10551000474E02FB1105491C0220EDB2B0605FFA54
:1055200081F8C6F80080152DA8BFFEF7A5FB3E4FF9
:105530006FF002003860FDF73FFC03213B4A7960C1
:105540006902126800F00100122A80F0010002D204
:105550008AB202B9012189B201F0FF02BA60090AD8
:10556000F96008B1FDF724FCE220F862FF20F86240
:10557000FDF722FC00F01EF86FF0100078620DB904
:10558000FDF716FCBC20F862B820F862D220F86261
:10559000206840F010002060E120F862FFF788FEEC
:1055A000484505DA3068404502D13068401E306019
:1055B000BDE8F18305462A20FDF782BC1548016845
:1055C00021F010010160E22116480160FF21016015
:1055D00070471048016821F008010160FEF769BAC0
:1055E00080B50C48016821F0100101600B4801688A
:1055F00001B927E00168012903D1BDE80140FEF7A8
:10560000BBB90068022818BFFEF736FBBDE80140B1
:10561000FEF717BA90860840108808409087084027
:1056200030880840388808400C880840607900209D
:1056300088870840987A0020DB780020DA780020FC
:10564000AC720020BDE80140FEF7BCB970470BF01A
:1056500078B8000010B5DFF8F417DFF8F4470870E9
:10566000002084F826000BF08BF8FEF777FD002071
:10567000606708F055FC0BF01DF909F0C3F90BF059
:105680008EF8DFF8D01700200860BDE8104009F060
:105690007DB92DE9F043DFF8B45728780C46210492
:1056A0008FB01CD5FDF7CFF9050015D000200FF203
:1056B000A02100E0401CC0B2024611F83230FF2B9E
:1056C00007D02E78B342F5D101EBC20128464968D4
:1056D00088472846FDF77AF984F4004035E1A104B3
:1056E0000BD5FEF761FF050004D000F0B5FB28469E
:1056F000FDF76CF984F4005027E1A10640F1A38086
:105700002021FEF737FC6968084308BF01260CD04A
:10571000FEF7A8FC6968002629B1884232BF6FF005
:105720000046401A4608002E5BD000F041F90746BB
:105730000DF1140832E0FF208DF800008DF8010013
:1057400001AA4FF0FF308DF802003868C17F006A6F
:1057500007F0A5F801281BD1788A40F08000A8F84E
:105760001E00B97B8DF83410B97A090706D540F4CC
:105770008070A8F81E000DA9387B8870786910B178
:10578000007BADF814000022694601A80BF0D5FD9E
:1057900006207873387BFEF785FD4F460FB3002255
:1057A00004213846FEF720FE81463889B0422CBFDE
:1057B000801B0020388138890028EED1B87B012871
:1057C0000AD1B97A490707D406207873B721386817
:1057D000407B00F079F9E0E70028ACD10120787334
:1057E000DBE7FEF7C0FC002201210020FEF7FCFDF4
:1057F00018B128782021FDF7F3F900F0D9F8F0B1BD
:10580000078903E00289974288BF174600220421D6
:10581000FEF7EAFD0028F5D1B1B22878B94202D2EC
:10582000BF1BB9B221B92021FDF7DAF9002006E04B
:105830003F04FA0B2021FEF758FBFEF713FC6860CB
:1058400084F0200081E0E00604D509F08CFC84F0AF
:1058500010007AE0600604D50AF0E8F884F0400011
:1058600073E0200604D50CF02BF884F080006CE087
:10587000E00504D508F032F984F4807065E0200575
:1058800017D509F08CF9DFF8D80B007801280DD175
:10589000DFF8D00B0078010008D04FF47A7101FBDB
:1058A00000F228784FF40061FEF72EFB84F40060CC
:1058B0004BE0E00408D5687818B10020687009F062
:1058C0006EF984F4805040E060041AD5DFF8980B3C
:1058D0000068010012D0DFF8941B097801290DD16E
:1058E0008047DFF88C0B0068010018BF80472878DC
:1058F0004FF47A724FF48041FEF706FB84F4804047
:1059000023E0A00504D508F0B1F884F400701CE091
:10591000600519D5DFF85C0B008807F09AF9DFF80D
:10592000580B008807F091F9DFF8500B0078022837
:1059300008BF05F0CEFDDFF81805808C01210BF0C3
:1059400012FE84F4806000E000200FB0BDE8F08318
:105950000100000081642000060000009B6B200015
:1059600008000000296B20000B000000C16B200024
:1059700010000000C9FC2000020000007966200031
:1059800005000000E56820000700000039672000DE
:105990000C000000155C20000D000000595E200086
:1059A00064000000630D2100FF0000000000000003
:1059B000002204210020FEF717BD00B587B0182291
:1059C00000F043FF02208DF80800DFF88404418BCB
:1059D000808CADF80A00ADF8001000208DF814009E
:1059E000684608F09BFF07B000BD10B50C008EB0F4
:1059F00012D001466A46204606F051FF9DF8060087
:105A000050B19DF81C309DF80120214600200CF07B
:105A1000CAFB08B1A42000E000200EB010BDF8B50C
:105A200004464FF6FE756089410621D5206800F0D6
:105A30009CF910B14FF6FF7003E020680088A8427F
:105A400039D02168088007F003FC014620684A1E0F
:105A50009241D20FC281DFF81C1C08F066FF0500DE
:105A60002AD11CB101212046FEF7A3FB2846F2BD36
:105A7000DFF8DC13897B89071DD52768396A0A7925
:105A80004979C0044CBF4020002002EB0126009061
:105A90002B46228B3888B1B209F0A6F8B2B29042F8
:105AA0001CBF228B9042CAD12068018800230222A9
:105AB000B0B207F026FDCD252068407B294600F0D6
:105AC00003F80028CDD0D1E738B504460D461420A0
:105AD000FCF76AFF68B10C210170847000218173AA
