:020000040020DA
:10000000DC630020195C2200555C2200575C220052
:10001000595C2200595C2200595C2200000000005B
:10002000000000000000000000000000595C2200F9
:10003000595C220000000000595C22000553220098
:100040004D5C2200595C22004D5C2200595C22006C
:1000500000000000595C2200595C2200595C22001B
:10006000595C2200000000000000000000000000B9
:100070000000000000000000595C220000000000A9
:100080000000000000000000595C2200595C2200C2
:10009000595C2200595C2200595C2200595C220004
:1000A000595C2200595C220023542000A9542000EE
:1000B000595C2200595C2200595C2200595C2200E4
:1000C000995F2200C9532000595C2200595C22002C
:1000D000595C220000000000000000000000000049
:1000E0000000000000000000000000000000000010
:1000F000595C220000000000595C2200595C22007B
:10010000082102F040BF38B5DFF8084A0FF221702D
:10011000594D60650FF6B900A0650FF27550E862A1
:100120000FF225502863DFF8000C6863DFF8FC0B42
:10013000A8630FF6BD00E8630FF2A93028640FF240
:10014000B15060640FF20560A0640FF27550E06476
:10015000DFF8DC0B2065286908B103F0DCF8DFF874
:10016000140CA8600B2208202873002100202861AD
:1001700084F82000287505F1150002F045FD05F111
:100180002000BDE838400B22002102F03DBD30B513
:100190000446201D83B0052141820321017461685A
:1001A000491E4A1E626094F836200A7094F8361090
:1001B00011B14FF6FF7101860268018E521E026076
:1001C000090A02F8011F6268018E11700179C91CC9
:1001D000017100A804F12B0103F01CF903208DF834
:1001E000080000AADFF86008C38C0321204601F054
:1001F0006FFE050004BF204600F071FF01F0ABB8B0
:1002000038B504460D466068411E100A087001F8B2
:10021000012D049801F8010DDFF82C08428D120A17
:1002200001F8012D408D01F8010D180A01F8010DAA
:1002300001F8013D207A62681018401A207261604E
:10024000287A03280CBF01200020E0820B2209201D
:10025000207504F12000394902F0B2FC4FF6FF731B
:100260002A460321204601F033FE050004BF204644
:1002700000F035FF284632BDE47000202DE9F0473C
:1002800005460F469246002603F0D2F8DFF8808834
:10029000D8F8004000F0010080F0010913E0607E12
:1002A000400613D560684178C1F3810103290DD15F
:1002B000ED1F411D284603F0ADF8103654F8084CE8
:1002C0006D1EF6B27F1EFFB227B101E054F8084C54
:1002D000002CE4D1B9F1000F18BF03F0A5F803F02A
:1002E000A7F800F00100D8F8001080F001000BE042
:1002F000927905F80129761C4A68527905F8012996
:10030000F6B27F1E51F8081C89B14A685378C3F3CE
:100310008103022BF6D14B7E5B06E9D40A7E92065E
:10032000F0D50122FFB28AF80020002FEAD108B1EF
:1003300003F07AF82E70681EBDE8F087F97000208F
:100340002DE9F04784B0804600208DF800008946F2
:10035000DFF8BC07857A9246082DA8BF0725DFF88D
:10036000E876387B00EBC5003D30C6B2304602F07F
:1003700084FC04004DD030196060002020723A7B6C
:100380006068B968861A304602F01AFC00AA29464D
:10039000701EFFF773FF0021DFF8742B0170527895
:1003A0007978920142EAC11141EA0A1141F00F0144
:1003B00000F8011D48EA091100F8011D6268217A60
:1003C0005118091A217260600B220020E08220750A
:1003D0008DF80C0004F12000DFF8501C02F0F0FB57
:1003E0009DF8000018B1E08A40F00800E0824FF666
:1003F000FE71788D8842ACBF03210221002301AA3F
:10040000204601F065FD0028204602D002F04EFC97
:10041000002004B0BDE8F087F8B5044603F008F802
:1004200000F0010080F00105DFF8E406076800260F
:100430000EE0787E000609D56168786801F0EEFC70
:1004400020B1787E00F0BF0078763E4657F8087CF1
:10045000002FEED11EB1707E40F040007076002D6E
:100460001CBFBDE8F14002F0DFBFF1BD2DE9F8434C
:1004700080468946002402F0DBFF00F0010080F096
:100480000107DFF88C06066800250CE0354605F10B
:100490001800417841F010014170287E40F0800042
:1004A000287656F8086C9EB1707E0006F9D5726801
:1004B0004946404601F0CEFC0028F2D0002DE5D0A0
:1004C000287D012804D16868017841F0100101708D
:1004D0000FB102F0A9FF15B100F0AAFD01242046DA
:1004E000BDE8F2832DE9F04182B00024009402F0CF
:1004F0009FFF00F00100DFF81866376880F0010503
:100500000EE057F8088C22463946304602F0E4FCEB
:10051000394600A802F08AFCB07A401E4746B07205
:1005200067B1787E000605D5788A401E788280B251
:100530000028E6D03C4657F8087CF1E70DB102F000
:1005400073FFB07AE8B1DFF80005DFF8C845407BFB
:100550000F281CBF94F82000002812D1DFF8605C3F
:10056000284602F0FBFA03F0CEF83030686004F160
:100570006C01284602F0C4FA03E06070204600F0E7
:10058000A0FC00A802F075FC040007D0FFF744FFB0
:10059000607E40074CBFE920F020EEE7BDE8F38124
:1005A00070B50546FFF738FFDFF86445DFF898645B
:1005B000A06F80470128F08D08BF401C6882A07A98
:1005C000002804BF707B0F280DD1DFF8F45B2846AC
:1005D00002F0C4FA03F097F8303068602846DFF87C
:1005E0007C1C02F08DFA02F023FFA17A491CA17253
:1005F000002804BFBDE8704002F016BF70BD38B5DA
:100600000446607E00F0EF0060762046FFF704FFAE
:10061000DFF8FC542146284602F04AFC02F008FFAD
:10062000A97A491CA97208B902F0FEFEDFF8180485
:10063000407B0F2806D1BDE83440DFF8D4080078AD
:10064000FFF75EBD31BD000010B50446DFF8F803CA
:10065000407886B0C8B101208DF8000004F11C017B
:1006600000208DF801000DF1020002F0D3FE606859
:1006700000788DF80A000B2204F10F010DF10B0038
:1006800002F09EFA00A803F0AFF806B010BD00001B
:1006900010B50446FFF77BFDDC2818BFDD2808D025
:1006A000E42818BFF32804D0DE281CBFDF28DB288D
:1006B00005D101462046BDE8104001F015BA10BD35
:1006C00010B586B0044606208DF8000004F11C0128
:1006D0000DF1020002F09EFE0B2204F10F010DF15C
:1006E0000A0002F06DFA00A803F07EF806B010BD13
:1006F00010B5044684B094F8360028B304F12B01F9
:1007000001A802F087FE03208DF80C00CE4890F877
:100710003A10C38C009101A9A28E2046FFF770FD0C
:10072000DC2818BFDD280BD0E42818BFF32807D039
:10073000DE2818BFDF2803D0E82818BFDB2803D144
:100740000146204601F0D0F904B010BD2DE9F04378
:1007500085B004464FF00009E72602F069FEDFF895
:10076000B0733D6800F0010080F0010802E0A94686
:1007700055F8085C95B1687E0006F8D5287D0128FB
:1007800002BF95F8390021798842F0D14A462946BE
:10079000384602F0A1FBB87A401EB872B8F1000FDB
:1007A00018BF02F041FE002D3BD02846FFF734FE73
:1007B0002978DFF8D80B085C8DF800000B2805D1EC
:1007C000F0206870284601F029FD29E040B30C288C
:1007D00020D1019595F839008DF80200E868029063
:1007E00005F10C008188ADF80C10817AC90648BF6C
:1007F000002104D49449827B91F83410891A8DF831
:100800000E10417C8DF80F10817C8DF81010C07C8B
:100810008DF81100F0208DF8010000A802F0E4FF2F
:1008200000263146204601F05FF905B0BDE8F083AF
:1008300070B5044684B06078F32818BFDF285AD01A
:10084000E82818BFDB2856D0204600F059F80600EB
:1008500050D1207C00284DD004F11101092000F076
:10086000E9F9050046D002208DF808004FF6FF7622
:10087000ADF80060FF236868A17A228900F8013D85
:1008800000F8013D00F8011D6F494B8D1B0A00F86F
:10089000013D498D00F8011D110A00F8011D00F805
:1008A000012D297A6A685118091A297268609DF821
:1008B000080003280CBF01200020E8820B22092039
:1008C000287505F12000DFF8501C02F079F9334655
:1008D00000AA0321284601F0FBFA060004BF2846BF
:1008E00000F0FDFBF32E18BFDF2E03D0E82E18BF5B
:1008F000DB2E03D16670204600F06AF804B070BDAC
:1009000038B504460025A07A0B38122828BFE82500
:10091000207B1028A8BFE82501DA0F2804D07C49E5
:10092000097E090758BFE825617B884202D20F295A
:1009300018BFE8254448408D4FF6FF71884208BF34
:10094000EC25242002F057FCDFF87418086120B170
:100950002422211D02F034F900E01A25284632BD78
:1009600070B504463848217ADFF8A465C51CA97221
:10097000617A80F82C10E17AC170A07A707003F06F
:10098000B8F8707838B1211D502003F073FAA11D1A
:10099000E12003F06FFA5F49012081F82000A87A76
:1009A0000F2814BF01200020DFF8145828750B22EF
:1009B00004F10D0105F1150002F002F904F118012E
:1009C00005F12000BDE870400B2202F0F9B80000EC
:1009D00010B50446607820B9DFF8E4070069FFF736
:1009E000BFFF2C2020702046BDE8104001F0B7B8B2
:1009F00010B5DFF8CC170446086918B100220A6167
:100A000002F089FC082020702046BDE8104002F06A
:100A1000EBBEDFF8AC173F48097D90F8200081F06D
:100A20000101084200D1704780B50748C27890F8AC
:100A30002C10407BFFF784FC00281CBFBDE802405F
:100A400000F04DBB01BD0000B86C00202DE9F04363
:100A5000814687B099F80E00012409F20E0640077E
:100A600039D5318D09F11C00FFF700FD98BBDFF887
:100A70009C0C407920B1B07D022808BF00242AD008
:100A80000B2209F10F0104A802F09AF8DFF8800C9C
:100A9000408D4FF6FE718842ACBF03270227B6F89F
:100AA000288004A9012000F0C5F8050013D03020EB
:100AB000E8822C750B2204A905F1200002F080F8D1
:100AC000434609F11C023946284601F001FA10B9E3
:100AD000284600F004FB10208DF8000009F11C01ED
:100AE0000DF1020002F070FC308DADF80C008DF8B5
:100AF0000E4000A802F078FE07B0BDE8F083DFF8F2
:100B00001004407800B9704700B500F017BF00002E
:100B1000F842002078420020DFF8F80BDFF8F81BDD
:100B200001F154020263DFF8F42B426301F1440245
:100B300082630FF22002C266DFF8E42B4264DFF822
:100B4000742C0267DFF89C2C0A66018B41F00201CD
:100B500001837047030471040204600411047004EB
:100B600002040204010402041004610400041404D9
:100B7000630473047204620443040004130406044F
:100B8000000400040404120400040004000400042F
:100B90005104640000040004000444040004000440
:100BA00000040004650400043504810464000504A5
:100BB000000483040004000002460146032000F004
:100BC000F6BF02460146052000F0F1BF30B50446ED
:100BD00085B0282002F051F8050004D008202870C4
:100BE000242200F0E7BE082000F0DABE10B5DFF8DE
:100BF000244B0FF2C520606782B00FF2A920A067D6
:100C000006E0204602F035F9009000A801F0A7F8B0
:100C100020680028F5D1606838B1201D02F029F95C
:100C2000009000A801F09BF8F5E72060A072E07248
:100C3000207313BD38B504460FF23800255C2846F2
:100C400002F01BF820B1291841600021017232BD69
:100C5000022002F012F850B10FF2C421615C017061
:100C60001A2141700146AA48007802F033F80020AA
:100C700032BD0000004246484045453F354D3600F4
:100C8000821DD2B2C90711D50A2192FBF1F101EB05
:100C90008103A2EB4301C9B241B10A32521AD2B266
:100CA0000529A4BF0A32D2B20B32D2B21328ACBF8C
:100CB000142006208018C0B209300A2190FBF1F000
:100CC000C0B2704780B5DFF84C0A007E800706D5B9
:100CD00002F0C0FE401E8041C043C00F02BD002094
:100CE00002BDDFF8300A017E89070FD5807A58B936
:100CF000DFF8240AC06D48B1407E00F08001481E34
:100D00008041C043C00F70470120704700207047EA
:100D1000DFF8001ADFF8F429097B9278914238BF96
:100D200001F0ABBF00207047130A20004D0A2000DD
:100D3000FF0A200038B5040008BF03F055F902F09F
:100D400077FB00F00100216880F0010561B1DFF858
:100D5000C4295369A1F108008B4204BF00215161ED
:100D60000021216002F0D7FA0DB102F05DFB0020F6
:100D700032BD00000D1A200011B581B0007B20B1FA
:100D800001282CD003282CD03EE0DFF88449607B7A
:100D90000F281EBFDFF87C09807E032804D0DFF80F
:100DA00078190198496E8847019994F83A00887338
:100DB000142001990870DFF85C490199201D02F0A8
:100DC00035F802F035FB217B491C217308B902F08C
:100DD0002BFB20214E48007802F0D5F813BD1520DA
:100DE000E7E70198007A78B101994A68521C4A6095
:100DF00012F8011D019A5173019A0199D27D497B24
:100E000032B109B10A2912DB01A800F0A8FF13BD15
:100E10000A0008D00A2A06DA0FF23001511811F838
:100E2000011C884203D0082A08BF0828ECD1019988
:100E3000401E087201980199407B0A3008700198A1
:100E40000199407B401C4873B5E700000204020191
:100E50000101010902000000DFF8B808C06F0100BD
:100E600018BF00470020704738B5044601202075A0
:100E700004F1140104F1380042884A800279CA71F1
:100E800004F12C024079087220464B8C94F83810FB
:100E900001F01EF8050004BF204600F020F92846A6
:100EA00032BD0000DFF86C08807E032801D00120ED
:100EB0007047202070470000417E41F001014176DB
:100EC0007047017D027E012904D113075CBF417880
:100ED00000F00ABE530603D50D494078896D0847D6
:100EE000012903D1120748BF30210BD442781B2AB5
:100EF00008BF222106D0002A0CBF0FF218020FF201
:100F00002002895C017001460148007801F0E2BED0
:100F1000FC6E0020303016181920231A1C1E3000D9
:100F2000303017181921301B1D1F300038B5DFF87D
:100F3000E8470546E06D002876D025B11B2D05D188
:100F4000017D052956D00021417055E0E92D2BD1B6
:100F5000807E30B902F082FD18B1E06D807D4007DF
:100F60002BD5EE2003F0C2F9E06D817E002942D03E
:100F7000827D520705D4491E8176BDE8314003F0D9
:100F8000CDBA017E01F07F010176E06D017D03297C
:100F900003D1417E41F004014176ED2003F0A6F932
:100FA000E06D216E88472AE0E12D1CD102F056FD4C
:100FB00000B3E06D807D40071CD4DFF85407E26D7C
:100FC00000F12201897C9176E26D90F8221052683E
:100FD000917090F82210491C80F822100120BDE881
:100FE000324003F0A4B91C2D04D1A16E8847002023
:100FF000E06531BDE06D4570E06DFFF762FFE06DCB
:10100000807D000609D5DFF8080700F22205287E5A
:1010100002F0EDFDE87D02F09CFD0020E06510216E
:10102000BDE8344000F0F4BC31BD00000471002084
:101030002DE9F041002402F0FBF900F00100DFF897
:10104000D85680F00108E86D90BBDFF8C876B86F1D
:1010500080473E6840F0100002E0344656F8086CC5
:1010600036B3717E01408142F7D12246314638467F
:1010700001F032FFEE65707E000620D4F87A401E43
:10108000F872B8F1000F18BF02F0CEF9EC6DE18AEA
:10109000207AFFF7F5FD3881A07D000613D5E07EAC
:1010A00002F0A5FDE86D007FBDE8F04102F051BD02
:1010B000B8F1000F11D0BDE8F04102F0B5B9B87A2F
:1010C000401EB872DDE7207EBDE8F041400800F028
:1010D000010080F0010003F02AB9BDE8F08138B5C5
:1010E000DFF8305604466869A04204BF00206861FA
:1010F000207E000706D4207D012803D1DFF80C06EE
:10110000027802E0DFF8040642782146284601F022
:1011100005FFC0B1696F20468847A07D40070DD408
:1011200002F086F9E97A491CE97208B902F07CF903
:10113000E08AC0050DD4BDE8314079E7296F20462B
:10114000BDE834400847F12060702046BDE83240D9
:10115000B7E631BD6CE710B5DFF8B815098B04466A
:1011600000208A0705D404F134029279520748BF5F
:10117000E8206022114205D104F134018979890700
:1011800048BFE820DFF8681C227A8979914238BF8D
:10119000E82004F134010979002902BF94F83410E1
:1011A0000029F52004D010B92046FFF75DFE28B1D4
:1011B00001462046BDE8104000F096BC10BD00007E
:1011C000E47000200D21017002F00EBB00B585B067
:1011D000002101704170DFF8341590F83A30097839
:1011E000DFF830255B0715D4D27A8A4215D30C215B
:1011F0008DF80010019090F839108DF80210C16838
:1012000002910C308188ADF80C10817AC9060CD59A
:10121000002110E0927A8A42E9D20146DFF8F40B0D
:10122000007801F057FD05B000BDDFF8F017827BB4
:1012300091F83410891A8DF80E10417C8DF80F103A
:10124000817C8DF81010C07C8DF81100F1208DF894
:10125000010000A802F0C8FA05B000BDE442002079
:1012600010B5044604F1580080B201F006FD18B133
:10127000047200F15801416010BDDFF89C0B0FF2C1
:101280005911016002220FF29D4141600FF2C91114
:1012900081600FF22521C1600FF2F13101610FF27F
:1012A0005D3141610FF21D3181610FF20D51C1615C
:1012B0000FF2355101620FF2A55141620FF209613F
:1012C00081620FF25921C1620FF2C50101630FF271
:1012D000910141630FF2793181630FF2D151C16302
:1012E000DFF8DC1B01640FF2F55141640FF2496134
:1012F00081640021DFF8CC0B80F85C1080F85F106F
:101300000FF20971C1633C30016102710121017565
:10131000704730B50446251D83B00120688204F172
:101320002E010220287400A802F04EF86068AB8EEF
:10133000401E606000AA616894F83A00087083213A
:101340002879401C2871204600F0C2FD050004BF2A
:101350002046FFF7C4FE284603B030BD0000000061
:1013600038B5DFF8AC03DFF85C5B90F8350000EBD4
:1013700040010C0102F0C7F90019A86405F144000E
:10138000BDE83440DFF8441B01F0BABB3829200027
:1013900030B5DF4C607B93B00F2807D02E208DF83E
:1013A000000000A800F0DBFB13B030BDDFF8145BD9
:1013B00005F1340001F0D2FB608E1421B0FBF1F492
:1013C00002F0A1F90019A86305F13400DFF8FC1A56
:1013D00001F096FB13B030BD10B50446607888BBB1
:1013E00094F8361002291CBF0329E82094F82B102A
:1013F0000B39122928BFE82025D218BB04F12B0194
:10140000E12002F037FD04F13801502002F032FDF6
:1014100094F83610BE48022902D1E18D018407E01C
:101420004FF6FE710184163004F12E0101F0F2FF37
:101430000B2204F12001DFF8900A01F0C1FB2046E5
:10144000FFF767FF30B16070172020702046BDE8BD
:10145000104084E310BD000070B5DFF8684A94F8CE
:101460005F0084B028BB012084F85F0003F0AAF974
:1014700000A800F0BFFC04F15401A548C58C05206C
:10148000FFF7D8FB060014D00120F0820B220520C4
:10149000307504F1540106F1200001F091FB2B4658
:1014A00000AA0321304600F013FD10B93046FFF7C3
:1014B00016FE04B070BD000010B5044682B00120D5
:1014C00003F099F92078202804BFEB206070DFF842
:1014D000F40990F85F104A0744BF01F0FB0180F85F
:1014E0005F1090F85F108A0710D501F0FD0180F8B9
:1014F0005F100A2160788DF801008DF8001000203F
:101500008DF8020000A802F06FF913BD2A202070A8
:10151000204600F024FB13BDF970002070B505468D
:1015200086B0012003F067F9DFF8984904F1340030
:1015300001F014FB04F1440001F010FB686801782D
:10154000427801EB0221ADF80410867846B901A972
:10155000532002F08FFC05F11C014A2002F08AFCA6
:101560000B2205F10F0104F1540001F029FBBDF835
:1015700004008DF8096002218DF808100EB14FF6B5
:10158000FF70ADF80A000B2204F1540103A801F02A
:1015900017FB02A802F028F994F85F0080070BD52A
:1015A00068788DF801000A2100208DF802008DF87E
:1015B000001000A802F018F9002084F85F0006B0BF
:1015C00070BD000010B5044682B0EB206070DFF8FB
:1015D000F40890F85F0080070BD50A208DF8000012
:1015E000EB208DF8010000208DF8020000A802F029
:1015F000FBF8204600F002F813BD000030B50546A8
:1016000085B0012003F0F7F8DFF8B84804F13400A2
:1016100001F0A4FA04F1440001F0A0FA002084F8DB
:101620005C0084F85F000B2202208DF8000004F1BA
:10163000540168788DF801004FF6FF70ADF8020094
:1016400001A801F0BDFA00A802F0CEF805B030BD47
:1016500010B5044682B0EB206070DFF8680890F89F
:101660005F0080070BD50A208DF80000EB208DF875
:10167000010000208DF8020000A802F0B5F8204615
:10168000FFF7BCFF204600F075FE13BD10B5044601
:1016900082B0012003F0AFF8207A002814BF0020A8
:1016A000EB206070DFF81C0890F85F104A0744BF19
:1016B00001F0FB0180F85F1090F85F108A0716D5E3
:1016C00001F0FD0180F85F10A07B00F01000012800
:1016D000ACBF0120002061788DF802000A228DF84D
:1016E00000208DF8011000A802F07EF808E0C8077D
:1016F00006D52A202070EB206070204600F02FFADB
:101700000D202070204602F06FF813BDA45F220068
:10171000B86C0020F84200207842002010710020B0
:10172000070120002DE9F8430446DFF8980790F8F8
:101730005F1041F0020180F85F10012003F042F8D1
:10174000607840BBB548408D4FF6FE718842ACBF13
:101750000325022504F11008B4F80E901A2641461C
:101760000520FFF767FA070014D00120F8820B224A
:1017700005203875414607F1200001F021FA4B465B
:10178000221D2946384600F0A3FB060004BF384658
:10179000FFF7A5FC6670607850B18DF801000A2152
:1017A00000208DF802008DF8001000A802F01CF84F
:1017B000BDE8F183A105200010B5044682B00120E8
:1017C00003F019F82078202804BFEB206070DFF8C0
:1017D000F40690F85F104A0744BF01F0FB0180F85F
:1017E0005F104DE0FF05200038B50446012003F0EE
:1017F00002F8DFF8D05605F1340001F0AFF9207A95
:10180000002814BF0020EB20607095F85F004107AE
:1018100044BF00F0FB0085F85F0095F85F0081078A
:1018200015D500F0FD0085F85F00A07B00F01000EA
:101830000128ACBF0120002061788DF802000A2247
:101840008DF800208DF8011000A801F0CDFF0D20CB
:101850002070204601F0C8FF31BD000010B50446DD
:1018600082B0012002F0C7FFEB206070DFF8540661
:1018700090F85F104A0744BF01F0FB0180F85F1049
:1018800090F85F108A070FD501F0FD0180F85F1016
:101890000A2160788DF801008DF8001000208DF885
:1018A000020000A801F0A0FF13BD000010B504461F
:1018B000DFF8D40B01F052F92046FFF7CFFF2046A6
:1018C000BDE8104000F056BD10B50446DFF8B80B77
:1018D00001F044F92046BDE81040BFE710B50446CA
:1018E00086B004F11C01DFF8A40B01F049FD08B338
:1018F00009208DF80000EF208DF801006068017864
:10190000427801EB0221ADF8021000798DF8040055
:10191000207A082806BF6068C07900208DF805008D
:101920000B2204F10F010DF1060001F049F900A8A6
:1019300001F05AFF06B010BD4DF804ED85B0092046
:101940008DF80000EE208DF8010000A801F04CFF9A
:1019500005B000BDDFF8380BDFF8BC148162383108
:10196000C1620FF2BC0101660FF218114166DFF887
:10197000241B0164018B41F0010101837047024681
:101980000146022013E130B5044685B01C2001F069
:1019900074F9050003D00620287018220AE00A20F6
:1019A0008DF800001A208DF8010000A801F01CFF3E
:1019B00005B030BD002068702146281D01F000F9F7
:1019C000DFF850040078294601F084F905B030BDF5
:1019D00010B5DFF8BC4A206982B018B104F11000DC
:1019E00000F0BDF90020A076DFF85C0B006858B16C
:1019F00002E000A800F0B3F9DFF81804007801F065
:101A0000ACF900900028F4D113BD00004FEA0001AA
:101A1000DFF80004007801F0B6BA0000B86C0020CE
:101A200001017101010101011101010131010101F6
:101A300001018001100161013B0014006301730189
:101A40007201620143010001130106013D013500ED
:101A50000401120100010001000100010401040160
:101A6000330133013C014401320136000001000121
:101A7000650100013500810100010501820183013A
:101A800000010000030271023001600211027002C5
:101A90000102020202028002100261023A004100C9
:101AA00063027302720262024302000213023800F0
:101AB0000002000204021202000200020002000200
:101AC00004020402370037003C02440200023900DD
:101AD00000020002650200023502810200020502D6
:101AE000820283020002000000B585B00378DFF8AF
:101AF000D42A9A5C8DF800200B2A01D100F03DBB5E
:101B00005AB30C2A24D11A2902D1002001901FE0D7
:101B1000019090F839208DF80220C2680292028A62
:101B2000ADF80C20827DD20648BF002205D4DFF834
:101B30009C2A837E92F83420D21A8DF80E20427FA0
:101B40008DF80F20827F8DF81020C07F8DF8110056
:101B50008DF8011000A801F047FE05B000BD18B4D3
:101B6000DFF82C198A7E037801EB820203F07F03F1
:101B7000D26D037002EB43035B7801EB8304E46DE9
:101B800004B18B76037812F81320140901EB840159
:101B9000C96921B90B2B08DA14BC1821A4E702F09B
:101BA0000F0251F8221014BC084711BC7047F0B561
:101BB00007460FF2800087B03C5C0D46204601F0DE
:101BC0005CF8060016D03770002070702946A01906
:101BD0007060002030720FF268003A5C06F120005D
:101BE00000F0EEFF8B480078314601F073F80020DA
:101BF00007B0F0BDDFF8CC098DF80070385C8DF8C7
:101C000004000B2806D11A208DF8010000A800F06E
:101C100005FB0AE048B10C2804BF002002901A20FE
:101C20008DF8050001A801F0DFFD1A2007B0F0BD16
:101C300000000000000555534D581C2028070200E5
:101C400000011C181A18181C2403000071490870A0
:101C5000704770B50C4682B0A006DFF8345817D430
:101C60001BE001F0E5FB297B491E297308B901F04F
:101C7000DBFB30788DF800006E613046FFF76FFFB8
:101C80009DF8000015281CBF05F1140000F067F84E
:101C9000281D01F0EEF80600E3D1200407D40CE083
:101CA0006861FFF75CFF05F1140000F058F859482F
:101CB000007801F052F80028F2D1E00605D52D2079
:101CC0008DF8000000A8FFF74AFFE00705D52420A3
:101CD0008DF8000000A8FFF742FFA00705D52520DA
:101CE0008DF8000000A8FFF73AFF600705D5262011
:101CF0008DF8000000A8FFF732FF200705D5282047
:101D00008DF8000000A8FFF72AFF600608D5002024
:101D10008DF801002C208DF8000000A8FFF71FFFB0
:101D2000200608D500208DF801002F208DF8000036
:101D300000A8FFF714FF286978B101F079FB2C693E
:101D40000021296108B901F06FFB6C612046FFF7A3
:101D500006FF05F1140000F002F8002076BD38B54A
:101D6000040008BF02F040F901F062FB00F001003E
:101D7000216880F0010561B1DFF814275369A1F1F2
:101D800008008B4204BF002151610021216001F055
:101D9000C2FA002D1CBFBDE8314001F045BB31BD8A
:101DA0001C480FF2D53181600FF2D931C1600FF2BA
:101DB00045410161DFF8241B41610FF261418161FE
:101DC000DFF8541BC161DFF8B41B01620FF2F97137
:101DD000C1630FF2F94101640FF24D5141640FF2FA
:101DE000ED5181640FF28D51C16400214170704743
:101DF000A45F2200DFF8D4170A8C4FF6FE739A42D4
:101E000004BF163101F0E0BA02220272098C01808F
:101E100070470000FC6E00205070002042784B7824
:101E2000C2F38102C3F381039A4211D1022A09D17C
:101E300042794B799A4202BF80798979884207D1E9
:101E400001207047032A03D1491D401D01F0CCBA7F
:101E50000020704770B55478067A0B460021C4F311
:101E60008104B44218D1022C10D15479957900889C
:101E700004EB0524A4B2A0420ED1D078127900EB75
:101E8000022080B2834207D1012105E0032C03D157
:101E9000511D01F0A9FA0146084670BD017ADFF82C
:101EA0002C27022907D1118C0088814201D1012001
:101EB000704700207047014602F1160001F060BA39
:101EC0005B282000BC6D0020106E0020E442002042
:101ED0002DE9F84F1546044600222F7ADFF8EC86EC
:101EE000994608064EBF4FF6FF7608F11400468A61
:101EF00001F07F00A17D89064CBF082100212176D9
:101F0000A17D49074CBF802110216176A17DC906C2
:101F10004CBF002198F83410A176E18ACB0748BF66
:101F20002022090748BF42F010026168237D491E44
:101F3000022B07DB0B2B1CBF5B1E01F8013942F0A3
:101F4000030200E01A4398F84930012B04D1237AA8
:101F5000672BA8BF42F4805242EA80321FFA82FA0D
:101F6000022809D108F11400C28A120A01F80129D5
:101F7000C08A01F801090CE0032809D1A1F1070B7F
:101F800008F13C01584601F045FAABF1010100E0CF
:101F900050B127B14E4508BF4AF0400A04D0301274
:101FA00001F8010901F801694AEA872086B2022F87
:101FB00007D12888000A01F80109288801F80109D9
:101FC00009E0032F06D1CF1F2946384601F022FA37
:101FD000791E00E02FB14FEA192001F8010901F83C
:101FE00001994A1E207D28B998F81430581C88F8A9
:101FF000140004E008F11400837B5D1C85730B70F2
:10200000300A107002F8016D207A61680818801A91
:102010002072626000206070BDE8F28F2DE9F04709
:10202000099F8A460546904699461A263946FEF784
:1020300001FE04001AD00898E08225750B2239466B
:1020400004F1200000F0BCFD4B46424651462046BC
:10205000FFF73EFF060009D1ED1F012D03D8607E7A
:1020600040F0200060762046FFF739F83046BDE8A2
:10207000F08730B5044683B094F83910012001B1DF
:102080000520251D04F12C0168820420287400A875
:1020900001F09AF960686B8E401E606000AA61686A
:1020A00094F83800087003212879401C28712046D4
:1020B000FFF70EFF050004BF2046FFF710F8FFF7FB
:1020C0004AB970B5044605200D4620702E1D95F8BE
:1020D0003D00A0706068F16A416105F11C0101F0EA
:1020E00073F96068718E41810B2295F83A10417442
:1020F000002160680176C17305F10F016068193035
:1021000000F05EFD6168B07A88736868616810F8F5
:10211000012B8A8110F8013B42EA03228A8110F8E0
:10212000012BD3095B1E9B41DB43DB0F0B7402F0D9
:1021300007014A1E9241D24301EB410101EBD271EA
:10214000C9B2081810F8011B2172E060217A01F071
:102150000702490801F0380101EB420108186061EB
:1021600031796A688B18834227BF081A101800203B
:102170002072207470BD00007047417000F04EF86E
:1021800005B000BD00B585B002780FF2AC71515CAE
:102190008DF800100B2901D11921EEE739B30C2974
:1021A0001FD1019090F839108DF80210C16802918A
:1021B000018AADF80C10817DC90648BF002105D405
:1021C000DFF80814827E91F83410891A8DF80E1009
:1021D000417F8DF80F10817F8DF81010C07F8DF832
:1021E000110019208DF8010000A801F0FDFA05B0DA
:1021F00000BD000038B5DFF8B0590446286930B199
:102200001921FFF771FC05F11000FFF7A8FD6869BF
:10221000A04204BF002068612C6131BD10B50446A6
:102220008AB02078032808D0052808D0182804D0C0
:102230001E2818BF1F2802D018E0002000E001204F
:102240008DF8180004F12B0103A801F0E3F8032036
:102250008DF81400DFF87403418DC08CADF80210C6
:10226000ADF8160002218DF80A101CE002208DF84E
:10227000180004F11C0103A801F0CCF803208DF82C
:1022800014000B22DFF84403418DC08CADF802101E
:10229000ADF8160002218DF80A100DF1190004F1B5
:1022A0000F0100F08DFC0B208DF800000B226078F0
:1022B0008DF8010004F10F010DF1190000F080FC10
:1022C00000A801F091FA0AB010BD000038B504462C
:1022D00065789DB9DFF8F412E08EC98C884218BF8A
:1022E000E82504F12C00FFF7D9FD88B1002084F81F
:1022F00039001DB92046FFF7BCFE05463DB16570AB
:10230000192020702046BDE83240FFF728BC31BDBF
:10231000DFF8981894F8390091F8201080F0010047
:102320000843E6D1E825EAE710B586B004218DF828
:10233000041041788DF80510C18EADF8101000F131
:102340002C010DF1060001F03FF80DF10600FFF73A
:10235000A5FD50B14FF6FF74ADF8004000A9532021
:1023600001F088FDDFF84808048401A801F03CFA78
:1023700006B010BD10B588B0044603208DF80400E7
:1023800004F11C010DF1060001F044F860680078CA
:102390008DF80E000B2204F10F010DF10F0000F07B
:1023A0000FFC04F11C00FFF779FD50B14FF6FF74EC
:1023B000ADF8004000A9532001F05CFDDFF8F00704
:1023C000048401A801F010FA08B010BDF0B505466C
:1023D00095B068687D4C4078400611D5A61CE98E02
:1023E000B08C88420CD1DFF8CC07407808B30920C4
:1023F0008DF81800EE208DF8190006A801F0F4F908
:102400000BA80190294600A8FFF75BFE2B208DF852
:10241000000000A8FFF7A3FBA07810B19DF8100002
:1024200028B105208DF8000000A801F0DDF915B0F5
:10243000F0BD94F830000028E2D005F11C00FFF751
:102440002DFD0028DCD105F20F05B68C29460620AB
:10245000FEF7F0FB0700EAD00120F8820B220620ED
:102460003875294607F1200000F0AAFB334604F135
:10247000160203213846FFF72BFD0028D7D1384636
:10248000FEF72DFE15B0F0BDF06D0020CE6C0020E3
:10249000F84200207B122000F8B5054600F0C8FF86
:1024A00000F0010080F001040DB101F087FC01F0A3
:1024B00006FF464D05F22607387D01F098FBF87CB3
:1024C00001F047FBDFF8EC66707801F012FBE88C56
:1024D00001F01FFBB88801F028FB05F13C0001F07A
:1024E00030FBDFF8C476386C010018BF8047786C89
:1024F000010018BF8047B86C010018BF8047F86C16
:10250000010018BF8047386D010018BF8047786D03
:10251000010018BF8047B86D010018BF804700F068
:1025200021FAFFF755FA00203071FEF75FFBFFF745
:1025300037FC05F12901522001F09CFC0CB100F0A0
:1025400073FF0020F2BD00004475002038B504463A
:10255000072000F092FB050010D00920287003220C
:10256000002068702146281D00F02AFB2946BDE89E
:102570003440DFF84006007800F0ACBB31BDDFF836
:1025800034060FF26901416200F108020FF2513185
:1025900081620FF28931C1620FF2091101630FF2FA
:1025A000092141630FF2B1118163DFF8FC15CA61A3
:1025B00000F13C02243048620A620020088301F0E6
:1025C00070BE00003829200070470000B86C002061
:1025D000072202700A7A82708A7AC2704A68426060
:1025E00000220272C969C1607047000038B5044614
:1025F000DFF8C45500206870207A0628A4BFE820C0
:102600006870607A0F2804DB207A032804D0E82061
:102610006870207A032806D1DFF88C05007EC00799
:102620005CBFE820687021462846FFF7D1FF61684B
:1026300005F11800890A81600B22617A0173E17A41
:102640004173217B8173617BC173A17B01740A217A
:102650004174CB4991F83A108174DFF86015A96193
:102660000421017105F12B0004F10F0100F0A8FA1B
:102670006878002804BF607800280CD1681C407876
:1026800008B1EA21697001F002FB262020700420C5
:1026900002F07DF801E0292020702046BDE832409C
:1026A000FFF75DBAF0B5DFF810556E1C0446707880
:1026B00085B005F10C0760B9787F0A2809D001F0D0
:1026C0004FFBE9687A7F511801F80B0CF079401C38
:1026D000F0717869797F40087861491C7977C00783
:1026E00002D4C9B21D29F4DBC9B21D292DD005F1D0
:1026F0002901E12001F0BEFB02208DF810004FF609
:10270000FF737078ADF80830002818BF022804D194
:10271000204600F021F805B0F0BD012807BF0820D1
:1027200080210720832105F12B02019200220092D3
:1027300002AAFFF773FCDB2818BFE52804D0F328B2
:102740001CBFDF28E82805D16870292020702046AA
:10275000FFF705FA05B0F0BD38B5DFF85C446168F5
:1027600094F82920012000FA02F291436160A178D7
:10277000032907D1DFF8380490F8350000EB400159
:102780000D0109E094F824209040401C00EB400229
:10279000150109B901F0E0FA00F0B5FF40196061D8
:1027A00004F11000FEF7ECBD2DE9F043DFF80864FA
:1027B000751C804668788FB002281CBF0128052848
:1027C00040D100207070414600A80A9009A8FFF788
:1027D00078FC06F10C07EC79787E844220D2D6F89A
:1027E0000C900DE0B9F80A00BDF80A10884204D137
:1027F00000A9484600F0C4FD90B9641E09F12409FF
:10280000E4B2002CEED1F068EB7903EBC30624228E
:1028100000A900EB860000F0D3F9E879401CE871CC
:10282000DFF88C03807820B19DF8340008B9787EF9
:1028300010B909A800F0D8FF787E58B1E979814233
:1028400008D101E0E8207070292088F80000404697
:10285000FFF785F90FB0BDE8F08338B5044694F86A
:102860002400032804BF94F82E0003282CD104F17F
:102870001C014A2001F0FEFA60680178427801EB01
:102880000221ADF80010851C00A9502001F0F2FAD9
:102890002878697800EB0120ADF80000AD1C00A994
:1028A0004B2001F0E7FA2946E12001F0E3FA681C29
:1028B0000178407801EB0020ADF8000000A953201A
:1028C00001F0D8FA002000E0E820DFF8EC124870B0
:1028D000292020702046FFF742F931BD5711200012
:1028E00010B5DFF8D44204F1100000F037F901F020
:1028F000FCF9042001F07FFFA078032804BF607872
:10290000002804D004F12A01E12001F0B3FA2046A6
:10291000BDE8104000F068BF5511200000B585B03B
:10292000014600A8FFF754FEFC208DF8010000A826
:1029300000F05AFF05B000BD0C0E020B040B0A0795
:1029400008000F0030B5044685B0202000F095F94E
:10295000050004D0072028701C22FFF72BB80720A1
:10296000FFF71EB891480021C16601674FF47F014F
:10297000416781670021C16770470000C5112000D1
:10298000B86C002010B5894C0020E067E06E68B19B
:10299000616F4068884209DA00F0B5FEE16E4A686E
:1029A0008242B8BF02464A60E06EE067206F38B1ED
:1029B000E16F19B1426849688A4203DAE06701E0D1
:1029C000E06F40B1E06F616F40688842BCBFBDE816
:1029D000104000F0C8BEBDE8104000F0EEBEF8B5F3
:1029E00000F026FD00F00100704D80F00104E86F5A
:1029F000002840D0696F4068814204DA01F0F4FA9F
:102A0000E86F002837D000F07EFEE96F4968884201
:102A100031D3002948BF01F0E7FAEE6F00F008FD5E
:102A200000F0010080F00107E96E05F16C0001E0A3
:102A30000846114621B10A68B142F9D1026004E0AA
:102A400005F17001304600F07CF8E86F864208BF5F
:102A5000FFF798FF0FB100F0E7FC377BB6680CB1C9
:102A600000F0E2FC3846B04700F0E2FC00F0010064
:102A700080F00104C4E7002C1CBFBDE8F14000F069
:102A8000D3BCF1BD38B504460D460EE04749686831
:102A9000C96F20188D4202D1002848BF002068600D
:102AA000002848BF01F0A0FA2D68002DEED131BDFD
:102AB00070B500F0BDFC00F001003C4D2E6FE96EDA
:102AC00080F00104686F4042FFF7DCFF06E0686FAA
:102AD00071688142A4BF081A70603668002EF6D172
:102AE000A86F696F81421CBF686700F0F2FDFFF7B5
:102AF00049FF002C1CBFBDE8704000F095BC70BDC4
:102B000070B504460D4600F093FC00F0010080F023
:102B100001062968284601E00846096819B162687B
:102B20004B689A42F8DA046021602868A04208BF26
:102B3000FFF728FF002E1CBFBDE8704000F074BCFA
:102B400070BD0A6801E011461A462AB11368824234
:102B5000F9D10B60012070470020704770B5044622
:102B600000F066FC114EF16E00F0010080F00105EE
:102B700006F16C0001E00846114621B10A68A14245
:102B8000F9D1026004E006F170012046FFF7D9FF99
:102B9000F06F844208BFFFF7F5FE002D1CBFBDE8B3
:102BA000704000F041BC70BDF84200207842002027
:102BB000B86C0020FC6E0020607100200D1A20000F
:102BC00030B403000C00180015006A1E002D04D05C
:102BD00025780570641C401CF6E730BC704770B463
:102BE00003001C000D001000421E002809D0200028
:102BF000441C2E00751C00783678B042F3D00020BB
:102C000000E0012070BC704770B504000D00160094
:102C1000EDB22A003100200001F0B4FE200070BDAA
:102C20000178407811EB002080B27047C9B20229C8
:102C300004D10278407812EB002019E0C9B20329D0
:102C400007D10278437812EB0322807812EB004020
:102C50000EE0C9B204290AD10278437812EB0322AC
:102C6000837812EB0342C07812EB006000E000783A
:102C7000704780B501F00CFF02BD38B50400A4B266
:102C8000002C01D1002010E014F1080080B200F007
:102C9000B2FA0500002D07D000202860AC80FF208C
:102CA000A87115F1080000E0002032BD38B504001D
:102CB000002C01D105200CE014F8020CFF2801D0F3
:102CC000042006E0B4F108000500280000F023FB12
:102CD000002032BD38B504000D000022290020007C
:102CE000C0B200F001F832BD70B504000D0016004E
:102CF000002D01D105202FE02000DFF87C14097899
:102D0000C0B2884204D32800FFF7D0FF032023E09D
:102D100055F8080C002803D115F8020CFF2804D040
:102D20002800FFF7C3FF052016E005F8024CF6B2B5
:102D3000012E05D12900DFF8440400F0B9F804E0C1
:102D40002900DFF8380400F071F84FF4004120004A
:102D5000C0B200F018F9002070BD2DE9F041040068
:102D60000026002700F064FB10F0010090F0010045
:102D70008046DFF8080400680500002D10D015F823
:102D8000020C2100C9B2884204D1002F01D12F00CA
:102D900000E005E0002F00D12E0055F8085CECE7BC
:102DA000002D06D04FF400412000C0B200F0EBF837
:102DB00005E04FF400412000C0B200F008F9002FF8
:102DC00005D032003900DFF8B40300F085F85FFA6F
:102DD00088F8B8F1000F01D000F026FB3800BDE8FC
:102DE000F081F8B504000D0000F022FB10F00100A6
:102DF00090F001000700DFF8840300680600002E51
:102E00000DD016F8020C2100C9B2884204D13078E6
:102E10002900C9B2884202D056F8086CEFE7FFB229
:102E2000002F01D000F000FB3000F2BDF8B5040027
:102E30000D0000F0FDFA10F0010090F00100070015
:102E4000002045F8080C2068002801D125600AE020
:102E50002068060056F8080C002802D056F8086CC6
:102E6000F8E746F8085CFFB2002F01D000F0DCFA6A
:102E7000F1BD70B50400002500F0DAFA10F0010091
:102E800090F001000600206800280AD020680500A4
:102E900055F8080C2060002045F8080CFF2005F8C4
:102EA000020CF6B2002E01D000F0BEFA280070BD70
:102EB00070B504000D0000F0BBFA10F0010090F0B6
:102EC00001000600206845F8080C2560F6B2002EC7
:102ED00001D000F0A9FA70BDF8B504000D0016008D
:102EE00000F0A6FA10F0010090F001000700206841
:102EF000854203D155F8080C206003E055F8080C12
:102F000046F8080C002045F8080CFF2005F8020CD4
:102F1000FFB2002F01D000F087FAF1BD2DE9F84390
:102F200004000D0016005FF0000800F081FA10F0B8
:102F3000010090F0010081462068002803D125603F
:102F40000120804614E020680700761E57F8080C20
:102F5000002806D0F6B2002E03D057F8087C761E63
:102F6000F4E7F6B2002E03D047F8085C0120804653
:102F70005FFA89F9B9F1000F01D000F055FA404627
:102F8000C0B2BDE8F28370B504000D0020007A499C
:102F90000978C0B2884218D200F04AFA10F0010055
:102FA00090F00100060076480068E4B230F81400A2
:102FB000284373490968E4B221F81400F6B2002EE0
:102FC00001D000F031FA002000E0032070BD70B5A0
:102FD00004000D00200068490978C0B2884218D268
:102FE00000F026FA10F0010090F00100060064489D
:102FF0000068E4B230F81400A84361490968E4B2FB
:1030000021F81400F6B2002E01D000F00DFA0020D5
:1030100000E0032070BD10B50400E4B2FF2C03D122
:1030200000F002FA002000E0072010BD10B50400F7
:10303000E4B2FF2C03D100F0FBF9002000E00720F0
:1030400010BD80B500F0A2F800204C49086001F0E6
:1030500023FD01F0A9FE01F0B3FE00F0ADF8002061
:1030600002BD80B500F001F8FCE770B5002401F066
:1030700041FF43480068E4B230F81400002806D14C
:10308000641C20003C490978C0B28842F1D320007A
:1030900039490978C0B288423DD200F0C9F910F030
:1030A000010090F00100060035480068E4B230F8F5
:1030B00014000500002032490968E4B221F8140028
:1030C000F6B2002E01D000F0AFF92E4804702900AE
:1030D00089B22000C0B22C4AE4B252F824209047B2
:1030E0000500FF202749087000F0A2F910F0010048
:1030F00090F00100060022480068E4B230F81400A5
:1031000028431F490968E4B221F81400F6B2002EE2
:1031100001D000F089F970BD0170401C0A0A0270EC
:10312000401C0A0C0270401C0A0E0270401C7047C2
:103130000170401C0A0A0270401C0A0C0270401CFC
:10314000704730B40300002B01D1002012E00020B2
:10315000040020001500C0B2EDB2A84209D2E4B2CA
:10316000185D0D00EDB2A84201D0002002E0641C01
:10317000EFE7012030BC7047A35F220038750020C4
:1031800044750020AF430020145D220000207649E2
:1031900008807648764908604FF4277074490968BA
:1031A000088048F204007149A1F89C0241F25C5089
:1031B0006E49A1F8A002704738B5012000F01BF855
:1031C0000500002D01D100F00FFF00F031F910F0E3
:1031D000010090F001000400281F654908602800E4
:1031E00000F099F8012063490870E4B2002C01D086
:1031F00000F01AF931BD2DE9F04107000024002646
:103200003F1D17F00300C0B2002802D0391DC0B224
:103210000F1A00F00DF910F0010090F00100050008
:1032200054480078002802D0BFB2112F03D2504872
:103230000068804601E050488046D8F80000C0F39E
:10324000C030002802D0002006001EE0F6B2002E9A
:1032500011D02068C10BC903D8F800201018400411
:10326000400C0843206020684004400CBFB2B842C4
:103270000BDBA04616E0D8F800004004400CBFB2BB
:10328000B8420FDA012006004446D8F80000400496
:10329000400C8044B8F80000002802D1002080468D
:1032A00000E0CAE7B8F1000F27D0D8F800004004CA
:1032B000400CC01B80B2082808D3BFB208EB07013E
:1032C000088057F40042A8F8002005E0D8F8001064
:1032D00051F40041C8F800102649097800290AD0A5
:1032E00023490968414506D1D8F800104904490C22
:1032F00041441F4A116018F10408EDB2002D01D0BD
:1033000000F092F818F00300002801D000F06CFEE5
:103310004046BDE8F08170B50400251F1348844283
:1033200002D31648844201D300F05EFE2868C0F341
:10333000C030002801D100F057FE00F079F810F0FD
:10334000010090F001000600286830F40040286079
:1033500007480068854201D205480560F6B2002E94
:1033600001D000F061F870BDD85B0020DC43002084
:10337000DC650020507600207C460020DC5B0020CD
:1033800038B504000D00207A297A884201D0002047
:1033900019E0207A002801D1002014E0207A0228C8
:1033A00008D120882988884201D1012000E000202E
:1033B000C0B208E0207A032804D12900200000F0E0
:1033C00013F800E0002032BD38B504000D00287A63
:1033D0002072207A032804D12900200000F01AF876
:1033E00001E02888208031BD10B4020008200300CD
:1033F000DBB2002B0BD01000421C0C00611C0078CB
:103400002478A04201D0002002E05B1EF0E70120FA
:1034100010BC704738B504000D00082229002000B8
:10342000FFF7CEFB32BD000080B501F06BFD02E07E
:1034300080B501F063FD00B10120C0B202BDF0B55E
:103440004F4C504A2568954209D02568002655F80A
:10345000267042F82670761C402EF8D3226042F87F
:103460002010F0BD10B50FF23013820853F822205F
:10347000136800F00300C000FF248440A34301FA56
:1034800000F01843106010BD3F49042803D10868BC
:1034900040F4803022E0052803D1086840F4003071
:1034A0001CE0062803D1086840F4802016E00F28AD
:1034B00005D13648016841F00201016070471028CB
:1034C0000DD3A0F110010FF27412490952F8211026
:1034D0001038012200F01F0002FA00F00860704767
:1034E0002949042803D1086820F4803022E0052807
:1034F00003D1086820F400301CE0062803D10868D6
:1035000020F4802016E00F2805D12048016821F022
:1035100002010160704710280DD3A0F110010FF2D5
:103520003012490952F821101038012200F01F0012
:1035300002FA00F00860704715490E2803D10868A8
:1035400040F0006014E00F2803D1086840F00070DC
:103550000EE010280DD3A0F110010FF20812490956
:1035600052F821101038012200F01F0002FA00F07A
:10357000086070470748016841F001010160704729
:1035800008ED00E00040002024ED00E010E000E045
:1035900004ED00E098200D400000000018ED00E070
:1035A0001CED00E020ED00E000E400E004E400E0B9
:1035B00008E400E00CE400E010E400E014E400E0C3
:1035C00018E400E01CE400E020E400E024E400E073
:1035D00028E400E02CE400E030E400E034E400E023
:1035E00038E400E03CE400E040E400E044E400E0D3
:1035F00048E400E04CE400E050E400E054E400E083
:1036000058E400E05CE400E060E400E064E400E032
:1036100068E400E06CE400E070E400E074E400E0E2
:1036200078E400E07CE400E080E400E084E400E092
:1036300088E400E08CE400E090E400E000E100E0D9
:1036400004E100E008E100E00CE100E010E100E04E
:1036500080E100E084E100E088E100E08CE100E04E
:1036600090E100E080E200E084E200E088E200E037
:103670008CE200E090E200E080B5002001F0DDFD8A
:103680005FF47F0000F025F87FF0080052490860E1
:103690005248006850F00800504908607FF0100060
:1036A0004D4908604D48006850F010004B490860D3
:1036B00001BD80B54948006830F0100047490860F6
:1036C0004648006830F0080044490860FFF7D4FF1E
:1036D00001BD38B5040001F061FDA04201D300F046
:1036E00083FCFFF7A5FE10F0010090F0010005003B
:1036F0003B480460200001F020FEEDB2002D01D017
:10370000FFF792FE31BD38B5FFF792FE10F00100D1
:1037100090F00100040001F041FD0500E4B2002C2E
:1037200001D0FFF781FE2E480068854201D30020BA
:1037300000E0280032BD38B5FFF77AFE10F0010036
:1037400090F00100040001F052FD0500E4B2002CED
:1037500001D0FFF769FE22480068854201D30020AE
:1037600000E0280032BD38B504001D4800688442DE
:1037700001D300F039FCFFF75BFE10F0010090F080
:103780000100050017480460200001F08FFD01F0E2
:1037900005FD84420BD17FF010000F490860EDB2A7
:1037A000002D01D0FFF740FEFFF719F904E0EDB25C
:1037B000002D01D0FFF738FE31BD704780B5FFF70F
:1037C0000EF901BD80B501F0A2FEFFF771F901BD50
:1037D00003480068704700000C88084008880840CB
:1037E00004750020087500202DE9F14382B002988D
:1037F0000578AE48EDB2405DADF80000BDF80000C0
:10380000002800F02581EDB20D2D1AD16946532014
:1038100000F007FBBDF800004FF6FE71884209D0AA
:10382000BDF800004FF6FF71884203D00298007A7D
:10383000002803D102A8FEF792FA09E102980400D9
:1038400055E0EDB2052D08D1BDF800000299097CC4
:1038500024310818ADF8000015E0EDB2072D12D1A3
:1038600002988078002805D1BDF800001B30ADF823
:10387000000008E0BDF800000299097A242202FB4A
:103880000100ADF80000BDF80000FFF7F6F90400F4
:10389000002C25D1EDB20C2D21D1029840680028D2
:1038A0001DD0FFF7C5FD10F0010090F001000600EB
:1038B0000298001DFEF753FABDF80000FFF7DDF98E
:1038C0000400002C05D1F6B2002E01D0FFF7ACFDAC
:1038D000BEE0F6B2002E01D0FFF7A6FD00E0B7E093
:1038E0007248EDB2425D02992000FFF769F9EDB22E
:1038F000052D12D12422616814F11800FFF760F938
:1039000014F118006060227C616960682430FFF760
:1039100057F960682430606127E0EDB2072D24D1AB
:1039200026006348006800281FD06148076800200F
:103930005F490860B078002808D116F11000F060E7
:103940001B223900F068FFF73BF90BE016F110007D
:10395000F060307A242101FB00F2390016F11000EA
:10396000FFF72EF93800FFF7D6FC52480068002810
:1039700005D020004F490968884700285DD1EDB285
:103980000D2D41D102984068007810F0030602988E
:1039900040680078C0F3830702984068407810F0D0
:1039A000E008F6B2022E0FDA38004349897CC0B233
:1039B000884209D15FFA88F8B8F1000F04D1029863
:1039C00090F82400022803D002A8FEF7C8F93FE0CF
:1039D00014F11C0919F11E0199F81F0000F040F8BC
:1039E0000298C08C4FF6FF71884221D1029840683E
:1039F000807902281CDB200002F029F8002802D080
:103A000002A8FEF7ACF923E0EDB20C2D10D102981C
:103A100040781A280CD026007068002808D07068FA
:103A2000807DC00704D516F10F01307C00F018F836
:103A3000210022480078FFF74DF9EDB20C2D07D197
:103A400002984068002803D00298001DFEF787F90D
:103A5000BDE8F78380B501F095FF02BD00207047F7
:103A6000174A1278002A1ED00A78C0B2322802DA29
:103A70003223180004E0C0B26F2801DB6E23180067
:103A80000F4B1B78012B08D192B2C0B2B0F13203B8
:103A90005A433C2392FBF3F2FFE792B2FF2A01DD87
:103AA000FF22FFE70A707047000000002C5F220031
:103AB000B8750020BC750020446D002012760020EF
:103AC0007D7600200B2092490870FF2091490870F4
:103AD000FF2091490870FF2090490870704780B519
:103AE00000F003F900F03CF901BD80B501F015FBD1
:103AF00002BD8B490968C0B2002801D0012200E054
:103B0000002231F00201D2B251EA4201844A11602E
:103B1000704780B200F0FF01824A1160010089B253
:103B2000090A89B2804A1160704780B200F0FF0133
:103B30007E4A1160010089B2090A89B27C4A11608B
:103B4000704710B50400082221007A4801F0DAFF1E
:103B500010BD70B50400784E96F9000040B2210007
:103B600049B2884202DA3078040008E0200040B20E
:103B700096F9011049B2884201DA70780400FFF723
:103B800057FC10F0010090F001000500FF20624991
:103B90000870EDB2002D01D0FFF746FC00F003F8ED
:103BA0002000C0B270BD10B5FFF742FC10F001005C
:103BB00090F001000400584800785849097888427C
:103BC0000FD05E48007800280BD15D4800780006D1
:103BD00007D4514800785149087050480078594935
:103BE0000860E4B2002C01D0FFF71EFC10BD38B510
:103BF0000400E4B20B2C02DBE4B21D2C01DB00F06C
:103C0000F3F9FFF715FC10F0010090F0010005003A
:103C10003F4804704A480078002801D100F006F8B7
:103C2000EDB2002D01D0FFF7FFFB31BD10B54448C8
:103C30000078002801D000F0D7F9FFF7F9FB10F069
:103C4000010090F001000400314800783149097802
:103C5000884216D02E4800782E490870E4B2002C15
:103C600001D0FFF7E1FB00F04EFE2A480078052165
:103C700048432C383449086001F0D1FF00F0F7FDCB
:103C800004E0E4B2002C01D0FFF7CEFB10BD10B56C
:103C900004002E480078002801D000F0A5F92C4837
:103CA0000078002801D000F09FF9E4B2002C03D185
:103CB00001202749087017E0E4B2032C03D1032048
:103CC0002349087010E0E4B2012C04D0E4B2022CC5
:103CD00001D000F089F902201D490870FF20114928
:103CE0000860FF201049086010BD002018490870C6
:103CF000184890F8260000F0FF000A4908601548AF
:103D0000C08C80B2000A80B207490860704700008A
:103D10002D7600202C7600202E7600202B76002099
:103D200000860840C8850840CC850840D0850840FA
:103D3000D4850840A8850840405D220031760020E7
:103D40003C760020408608403C860840AB4300207B
:103D500030760020B86C002080B501F0B6FB01BDC4
:103D600038B501F0BDFB49380400200040B200F036
:103D700004F805002800C0B232BD010049B211F1BB
:103D8000570F03DA7FF05602110004E049B20B2905
:103D900001DB0A22110049B211F15702FF235A43F5
:103DA000612392FBF3F21000C0B2704738B50400F3
:103DB0000D00200040B2FFF7E0FF32BD00B589B032
:103DC000202284496846FEF7FBFE834883498C2203
:103DD00002F056FC202269467E48FEF7F1FEFFF70E
:103DE00084FE7D4981F82200FFF77FFE7A4908753D
:103DF00009B000BD0100C9B2402906DBC9B25E2985
:103E000003DAB1F14000C0B20AE0C9B2E02906DB32
:103E1000C9B2F02903DA11F13E00C0B200E02E2051
:103E20007047F8B504000D002000C0B2FFF7E2FFB4
:103E30000600C0B22E2801D1F4201AE0FFF7F8FAEC
:103E400010F0010090F0010007006548F6B200EBA9
:103E50008600427860486249F6B211F826100144A3
:103E60002800FEF7ADFEFFB2002F01D0FFF7DCFA0D
:103E70000020F2BDF8B504000D00E4B2452C03D1DA
:103E8000554885600020A3E02000C0B2FFF7B2FFD4
:103E90000600C0B22E2801D1F42099E05048F6B2B5
:103EA00000EB86008078002806D14D48F6B200EB82
:103EB0008600C07800282CD04948F6B200EB860076
:103EC00080784749F6B201EB8601C978884201D172
:103ED000FB207DE0E4B2582C09D128888F2804DB30
:103EE000288846F2B141884201DBE82070E028785A
:103EF0003B49F6B201EB86018978884207D33848FE
:103F0000F6B200EB8600C0782978884201D2E8201A
:103F10005EE0FFF78DFA10F0010090F0010007005D
:103F20002F48F6B200EB8600427829002A482C4B35
:103F3000F6B213F826301844FEF742FEFFB2002F07
:103F400001D0FFF771FAE4B2200050280ED05228B9
:103F500016D053280FD0E02829D0E1281DD0E22820
:103F600021D0E52829D0E6282CD030E01A48C08C92
:103F7000FFF7CFFD2BE01848408DFFF7D6FD26E078
:103F8000154890F82900002803D0022000F0FFFB1C
:103F900002E0022000F02FFC19E00F4890F83A00F0
:103FA000FFF725FE13E00F48FFF7CBFD0FE00A48AF
:103FB00090F83900FFF7CDFD09E02878064981F82F
:103FC000480004E02878044981F84900FFE7002010
:103FD000F2BD0000246D0020B86C0020905A220031
:103FE00080582200F46C002080B500F001F801BD7B
:103FF000F0B583B0FFF71CFA5FF400109A4908602F
:1040000002F024FC994800680003FBD50820984979
:104010000860FFF7AFFA02F0C3FB02F093FB02F077
:104020005BFB02F0EBFB0121924802F0E6FC02216F
:10403000904802F0E2FC04218E4802F0DEFC0821E8
:104040008C4802F0DAFC002201218A4802F0BFFC11
:1040500000220221874802F0BAFC00220421854890
:1040600002F0B5FC00220821824802F0B0FC1021C9
:10407000814802F0C2FC002210217F4802F0A7FC18
:1040800020217D4802F0A9FC00220121794802F09C
:104090009EFC00220221774802F099FC00220421B4
:1040A000744802F094FC00220821724802F08FFC50
:1040B00000200400002000900098B0F5503F03D28B
:1040C0000098401C0090F7E701216A4802F07AFC52
:1040D000C243D2B20121674802F079FC022165484F
:1040E00002F070FCC243D2B20221624802F06FFCBF
:1040F0000421604802F066FCC243D2B204215D484C
:1041000002F065FC08215B4802F05CFCC243D2B2BD
:104110000821584802F05BFC58480078002803D07A
:104120000020564908709EE00821554802F04AFCDC
:10413000002801D1641C01E000200400E4B20A2C34
:10414000B8D1002201214B4802F041FC002202219B
:10415000484802F03CFC00220421464802F037FCAB
:1041600000220821434802F032FC00200500B5F58A
:10417000FA7F09DA0821424802F024FC002801D124
:10418000002005006D1CF2E700200500002006005D
:10419000F6B2042E61DA0821394802F013FC002837
:1041A000F9D101220121334802F011FC022202213F
:1041B000304802F00CFC042204212E4802F007FCD7
:1041C000EDB2002D05D1082208212A4802F0FFFB9C
:1041D00004E000220821274802F0F9FB0020070034
:1041E000B7F5FA7F09DA0821254802F0EBFB002831
:1041F00001D1002007007F1CF2E7002201211D48A9
:1042000002F0E5FB002202211A4802F0E0FB002246
:104210000421184802F0DBFB00220821154802F0B7
:10422000D6FB01A8F6B2805D0121D5F107029140CD
:10423000084205D0012201210E4802F0C8FB04E02B
:10424000002201210B4802F0C2FB6D1CEDB2082DCB
:104250009ED100200500761C9AE700220121054826
:1042600002F0B5FB24E7F7BD08ED00E004200D40A7
:1042700008300D4000B00D4000A00D401976002020
:1042800000900D4010B5FFF7D3F810F0010090F04A
:104290000104E4B2002C01D0FFF7C6F82000C0B240
:1042A00010BD80B500F034FEFFF70CFC00F068FA9A
:1042B00001F062FC00F032F8FFF7DEF901BD80B5D5
:1042C000FFF7E0FF002801D0FFF78EFE06480078D8
:1042D000002803D101F098FCFFF701FCFFF7E9F992
:1042E00002F014FC01BD0000AB43002010B582B009
:1042F0000400E4B2E72C0FDBE4B2EF2C0CDA6946E1
:104300002000C0B2FFF78DFD0098401C0090694668
:104310002000C0B2FFF7AEFD13BD00000020DFF8A3
:10432000241408700020DFF820140870704770B55E
:104330000400DFF810040078002801D0FFF754FED5
:104340000120DFF800140870DFF80004007800286E
:1043500003D01D2000F0D0F99FE0DFF8F4030470D3
:10436000DFF8EC030078022802D102F06BFD40E098
:10437000DFF8DC030078002806D0DFF8D4030078EB
:10438000012801D0FFF730FE0020DFF8C8130870C5
:10439000DFF8C4030068807D400607D5DFF8BC0362
:1043A00090F84600DFF8B813087006E0DFF8AC03B9
:1043B00090F82500DFF8A8130870DFF89403007860
:1043C000002814D1DFF89403C07800280FD0DFF85C
:1043D00090030078032804DB0220DFF884130870C0
:1043E00005E0DFF87C030078DFF87413087000F054
:1043F00055F8DFF85403007800282CD1DFF8580373
:104400000068002801D1FFF7EFFDDFF84C030068DA
:104410004068007810F02000DFF848130870DFF8DB
:104420003803006840688078DFF83C130870DFF8D4
:1044300028030068007A0600C74800684068401EEC
:104440000500B01C2870EE20C8490860711CC9B274
:10445000280001F06BFBFEF7EBFF10F0010090F07D
:1044600001000500C248007800280ED1C14800783C
:1044700000280AD18320B3490870EDB2002D01D085
:10448000FEF7D2FF00F020F807E00220AD490870E7
:10449000EDB2002D01D0FEF7C7FF70BD80B5FFF76C
:1044A00024FB0121AE4A92F900209140491E0840A8
:1044B000B1490870A6480078002802D102F072FCC9
:1044C00001E002F02BFC01BD80B5AC48006840085B
:1044D0004000AA4908600020A64908709C4800785E
:1044E000022802D102F0CAFC01E000F001F801BD8F
:1044F00080B59748007800280DD1FCF7ADFC9E49A7
:104500000978C0B2814203D31C2000F0F5F804E022
:1045100002F07FFC01E002F07CFC01BD80B50120CF
:1045200089490870ED20FFF7E1FE89480078FFF720
:10453000FEFE01BD10B58E480078002803D18D48DD
:104540000078002801D0FFF74FFDFEF771FF10F053
:10455000010090F0010004007A48007802280AD196
:10456000832078490870E4B2002C01D0FEF75CFF8C
:10457000FFF7AAFF04E0E4B2002C01D0FEF754FFDD
:1045800010BD80B572480078002805D070480078CA
:10459000012801D0FFF728FD04206A49087000F0C7
:1045A0007AF96C480078401C6A4908706B4890F8AA
:1045B000240068490978884203D2E12000F09CF881
:1045C00019E067480078401C644991F8311088422E
:1045D00005DA63480078401C6149087004E05F48D0
:1045E00090F831005E490870FFF758FF8320554965
:1045F0000870FFF77DFF01BD10B5FEF719FF10F041
:10460000010090F0010004004E48007883281AD180
:104610005448007800280BD185204A490870E4B23C
:10462000002C01D0FEF700FF002000F065F80FE03D
:1046300086204449087002F07CFCE4B2002C01D0D2
:10464000FEF7F2FE04E0E4B2002C01D0FEF7ECFE2F
:1046500010BD70B504000D00FEF7EAFE10F0010079
:1046600090F0010006003748007886281ED1872088
:104670003449087002F0C3FCF6B2002E01D0FEF7F8
:10468000D3FE200038490978C0B288420AD1EDB281
:10469000002D03D01B2000F02FF80CE0002000F0CC
:1046A0002BF808E0E92000F027F804E0F6B2002E2D
:1046B00001D0FEF7B9FE70BD10B5FEF7B9FE10F0DF
:1046C000010090F0010004001E48007886280DD1FA
:1046D00087201C49087002F092FCE4B2002C01D043
:1046E000FEF7A2FEE92000F007F804E0E4B2002C97
:1046F00001D0FEF799FE10BD10B50400002012494C
:10470000087000200F49087000F0C5F8FFF74BFA59
:10471000FFF78CFA2000C0B2FCF708FC10BD80B592
:104720000D480068002801D1FFF75EFCFFF703F891
:1047300009490968C86000F014FD07490968088242
:1047400001BD00003C76002043760020AB430020F2
:104750003D76002040760020D4420020B86C002036
:104760003E760020427600204176002038880840BE
:104770002F760020317600203F760020908608407A
:10478000002079490870002078490870704738B5D2
:104790000400E4B2002C01D1FFF726FCFEF748FE2E
:1047A00010F0010090F0010005006F4800782043F0
:1047B0006D49087000F08FF8EDB2002D01D0FEF7C2
:1047C00033FE31BD38B50400E4B2002C01D1FFF74F
:1047D0000BFCFEF72DFE10F0010090F0010005002B
:1047E00061480078204360490870EDB2002D01D087
:1047F000FEF71AFE31BD38B50400E4B2002C01D139
:10480000FFF7F2FBFEF714FE10F0010090F001003C
:1048100005005548007894F0FF010840524908709F
:10482000EDB2002D01D0FEF7FFFD00F034F831BDF0
:1048300010B5FEF7FDFD10F0010090F0010004003E
:10484000002049490870002048490870EF20484975
:104850000860ED2046490860ED2045490860E4B253
:10486000002C01D0FEF7E0FD01F0D9F910BD10B524
:10487000FEF7DEFD10F0010090F0010004003A4860
:104880000078002801D000F026F8E4B2002C01D016
:10489000FEF7CAFD10BD10B5FEF7CAFD10F001000D
:1048A00090F0010004003048007800280DD1314814
:1048B0000078000609D430480078002805D12F4838
:1048C0000078000601D400F01EF8E4B2002C01D0FC
:1048D000FEF7AAFD10BD10B5FEF7AAFD10F001000D
:1048E00090F00100040021480078002805D1012043
:1048F0001E490870E3201E490860E4B2002C01D074
:10490000FEF792FD10BD38B5FEF792FD10F00100E4
:1049100090F0010004001548007800281ED0002007
:1049200012490870EF2012490860ED201049086014
:10493000ED200F490860FEF77BFD10F0010090F0BC
:10494000010005002A20FEF7F7FD7FF004000C4966
:104950000860EDB2002D01D0FEF766FDE4B2002C38
:1049600001D0FEF761FD31BD3B7600203A76002094
:10497000388808402F760020317600203C760020D1
:104980003488084062F30F2262F31F42401810F08F
:10499000030308D0C91A1FD3DB0748BF00F8012D55
:1049A00028BF20F8022D130030B4144615461039E4
:1049B00028BF20E93C00FAD8490728BF20E90C00AD
:1049C00048BF40F8042D890028BF20F8022D48BFB9
:1049D00000F8012D30BC7047C91818BF00F8012D30
:1049E000CB0728BF00F8012D7047E80310B504007D
:1049F000E4B2002C07D1FF20FEF718FB00210020B5
:104A000002F07BFB0EE000201F4908701E48007872
:104A1000002801D0012000E000200FF25501C0B2B3
:104A200002F06BFB10BD010018480078FF2803D18D
:104A300016480170012000E00020704770B50400A6
:104A40000D0012480078FF2810D00420FEF715F959
:104A50000600002E08D0C0203070B570F470310010
:104A60000A480078FEF736F9002000E0012070BD0A
:104A700070B504000D0000263100C9B22000C0B29C
:104A8000FFF7DCFF002870BD4F760020AE4300200A
:104A900080B500F051FB02BD0020C149086070479D
:104AA0002DE9F04104000D001600290089B2200014
:104AB000C0B200F032F88046B8F1000F03D0C8F859
:104AC0000460404627E01020FEF795FB8046B8F1D1
:104AD000000F1FD088F80A40A8F80850C8F80460F2
:104AE0000020C8F800000020C8F80C00AD4800689D
:104AF000002803D1AB48C0F8008009E0A94800684D
:104B000007003868002801D03F68FAE7C7F800803E
:104B1000404600E00020BDE8F08110B40200A14B47
:104B20001B68180000280BD003890C00A4B2A34214
:104B300004D1837A1400E4B2A34201D00068F1E703
:104B400010BC7047002801D00021018170472DE979
:104B5000F04104000D001600FEF76AFC10F00100A1
:104B600090F0010007003200290089B22000C0B295
:104B7000FFF796FF8046FFB2002F01D0FEF754FCEE
:104B8000B8F1000F01D0002000E00820C0B2BDE85D
:104B9000F0812DE9F04104000D001600FEF748FCFD
:104BA00010F0010090F0010007003200290089B2E6
:104BB0002000C0B2FFF774FF8046B8F1000F01D0AB
:104BC000C8F80C60FFB2002F01D0FEF72DFCB8F141
:104BD000000F01D0002000E00820C0B2BDE8F08145
:104BE000F8B504000D00FEF723FC10F0010090F072
:104BF00001000600290089B22000C0B2FFF78DFF36
:104C00000700002F02D03800FFF79CFFF6B2002EFD
:104C100001D0FEF709FC002F01D0002000E00620A3
:104C2000C0B2F2BD2DE9F04104000D000027FEF7EF
:104C3000FFFB10F0010090F001000600290089B28E
:104C40002000C0B2FFF769FF8046B8F1000F02D024
:104C5000D8F804000700F6B2002E01D0FEF7E4FBFE
:104C60003800BDE8F0812DE9F04182B004000094E5
:104C7000FEF7DEFB10F0010090F00100050048484F
:104C80000068201846490860EDB2002D01D0FEF7FB
:104C9000CBFB4448006800287BD0424800680600EF
:104CA00000200700002E74D05FF00008FEF7C0FB64
:104CB00010F0010090F001000500BDF8020000288E
:104CC0001AD19DF80100002816D130799DF8001006
:104CD000884205D330799DF80010401A307116E0F3
:104CE00000987168884204D270680099401A706018
:104CF0000DE0002070600AE000987168884204D2DC
:104D000070680099401A706001E000207060B088FF
:104D100000280ED1F08800280BD1F068002808D0B8
:104D20003089002805D03189B07AFEF72CF9F06877
:104D30007060B088002802D1F088002802D0308945
:104D400000280AD1002F03D130681649086001E01D
:104D500030683860B046366801E037003668EDB23A
:104D6000002D01D0FEF760FBB8F1000F9AD0B8F823
:104D70000400002809D1B8F80600002805D1B8F8C9
:104D8000081098F80A00FEF7FEF84046FEF7C3FA4E
:104D900088E7BDE8F3810248006870470000000022
:104DA000507500204C7500200020044988710020B7
:104DB0000249088070470149887170478874002053
:104DC00010B500242548007880B2400080B2FEF77C
:104DD00012FA234908602148007842000021204847
:104DE0000068FDF711FF2000C0B2FCF72FFF641C24
:104DF0002000C0B202F006FA641C002003F001FF9C
:104E00002000C0B200F02EF8641C2000C0B204F0F4
:104E100013F9641C2000C0B204F0F0F9641C2000F7
:104E2000C0B204F0B5FD641C2000C0B205F0C0F8AB
:104E3000641C2000C0B206F013FB641C2000C0B24A
:104E400006F0F8FD641C2000C0B208F0BBFD641C35
:104E50002000C0B208F02EFF10BD00BFA35F2200EB
:104E60004475002021490870704780B508F07EFF26
:104E700008F0AAFF08F0B2FF09F020FB02F012F9D7
:104E800001BD70B504000E00300413D5174800783A
:104E9000FDF763FF0500002D08D02800FDF706FF91
:104EA00012480078FDF759FF0500F4E796F400403A
:104EB00080B21AE0B00605D509F04BF896F0200054
:104EC00080B212E0F0060FD502F05CF908480078D5
:104ED000002805D16422102104480078FFF737FE2E
:104EE00096F0100080B200E0002070BD1A7600201D
:104EF0001D76002080B509F0EDFA01BDEFF31080BA
:104F000072B67047EFF3108062B6704740BF7047CB
:104F100070B588B01420DFF8341608603F20DFF841
:104F2000301608605520DFF82C160860FC20DFF8EA
:104F3000281608608520DFF8241608600120DFF8B5
:104F4000201608601520DFF81C1608600020DFF826
:104F5000181608601020DFF8141608600E20DFF81D
:104F6000101608600320DFF80C1608600920DFF82F
:104F7000081608600B2004210860FF20DFF8FC15EC
:104F8000086080212A20FEF76DFA80212B20FEF791
:104F900069FA2A20FEF778FA2B20FEF775FA8021AD
:104FA0003120FEF75FFADFF8D8050068000CDFF863
:104FB000D4150860FEF73CFA10F0010090F00100F3
:104FC00004000220DFF8C01508600020DFF8BC15DF
:104FD00008602820DFF8B8150860E4B2002C01D082
:104FE000FEF722FADFF8AC0500680003FAD5DFF817
:104FF000A805006850F00300DFF89C150860DFF892
:10500000980500684007FAD5DFF88C05006850F075
:105010000A00DFF8841508603120FEF735FA4820D1
:10502000DFF878150860FFF756FCDFF874050068B4
:10503000C007FAD50022110000221000C0B21028CB
:1050400009DA89B2DFF85C25126812F0010252EA2F
:105050004101401CF2E789B2002903D089B2B1F5C1
:10506000607F02D14BF6BE22110089B201F0FF022F
:10507000DFF834351A6089B2090A89B2DFF82825C9
:105080001160DFF8C414096800291ED00020050053
:10509000EDB2202D14DA002000210E00F6B2082E09
:1050A00009DAC0B24000DFF8FC14096811F0010110
:1050B0000843761CF2E76946EDB248556D1CE7E7F8
:1050C0006846DFF8841409688847FFF71CFC402015
:1050D000DFF8C8140860DFF8C404006850F020004E
:1050E000DFF8B81408600020DFF8C0140860002062
:1050F000DFF8BC1408600020DFF8B8140860002056
:10510000DFF8B41408600020DFF8B0140860002055
:10511000DFF8AC14086008B070BDDFF8A8040068C0
:1051200030F00C0050F00400DFF898140860DFF84D
:1051300098040068C0B27047DFF88814096831F03D
:105140000C0151F00401DFF87C241160DFF87814C1
:10515000096809020800DFF850140968081880B2CD
:10516000704738B5FEF764F910F0010090F00100C7
:1051700005000120DFF810140860DFF8140400684F
:1051800000020400DFF8040400680443EDB2002DBF
:1051900001D0FEF749F9200080B232BD10B582B0CF
:1051A000FEF746F910F0010090F001000400002025
:1051B000DFF8D4130860DFF8D4030068DFF80C04CC
:1051C00000688DF80000DFF8080400688DF8010021
:1051D000DFF8000400688DF8020000208DF803005D
:1051E000E4B2002C01D0FEF71FF9009816BD10B5EF
:1051F00082B0FEF71DF910F0010090F001000400EC
:105200001020DFF884130860DFF8C00300688DF811
:105210000000DFF8BC0300688DF80100DFF8B4037C
:1052200000688DF8020000208DF80300E4B2002C25
:1052300001D0FEF7F9F8009816BD11B581B00198BC
:10524000000E002801D0FEF7CFFEFFF7A7FFDFF822
:10525000881309684018DFF880130860DFF87803C6
:1052600000680199401ADFF870130860FEF7E0F853
:1052700010F0010090F0010004000020DFF8081396
:1052800008609DF80400DFF8441308609DF80500ED
:10529000DFF83C1308609DF80600DFF8381308605B
:1052A000E4B2002C01D0FEF7BFF813BD31B50025E4
:1052B0000098000E002801D0FEF796FEFEF7B8F821
:1052C00010F0010090F001000400DFF81003006806
:1052D000C00609D501200500DFF80003006830F0A2
:1052E0001000DFF8F81208603020DFF89C12086028
:1052F0009DF80000DFF8D41208609DF80100DFF887
:10530000D01208609DF80200DFF8C81208607FF034
:105310001000DFF8CC120860EDB2002D07D0DFF8E6
:10532000BC02006850F01000DFF8B0120860E4B270
:10533000002C01D0FEF778F831BD31B5002500987A
:10534000000E002801D0FEF74FFEFEF771F810F0B6
:10535000010090F001000400DFF8800200680007FF
:1053600009D501200500DFF87402006830F008005C
:10537000DFF8681208602020834908609DF800006B
:10538000DFF8481208609DF80100DFF84412086059
:105390009DF80200DFF83C120860DFF84402006864
:1053A00030F00800DFF838120860EDB2002D05D0AB
:1053B0008A48006850F0080088490860E4B2002C70
:1053C00001D0FEF731F831BD38B5844800680400DB
:1053D000834800680500EDB2E4B214EA0500C00697
:1053E00005D5FEF7EBF97FF010007D490860EDB2BE
:1053F000E4B214EA0500000706D5FEF7E3F97FF0F2
:105400000800774908600BE0EDB2E4B214EA050049
:10541000C00705D500F06EF87FF001007049086004
:1054200031BD10B57048006804002A20FEF784F8EA
:105430006E480068E4B22040000706D57FF00800FF
:105440006A49086001F0E8FD1AE068480068E4B2C3
:105450002040C00606D57FF010006449086001F0C6
:10546000E5FD0DE061480068E4B22040C00707D5C3
:105470005D480068400840005B49086001F025F87D
:105480005B48006804005B480068E4B220404007C5
:1054900009D500F021FC7FF0040056490860564809
:1054A00000684006F5D410BD10B5544800680400EB
:1054B00053480068E4B22040400705D57FF004005F
:1054C0004F49086001F064F810BD7FF07F004D493E
:1054D00008704248006850F0010040490860704779
:1054E0003E480068400840003C490860454890F943
:1054F00000007047444909680800424991F90010CA
:10550000020052B2914201DA3E490870704710B56C
:10551000FDF78EFF10F0010090F00100040031480B
:105520000078002807D1FEF753F92B490968401885
:105530002949086002E000202A490870E4B2002CE2
:1055400001D0FDF771FF10BD14750020A48608403E
:10555000AC860840B086084058860840A0860840BF
:10556000B8860840C886084008860840D4860840A7
:10557000D8860840DC860840E887084094870840C1
:10558000F80F28000C750020108808401488084087
:105590001888084004200D400488084024860840EC
:1055A000648608409C86084014700D409085084031
:1055B00094850840988508409C850840A08508404F
:1055C000A485084000700D4018700D4024880840E4
:1055D000208808401C880840107500200888084072
:1055E0000C8808402A7600209086084030880840C1
:1055F0008C860840348808404C86084094860840D1
:105600002C8808402976002060860840DFF8C814FE
:1056100000200860704780B503F097F978B9DFF88B
:10562000B804006800E0406848B1417B0129FAD124
:10563000016800291CBFBDE8024001F090BF01BD18
:10564000DFF89414096800200A4604E0537B042B19
:1056500008BF401C5268002AF8D1DFF88024127875
:10566000C0B282420BD3002001E04968401C0029EF
:10567000FBD1DFF86C140978C0B2814201D201205D
:105680007047002070472DE9F0410746DFF84824B5
:1056900016680C46397B002500E07668002E1CBF9A
:1056A000327B8A42F9D14FF00108FEB97A89386815
:1056B00000F0CAF8060031D03581387C307407F12B
:1056C000100009F0A9FE70614FF67F41388B3083DE
:1056D000012570890840708141074FBF40F080006C
:1056E000DFF80014097840EAC11070817089C1099F
:1056F00001F00701A4B1022272733268927B520753
:1057000003D5DFF8E423128A328161B34FF67F427A
:105710001040491E40EAC110708124E0A84632E0E2
:1057200011B94FF000081EE0810605D5FDF7A1FA7A
:1057300000F07F005F3008E0C00605D5FDF799FA5C
:1057400000F00F000A3000E0012030810420707367
:105750002021DFF898432078FFF764FA18B9207801
:105760002021FDF710FC75B13289717B304600F0C5
:105770007EF840B1706908B1FDF7CDFD3046FDF708
:10578000CAFD4FF000084046BDE8F08170B5DFF873
:1057900048432268014684B0002000E05268002A95
:1057A0003DD0137B8B42F9D1517B062937D110684C
:1057B0005589007A8DF8080010680088ADF800005F
:1057C000104600F0F4F8280528D5BDF80010002098
:1057D00000F027F810BBDFF81053A98C00A80BF0DD
:1057E00005FC246800E0646814B160890005FAD5FE
:1057F0004FF6FF767CB120680188B1420ED0A98CAB
:105800000BF0EBFB1A2809D06468002CF2D06089F9
:105810000005F9D5EEE700200BF0F1FB012004B004
:1058200070BD18B9DFF8B002006800E0406840B110
:1058300042891205FAD500291EBF026812888A42E1
:10584000F4D170470120704770B504460D461646E6
:105850001C20FDF7D0FC48B100214173057346813F
:1058600001818173C17304604161416070BD38B5CD
:10587000002843D0012910D1974C2468002304E06C
:10588000657B012D08BF5B1C6468002CF8D1984C27
:105890002478DBB29C4216D211E0042911D18E4C3F
:1058A0002468002304E0657B042D08BF5B1C64684A
:1058B000002CF8D1894C2478DBB29C4203D2112011
:1058C00032BD02291AD1417302810021416082490F
:1058D0000A6832B100E00A4651680029FBD15060E5
:1058E00000E00860814C20782021FFF79BF918B96F
:1058F00020782021FDF747FB002032BDC12032BDBA
:1059000010B97548006800E0406838B1437B8B42AD
:10591000FAD11AB103689B7B5B07F5D470476E49D7
:10592000096800E0496821B10A7B8242FAD1084641
:105930007047002070476849096800E0496861B114
:105940000A6813888342F9D1126A1378527803EBFC
:105950000222D205F2D40846704700207047F8B5FD
:10596000044600260D4620000AD05B48076800E088
:105970007F682FB129463846A0470128F8D13E4616
:105980003046F2BD0020704753490A6813464FF075
:10599000000C01E09C465B6843B18342FAD1586831
:1059A000934201D108607047CCF80400704710B5ED
:1059B000040011D0FFF7E8FF2068006AFDF7ABFC98
:1059C0002068FDF7A8FC606908B1FDF7A4FC20463B
:1059D000BDE81040FDF79FBC10BD38B501683E4AD8
:1059E000098812680023002409E0557B052D01BFBA
:1059F000641C15682D888D4208BF5B1C5268002A04
:105A0000F3D13C490978DBB28B423FBF3A49097870
:105A1000E4B28C422EBF01213349098A01814FF63D
:105A2000FF7205214173418941F4006141810068A1
:105A30000188914205D02C49898C0BF0CEFA1A28A6
:105A400004D1BDE8324001200BF0D9BA31BD10B508
:105A500050B150F8081C002902BFA0F108018A7952
:105A6000FF2A03D0FDF722F9052010BD1F4C227834
:105A70008A7122490A7801462148FDF74FFA012828
:105A800006D120784FF40051FDF77DFA002010BDBB
:105A9000042010BD70B5FDF7CBFC194D2E6800F049
:105AA000010080F001048EB1104856F8081C0078FF
:105AB00000294FF4005102D0FDF765FA01E0FDF72F
:105AC00086FA002231462846FDF706FA0CB1FDF7AA
:105AD000ABFC304670BD0000F07500202AF02100BC
